{
  "contractName": "ChessFactory",
  "abi": [
    {
      "inputs": [
        {
          "internalType": "contract IERC20Burnable",
          "name": "_ubiquito",
          "type": "address"
        }
      ],
      "stateMutability": "nonpayable",
      "type": "constructor"
    },
    {
      "anonymous": false,
      "inputs": [
        {
          "indexed": true,
          "internalType": "address",
          "name": "previousOwner",
          "type": "address"
        },
        {
          "indexed": true,
          "internalType": "address",
          "name": "newOwner",
          "type": "address"
        }
      ],
      "name": "OwnershipTransferred",
      "type": "event"
    },
    {
      "inputs": [
        {
          "internalType": "uint256",
          "name": "",
          "type": "uint256"
        }
      ],
      "name": "games",
      "outputs": [
        {
          "internalType": "contract ChessGame",
          "name": "",
          "type": "address"
        }
      ],
      "stateMutability": "view",
      "type": "function"
    },
    {
      "inputs": [],
      "name": "owner",
      "outputs": [
        {
          "internalType": "address",
          "name": "",
          "type": "address"
        }
      ],
      "stateMutability": "view",
      "type": "function"
    },
    {
      "inputs": [],
      "name": "renounceOwnership",
      "outputs": [],
      "stateMutability": "nonpayable",
      "type": "function"
    },
    {
      "inputs": [],
      "name": "totalGames",
      "outputs": [
        {
          "internalType": "uint256",
          "name": "",
          "type": "uint256"
        }
      ],
      "stateMutability": "view",
      "type": "function"
    },
    {
      "inputs": [
        {
          "internalType": "address",
          "name": "newOwner",
          "type": "address"
        }
      ],
      "name": "transferOwnership",
      "outputs": [],
      "stateMutability": "nonpayable",
      "type": "function"
    },
    {
      "inputs": [
        {
          "internalType": "uint16",
          "name": "_maxChances",
          "type": "uint16"
        },
        {
          "internalType": "uint256",
          "name": "_minBid",
          "type": "uint256"
        },
        {
          "internalType": "uint256",
          "name": "_minCoinBid",
          "type": "uint256"
        },
        {
          "internalType": "uint256",
          "name": "_tokenPrice",
          "type": "uint256"
        }
      ],
      "name": "createGame",
      "outputs": [],
      "stateMutability": "nonpayable",
      "type": "function"
    },
    {
      "inputs": [],
      "name": "getLatestGame",
      "outputs": [
        {
          "internalType": "address",
          "name": "",
          "type": "address"
        }
      ],
      "stateMutability": "view",
      "type": "function"
    },
    {
      "inputs": [
        {
          "internalType": "uint256",
          "name": "_supply",
          "type": "uint256"
        }
      ],
      "name": "setInitialGameSupply",
      "outputs": [],
      "stateMutability": "nonpayable",
      "type": "function"
    },
    {
      "inputs": [
        {
          "internalType": "uint256",
          "name": "_winnerShare",
          "type": "uint256"
        },
        {
          "internalType": "uint256",
          "name": "_loserShare",
          "type": "uint256"
        },
        {
          "internalType": "uint256",
          "name": "_winnerCoinShare",
          "type": "uint256"
        }
      ],
      "name": "setRewardPercentage",
      "outputs": [],
      "stateMutability": "nonpayable",
      "type": "function"
    },
    {
      "inputs": [
        {
          "internalType": "uint256",
          "name": "_gameID",
          "type": "uint256"
        }
      ],
      "name": "setRewardFor",
      "outputs": [],
      "stateMutability": "nonpayable",
      "type": "function"
    },
    {
      "inputs": [
        {
          "internalType": "uint256",
          "name": "_gameID",
          "type": "uint256"
        }
      ],
      "name": "rewardWinners",
      "outputs": [],
      "stateMutability": "nonpayable",
      "type": "function"
    }
  ],
  "bytecode": "0x6080604052600060025560c86004556023600555600c600655603c6007556000600860006101000a81548160ff0219169083151502179055503480156200004557600080fd5b50604051620055d1380380620055d183398181016040528101906200006b9190620002a1565b6200008b6200007f620000ec60201b60201c565b620000f460201b60201c565b80600360006101000a81548173ffffffffffffffffffffffffffffffffffffffff021916908373ffffffffffffffffffffffffffffffffffffffff160217905550620000e5600554600654600754620001b860201b60201c565b50620003bd565b600033905090565b60008060009054906101000a900473ffffffffffffffffffffffffffffffffffffffff169050816000806101000a81548173ffffffffffffffffffffffffffffffffffffffff021916908373ffffffffffffffffffffffffffffffffffffffff1602179055508173ffffffffffffffffffffffffffffffffffffffff168173ffffffffffffffffffffffffffffffffffffffff167f8be0079c531659141344cd1fd0a4f28419497f9722a3daafe3b4186f6b6457e060405160405180910390a35050565b620001c8620000ec60201b60201c565b73ffffffffffffffffffffffffffffffffffffffff16620001ee6200026160201b60201c565b73ffffffffffffffffffffffffffffffffffffffff161462000247576040517f08c379a00000000000000000000000000000000000000000000000000000000081526004016200023e90620002fa565b60405180910390fd5b826005819055508160068190555080600781905550505050565b60008060009054906101000a900473ffffffffffffffffffffffffffffffffffffffff16905090565b6000815190506200029b81620003a3565b92915050565b600060208284031215620002ba57620002b962000375565b5b6000620002ca848285016200028a565b91505092915050565b6000620002e26020836200031c565b9150620002ef826200037a565b602082019050919050565b600060208201905081810360008301526200031581620002d3565b9050919050565b600082825260208201905092915050565b60006200033a8262000355565b9050919050565b60006200034e826200032d565b9050919050565b600073ffffffffffffffffffffffffffffffffffffffff82169050919050565b600080fd5b7f4f776e61626c653a2063616c6c6572206973206e6f7420746865206f776e6572600082015250565b620003ae8162000341565b8114620003ba57600080fd5b50565b61520480620003cd6000396000f3fe60806040523480156200001157600080fd5b5060043610620000b85760003560e01c8063715018a6116200007b578063715018a614620001775780638da5cb5b14620001835780639f54c67014620001a5578063a76032d014620001c5578063aa5295cb14620001e5578063f2fde38b146200020557620000b8565b8063117a5b9014620000bd5780632bbda31114620000f35780632c4e591b146200011357806332e2d7f914620001355780636ab4495e1462000155575b600080fd5b620000db6004803603810190620000d59190620014f4565b62000225565b604051620000ea919062001763565b60405180910390f35b6200011160048036038101906200010b9190620014f4565b62000258565b005b6200011d620009e2565b6040516200012c919062001886565b60405180910390f35b6200015360048036038101906200014d9190620014f4565b620009e8565b005b6200015f62000c16565b6040516200016e919062001719565b60405180910390f35b6200018162000c53565b005b6200018d62000ce4565b6040516200019c919062001719565b60405180910390f35b620001c36004803603810190620001bd919062001482565b62000d0d565b005b620001e36004803603810190620001dd919062001558565b62000fa9565b005b620002036004803603810190620001fd9190620014f4565b62001046565b005b6200022360048036038101906200021d9190620013ba565b620010d3565b005b60016020528060005260406000206000915054906101000a900473ffffffffffffffffffffffffffffffffffffffff1681565b62000262620011d7565b73ffffffffffffffffffffffffffffffffffffffff166200028262000ce4565b73ffffffffffffffffffffffffffffffffffffffff1614620002db576040517f08c379a0000000000000000000000000000000000000000000000000000000008152600401620002d29062001864565b60405180910390fd5b60006001600083815260200190815260200160002060009054906101000a900473ffffffffffffffffffffffffffffffffffffffff169050600060028111156200032a576200032962001bc6565b5b8173ffffffffffffffffffffffffffffffffffffffff1663aff814cf6040518163ffffffff1660e01b815260040160206040518083038186803b1580156200037157600080fd5b505afa15801562000386573d6000803e3d6000fd5b505050506040513d601f19601f82011682018060405250810190620003ac91906200141e565b6002811115620003c157620003c062001bc6565b5b141562000405576040517f08c379a0000000000000000000000000000000000000000000000000000000008152600401620003fc90620017fe565b60405180910390fd5b6002808111156200041b576200041a62001bc6565b5b8173ffffffffffffffffffffffffffffffffffffffff1663aff814cf6040518163ffffffff1660e01b815260040160206040518083038186803b1580156200046257600080fd5b505afa15801562000477573d6000803e3d6000fd5b505050506040513d601f19601f820116820180604052508101906200049d91906200141e565b6002811115620004b257620004b162001bc6565b5b141562000534578073ffffffffffffffffffffffffffffffffffffffff1663e1c05d9360008060006040518463ffffffff1660e01b8152600401620004fa939291906200179d565b600060405180830381600087803b1580156200051557600080fd5b505af11580156200052a573d6000803e3d6000fd5b50505050620009de565b60008173ffffffffffffffffffffffffffffffffffffffff1663b108501f6040518163ffffffff1660e01b815260040160206040518083038186803b1580156200057d57600080fd5b505afa15801562000592573d6000803e3d6000fd5b505050506040513d601f19601f82011682018060405250810190620005b8919062001450565b905060008273ffffffffffffffffffffffffffffffffffffffff1663d1e90d626040518163ffffffff1660e01b815260040160206040518083038186803b1580156200060357600080fd5b505afa15801562000618573d6000803e3d6000fd5b505050506040513d601f19601f820116820180604052508101906200063e919062001450565b905060008373ffffffffffffffffffffffffffffffffffffffff1663ccd79382836040518263ffffffff1660e01b81526004016200067d919062001780565b60206040518083038186803b1580156200069657600080fd5b505afa158015620006ab573d6000803e3d6000fd5b505050506040513d601f19601f82011682018060405250810190620006d1919062001526565b905060008473ffffffffffffffffffffffffffffffffffffffff16633ef018eb846040518263ffffffff1660e01b815260040162000710919062001780565b60206040518083038186803b1580156200072957600080fd5b505afa1580156200073e573d6000803e3d6000fd5b505050506040513d601f19601f8201168201806040525081019062000764919062001526565b905060008573ffffffffffffffffffffffffffffffffffffffff1663e9771986866040518263ffffffff1660e01b8152600401620007a3919062001780565b60206040518083038186803b158015620007bc57600080fd5b505afa158015620007d1573d6000803e3d6000fd5b505050506040513d601f19601f82011682018060405250810190620007f7919062001526565b905060008673ffffffffffffffffffffffffffffffffffffffff1663e9771986866040518263ffffffff1660e01b815260040162000836919062001780565b60206040518083038186803b1580156200084f57600080fd5b505afa15801562000864573d6000803e3d6000fd5b505050506040513d601f19601f820116820180604052508101906200088a919062001526565b90506000620008d160055486620008a291906200198a565b606485620008b191906200198a565b6040518060600160405280602e815260200162005141602e9139620011df565b905060006200091860075486620008e991906200198a565b606486620008f891906200198a565b6040518060600160405280603381526020016200519c60339139620011df565b905060006200095f600654886200093091906200198a565b6064866200093f91906200198a565b6040518060600160405280602d81526020016200516f602d9139620011df565b90508973ffffffffffffffffffffffffffffffffffffffff1663e1c05d938483856040518463ffffffff1660e01b8152600401620009a09392919062001931565b600060405180830381600087803b158015620009bb57600080fd5b505af1158015620009d0573d6000803e3d6000fd5b505050505050505050505050505b5050565b60025481565b620009f2620011d7565b73ffffffffffffffffffffffffffffffffffffffff1662000a1262000ce4565b73ffffffffffffffffffffffffffffffffffffffff161462000a6b576040517f08c379a000000000000000000000000000000000000000000000000000000000815260040162000a629062001864565b60405180910390fd5b60006001600083815260200190815260200160002060009054906101000a900473ffffffffffffffffffffffffffffffffffffffff1690506000600281111562000aba5762000ab962001bc6565b5b8173ffffffffffffffffffffffffffffffffffffffff1663aff814cf6040518163ffffffff1660e01b815260040160206040518083038186803b15801562000b0157600080fd5b505afa15801562000b16573d6000803e3d6000fd5b505050506040513d601f19601f8201168201806040525081019062000b3c91906200141e565b600281111562000b515762000b5062001bc6565b5b141562000b95576040517f08c379a000000000000000000000000000000000000000000000000000000000815260040162000b8c90620017fe565b60405180910390fd5b8073ffffffffffffffffffffffffffffffffffffffff166395cb1b1e6040518163ffffffff1660e01b8152600401600060405180830381600087803b15801562000bde57600080fd5b505af115801562000bf3573d6000803e3d6000fd5b505050506000600860006101000a81548160ff0219169083151502179055505050565b600060016000600254815260200190815260200160002060009054906101000a900473ffffffffffffffffffffffffffffffffffffffff16905090565b62000c5d620011d7565b73ffffffffffffffffffffffffffffffffffffffff1662000c7d62000ce4565b73ffffffffffffffffffffffffffffffffffffffff161462000cd6576040517f08c379a000000000000000000000000000000000000000000000000000000000815260040162000ccd9062001864565b60405180910390fd5b62000ce2600062001247565b565b60008060009054906101000a900473ffffffffffffffffffffffffffffffffffffffff16905090565b62000d17620011d7565b73ffffffffffffffffffffffffffffffffffffffff1662000d3762000ce4565b73ffffffffffffffffffffffffffffffffffffffff161462000d90576040517f08c379a000000000000000000000000000000000000000000000000000000000815260040162000d879062001864565b60405180910390fd5b60001515600860009054906101000a900460ff1615151462000de9576040517f08c379a000000000000000000000000000000000000000000000000000000000815260040162000de09062001842565b60405180910390fd5b6002600081548092919062000dfe9062001b1a565b91905055506000600254858585600360009054906101000a900473ffffffffffffffffffffffffffffffffffffffff168662000e3962000ce4565b3060405162000e48906200130b565b62000e5b989796959493929190620018a3565b604051809103906000f08015801562000e78573d6000803e3d6000fd5b509050600360009054906101000a900473ffffffffffffffffffffffffffffffffffffffff1673ffffffffffffffffffffffffffffffffffffffff1663a9059cbb826004546040518363ffffffff1660e01b815260040162000edc92919062001736565b602060405180830381600087803b15801562000ef757600080fd5b505af115801562000f0c573d6000803e3d6000fd5b505050506040513d601f19601f8201168201806040525081019062000f329190620013ec565b508060016000600254815260200190815260200160002060006101000a81548173ffffffffffffffffffffffffffffffffffffffff021916908373ffffffffffffffffffffffffffffffffffffffff1602179055506001600860006101000a81548160ff0219169083151502179055505050505050565b62000fb3620011d7565b73ffffffffffffffffffffffffffffffffffffffff1662000fd362000ce4565b73ffffffffffffffffffffffffffffffffffffffff16146200102c576040517f08c379a0000000000000000000000000000000000000000000000000000000008152600401620010239062001864565b60405180910390fd5b826005819055508160068190555080600781905550505050565b62001050620011d7565b73ffffffffffffffffffffffffffffffffffffffff166200107062000ce4565b73ffffffffffffffffffffffffffffffffffffffff1614620010c9576040517f08c379a0000000000000000000000000000000000000000000000000000000008152600401620010c09062001864565b60405180910390fd5b8060048190555050565b620010dd620011d7565b73ffffffffffffffffffffffffffffffffffffffff16620010fd62000ce4565b73ffffffffffffffffffffffffffffffffffffffff161462001156576040517f08c379a00000000000000000000000000000000000000000000000000000000081526004016200114d9062001864565b60405180910390fd5b600073ffffffffffffffffffffffffffffffffffffffff168173ffffffffffffffffffffffffffffffffffffffff161415620011c9576040517f08c379a0000000000000000000000000000000000000000000000000000000008152600401620011c09062001820565b60405180910390fd5b620011d48162001247565b50565b600033905090565b6000808311829062001229576040517f08c379a0000000000000000000000000000000000000000000000000000000008152600401620012209190620017da565b60405180910390fd5b508284816200123d576200123c62001b97565b5b0490509392505050565b60008060009054906101000a900473ffffffffffffffffffffffffffffffffffffffff169050816000806101000a81548173ffffffffffffffffffffffffffffffffffffffff021916908373ffffffffffffffffffffffffffffffffffffffff1602179055508173ffffffffffffffffffffffffffffffffffffffff168173ffffffffffffffffffffffffffffffffffffffff167f8be0079c531659141344cd1fd0a4f28419497f9722a3daafe3b4186f6b6457e060405160405180910390a35050565b61337e8062001dc383390190565b6000813590506200132a8162001d38565b92915050565b600081519050620013418162001d52565b92915050565b600081519050620013588162001d6c565b92915050565b6000815190506200136f8162001d7d565b92915050565b600081359050620013868162001d8e565b92915050565b6000813590506200139d8162001da8565b92915050565b600081519050620013b48162001da8565b92915050565b600060208284031215620013d357620013d262001bf5565b5b6000620013e38482850162001319565b91505092915050565b60006020828403121562001405576200140462001bf5565b5b6000620014158482850162001330565b91505092915050565b60006020828403121562001437576200143662001bf5565b5b6000620014478482850162001347565b91505092915050565b60006020828403121562001469576200146862001bf5565b5b600062001479848285016200135e565b91505092915050565b600080600080608085870312156200149f576200149e62001bf5565b5b6000620014af8782880162001375565b9450506020620014c2878288016200138c565b9350506040620014d5878288016200138c565b9250506060620014e8878288016200138c565b91505092959194509250565b6000602082840312156200150d576200150c62001bf5565b5b60006200151d848285016200138c565b91505092915050565b6000602082840312156200153f576200153e62001bf5565b5b60006200154f84828501620013a3565b91505092915050565b60008060006060848603121562001574576200157362001bf5565b5b600062001584868287016200138c565b935050602062001597868287016200138c565b9250506040620015aa868287016200138c565b9150509250925092565b620015bf81620019ff565b82525050565b620015d081620019eb565b82525050565b620015e18162001a6c565b82525050565b620015f28162001a94565b82525050565b620016038162001abc565b82525050565b620016148162001ad0565b82525050565b600062001627826200196e565b62001633818562001979565b93506200164581856020860162001ae4565b620016508162001bfa565b840191505092915050565b60006200166a60258362001979565b9150620016778262001c0b565b604082019050919050565b60006200169160268362001979565b91506200169e8262001c5a565b604082019050919050565b6000620016b8602a8362001979565b9150620016c58262001ca9565b604082019050919050565b6000620016df60208362001979565b9150620016ec8262001cf8565b602082019050919050565b620017028162001a34565b82525050565b620017138162001a62565b82525050565b6000602082019050620017306000830184620015c5565b92915050565b60006040820190506200174d6000830185620015c5565b6200175c602083018462001708565b9392505050565b60006020820190506200177a6000830184620015d6565b92915050565b6000602082019050620017976000830184620015f8565b92915050565b6000606082019050620017b4600083018662001609565b620017c3602083018562001609565b620017d2604083018462001609565b949350505050565b60006020820190508181036000830152620017f681846200161a565b905092915050565b6000602082019050818103600083015262001819816200165b565b9050919050565b600060208201905081810360008301526200183b8162001682565b9050919050565b600060208201905081810360008301526200185d81620016a9565b9050919050565b600060208201905081810360008301526200187f81620016d0565b9050919050565b60006020820190506200189d600083018462001708565b92915050565b600061010082019050620018bb600083018b62001708565b620018ca602083018a620016f7565b620018d9604083018962001708565b620018e8606083018862001708565b620018f76080830187620015e7565b6200190660a083018662001708565b6200191560c0830185620015c5565b6200192460e0830184620015b4565b9998505050505050505050565b600060608201905062001948600083018662001708565b62001957602083018562001708565b62001966604083018462001708565b949350505050565b600081519050919050565b600082825260208201905092915050565b6000620019978262001a62565b9150620019a48362001a62565b9250817fffffffffffffffffffffffffffffffffffffffffffffffffffffffffffffffff0483118215151615620019e057620019df62001b68565b5b828202905092915050565b6000620019f88262001a42565b9050919050565b600062001a0c8262001a42565b9050919050565b60008115159050919050565b600081905062001a2f8262001d21565b919050565b600061ffff82169050919050565b600073ffffffffffffffffffffffffffffffffffffffff82169050919050565b6000819050919050565b600062001a798262001a80565b9050919050565b600062001a8d8262001a42565b9050919050565b600062001aa18262001aa8565b9050919050565b600062001ab58262001a42565b9050919050565b600062001ac98262001a1f565b9050919050565b600062001add8262001a62565b9050919050565b60005b8381101562001b0457808201518184015260208101905062001ae7565b8381111562001b14576000848401525b50505050565b600062001b278262001a62565b91507fffffffffffffffffffffffffffffffffffffffffffffffffffffffffffffffff82141562001b5d5762001b5c62001b68565b5b600182019050919050565b7f4e487b7100000000000000000000000000000000000000000000000000000000600052601160045260246000fd5b7f4e487b7100000000000000000000000000000000000000000000000000000000600052601260045260246000fd5b7f4e487b7100000000000000000000000000000000000000000000000000000000600052602160045260246000fd5b600080fd5b6000601f19601f8301169050919050565b7f4368657373466163746f72793a2047616d6520686173206e6f7420656e64656460008201527f2079657421000000000000000000000000000000000000000000000000000000602082015250565b7f4f776e61626c653a206e6577206f776e657220697320746865207a65726f206160008201527f6464726573730000000000000000000000000000000000000000000000000000602082015250565b7f4368657373466163746f72793a20412067616d65206973207374696c6c20696e60008201527f2070726f67726573732100000000000000000000000000000000000000000000602082015250565b7f4f776e61626c653a2063616c6c6572206973206e6f7420746865206f776e6572600082015250565b6003811062001d355762001d3462001bc6565b5b50565b62001d4381620019eb565b811462001d4f57600080fd5b50565b62001d5d8162001a13565b811462001d6957600080fd5b50565b6003811062001d7a57600080fd5b50565b6003811062001d8b57600080fd5b50565b62001d998162001a34565b811462001da557600080fd5b50565b62001db38162001a62565b811462001dbf57600080fd5b5056fe6080604052604051806060016040528060388152602001620033466038913960039080519060200190620000359291906200022a565b506000600960006101000a81548160ff021916908360028111156200005f576200005e620004c0565b5b02179055506000600960016101000a81548160ff021916908360028111156200008d576200008c620004c0565b5b02179055506000600960026101000a81548160ff02191690836002811115620000bb57620000ba620004c0565b5b02179055506001600960036101000a81548160ff02191690836002811115620000e957620000e8620004c0565b5b0217905550348015620000fb57600080fd5b506040516200337e3803806200337e83398181016040528101906200012191906200034d565b8760058190555086600460006101000a81548161ffff021916908361ffff160217905550856007819055508460068190555083600260006101000a81548173ffffffffffffffffffffffffffffffffffffffff021916908373ffffffffffffffffffffffffffffffffffffffff1602179055508260088190555081600160006101000a81548173ffffffffffffffffffffffffffffffffffffffff021916908373ffffffffffffffffffffffffffffffffffffffff160217905550806000806101000a81548173ffffffffffffffffffffffffffffffffffffffff021916908373ffffffffffffffffffffffffffffffffffffffff1602179055505050505050505050620005a5565b82805462000238906200048a565b90600052602060002090601f0160209004810192826200025c5760008555620002a8565b82601f106200027757805160ff1916838001178555620002a8565b82800160010185558215620002a8579182015b82811115620002a75782518255916020019190600101906200028a565b5b509050620002b79190620002bb565b5090565b5b80821115620002d6576000816000905550600101620002bc565b5090565b600081519050620002eb8162000523565b92915050565b60008151905062000302816200053d565b92915050565b600081519050620003198162000557565b92915050565b600081519050620003308162000571565b92915050565b60008151905062000347816200058b565b92915050565b600080600080600080600080610100898b0312156200037157620003706200051e565b5b6000620003818b828c0162000336565b9850506020620003948b828c016200031f565b9750506040620003a78b828c0162000336565b9650506060620003ba8b828c0162000336565b9550506080620003cd8b828c0162000308565b94505060a0620003e08b828c0162000336565b93505060c0620003f38b828c01620002da565b92505060e0620004068b828c01620002f1565b9150509295985092959890939650565b6000620004238262000460565b9050919050565b6000620004378262000460565b9050919050565b60006200044b8262000416565b9050919050565b600061ffff82169050919050565b600073ffffffffffffffffffffffffffffffffffffffff82169050919050565b6000819050919050565b60006002820490506001821680620004a357607f821691505b60208210811415620004ba57620004b9620004ef565b5b50919050565b7f4e487b7100000000000000000000000000000000000000000000000000000000600052602160045260246000fd5b7f4e487b7100000000000000000000000000000000000000000000000000000000600052602260045260246000fd5b600080fd5b6200052e8162000416565b81146200053a57600080fd5b50565b62000548816200042a565b81146200055457600080fd5b50565b62000562816200043e565b81146200056e57600080fd5b50565b6200057c8162000452565b81146200058857600080fd5b50565b620005968162000480565b8114620005a257600080fd5b50565b612d9180620005b56000396000f3fe60806040526004361061010d5760003560e01c8063b007781b11610095578063d1e90d6211610064578063d1e90d6214610337578063e1c05d9314610362578063e97719861461038b578063fbfc2d65146103c8578063fdcdb06b146103f357610114565b8063b007781b14610279578063b108501f146102a4578063ccd79382146102cf578063ce69cd201461030c57610114565b80634f71aff4116100dc5780634f71aff4146101b65780638b299903146101e157806395cb1b1e1461020c5780639707b03014610223578063aff814cf1461024e57610114565b8063107b652214610116578063339df860146101325780633e51d6811461014e5780633ef018eb1461017957610114565b3661011457005b005b610130600480360381019061012b9190611f8d565b61041e565b005b61014c60048036038101906101479190611ffc565b61085f565b005b34801561015a57600080fd5b50610163610d55565b6040516101709190612583565b60405180910390f35b34801561018557600080fd5b506101a0600480360381019061019b919061207f565b610d5b565b6040516101ad9190612583565b60405180910390f35b3480156101c257600080fd5b506101cb610d9f565b6040516101d89190612568565b60405180910390f35b3480156101ed57600080fd5b506101f6610db3565b60405161020391906123eb565b60405180910390f35b34801561021857600080fd5b50610221610dc6565b005b34801561022f57600080fd5b50610238611116565b6040516102459190612583565b60405180910390f35b34801561025a57600080fd5b5061026361111c565b60405161027091906123d0565b60405180910390f35b34801561028557600080fd5b5061028e61112f565b60405161029b9190612406565b60405180910390f35b3480156102b057600080fd5b506102b96111c1565b6040516102c691906123eb565b60405180910390f35b3480156102db57600080fd5b506102f660048036038101906102f1919061207f565b6111d4565b6040516103039190612583565b60405180910390f35b34801561031857600080fd5b50610321611218565b60405161032e9190612583565b60405180910390f35b34801561034357600080fd5b5061034c61121e565b60405161035991906123eb565b60405180910390f35b34801561036e57600080fd5b50610389600480360381019061038491906120d9565b611231565b005b34801561039757600080fd5b506103b260048036038101906103ad919061207f565b6113c8565b6040516103bf9190612583565b60405180910390f35b3480156103d457600080fd5b506103dd611485565b6040516103ea9190612406565b60405180910390f35b3480156103ff57600080fd5b50610408611513565b6040516104159190612583565b60405180910390f35b60006002811115610432576104316129a9565b5b600960009054906101000a900460ff166002811115610454576104536129a9565b5b14610494576040517f08c379a000000000000000000000000000000000000000000000000000000000815260040161048b90612448565b60405180910390fd5b6007543414806104b857506104b5600560075461151990919063ffffffff16565b34145b806104d757506104d4600a60075461151990919063ffffffff16565b34145b610516576040517f08c379a000000000000000000000000000000000000000000000000000000000815260040161050d90612428565b60405180910390fd5b816000600a60003373ffffffffffffffffffffffffffffffffffffffff1673ffffffffffffffffffffffffffffffffffffffff16815260200190815260200160002060000160009054906101000a900460ff1690506000600281111561057f5761057e6129a9565b5b816002811115610592576105916129a9565b5b14156106a25781600a60003373ffffffffffffffffffffffffffffffffffffffff1673ffffffffffffffffffffffffffffffffffffffff16815260200190815260200160002060000160006101000a81548160ff021916908360028111156105fd576105fc6129a9565b5b0217905550600b6000836002811115610619576106186129a9565b5b600281111561062b5761062a6129a9565b5b8152602001908152602001600020600001339080600181540180825580915050600190039060005260206000200160009091909190916101000a81548173ffffffffffffffffffffffffffffffffffffffff021916908373ffffffffffffffffffffffffffffffffffffffff160217905550610709565b8160028111156106b5576106b46129a9565b5b8160028111156106c8576106c76129a9565b5b14610708576040517f08c379a00000000000000000000000000000000000000000000000000000000081526004016106ff90612528565b60405180910390fd5b5b83600960039054906101000a900460ff16600281111561072c5761072b6129a9565b5b81600281111561073f5761073e6129a9565b5b1461077f576040517f08c379a000000000000000000000000000000000000000000000000000000000815260040161077690612508565b60405180910390fd5b600460009054906101000a900461ffff1661ffff16600a60003373ffffffffffffffffffffffffffffffffffffffff1673ffffffffffffffffffffffffffffffffffffffff16815260200190815260200160002060000160019054906101000a900461ffff1661ffff1610610829576040517f08c379a000000000000000000000000000000000000000000000000000000000815260040161082090612468565b60405180910390fd5b836003908051906020019061083f929190611de4565b5061084d338634600061152f565b6108578686611704565b505050505050565b60006002811115610873576108726129a9565b5b600960009054906101000a900460ff166002811115610895576108946129a9565b5b146108d5576040517f08c379a00000000000000000000000000000000000000000000000000000000081526004016108cc90612448565b60405180910390fd5b816006548114806108fa57506108f7600560065461151990919063ffffffff16565b81145b806109195750610916600a60065461151990919063ffffffff16565b81145b610958576040517f08c379a000000000000000000000000000000000000000000000000000000000815260040161094f90612428565b60405180910390fd5b836000600a60003373ffffffffffffffffffffffffffffffffffffffff1673ffffffffffffffffffffffffffffffffffffffff16815260200190815260200160002060000160009054906101000a900460ff169050600060028111156109c1576109c06129a9565b5b8160028111156109d4576109d36129a9565b5b1415610ae45781600a60003373ffffffffffffffffffffffffffffffffffffffff1673ffffffffffffffffffffffffffffffffffffffff16815260200190815260200160002060000160006101000a81548160ff02191690836002811115610a3f57610a3e6129a9565b5b0217905550600b6000836002811115610a5b57610a5a6129a9565b5b6002811115610a6d57610a6c6129a9565b5b8152602001908152602001600020600001339080600181540180825580915050600190039060005260206000200160009091909190916101000a81548173ffffffffffffffffffffffffffffffffffffffff021916908373ffffffffffffffffffffffffffffffffffffffff160217905550610b4b565b816002811115610af757610af66129a9565b5b816002811115610b0a57610b096129a9565b5b14610b4a576040517f08c379a0000000000000000000000000000000000000000000000000000000008152600401610b4190612528565b60405180910390fd5b5b85600960039054906101000a900460ff166002811115610b6e57610b6d6129a9565b5b816002811115610b8157610b806129a9565b5b14610bc1576040517f08c379a0000000000000000000000000000000000000000000000000000000008152600401610bb890612508565b60405180910390fd5b600460009054906101000a900461ffff1661ffff16600a60003373ffffffffffffffffffffffffffffffffffffffff1673ffffffffffffffffffffffffffffffffffffffff16815260200190815260200160002060000160019054906101000a900461ffff1661ffff1610610c6b576040517f08c379a0000000000000000000000000000000000000000000000000000000008152600401610c6290612468565b60405180910390fd5b8460039080519060200190610c81929190611de4565b50610c8f338860008961152f565b610c998888611704565b600260009054906101000a900473ffffffffffffffffffffffffffffffffffffffff1673ffffffffffffffffffffffffffffffffffffffff166323b872dd3330896040518463ffffffff1660e01b8152600401610cf893929190612399565b602060405180830381600087803b158015610d1257600080fd5b505af1158015610d26573d6000803e3d6000fd5b505050506040513d601f19601f82011682018060405250810190610d4a9190611f60565b505050505050505050565b60085481565b6000600b6000836002811115610d7457610d736129a9565b5b6002811115610d8657610d856129a9565b5b8152602001908152602001600020600201549050919050565b600460009054906101000a900461ffff1681565b600960039054906101000a900460ff1681565b60006002811115610dda57610dd96129a9565b5b600960009054906101000a900460ff166002811115610dfc57610dfb6129a9565b5b1415610e3d576040517f08c379a0000000000000000000000000000000000000000000000000000000008152600401610e3490612548565b60405180910390fd5b60008054906101000a900473ffffffffffffffffffffffffffffffffffffffff1673ffffffffffffffffffffffffffffffffffffffff163373ffffffffffffffffffffffffffffffffffffffff1614610ecb576040517f08c379a0000000000000000000000000000000000000000000000000000000008152600401610ec2906124c8565b60405180910390fd5b600160149054906101000a900460ff16610f1a576040517f08c379a0000000000000000000000000000000000000000000000000000000008152600401610f11906124e8565b60405180910390fd5b610f24600161187c565b7fa063b25e86b685025877e8288a7c25aaa1111ff0242b4fd0fa8c78c7dcd5cd976005546001604051610f589291906125d5565b60405180910390a1610f6a600261187c565b7fa063b25e86b685025877e8288a7c25aaa1111ff0242b4fd0fa8c78c7dcd5cd976005546002604051610f9e9291906125d5565b60405180910390a1600260009054906101000a900473ffffffffffffffffffffffffffffffffffffffff1673ffffffffffffffffffffffffffffffffffffffff166342966c68600260009054906101000a900473ffffffffffffffffffffffffffffffffffffffff1673ffffffffffffffffffffffffffffffffffffffff166370a08231306040518263ffffffff1660e01b815260040161103f9190612355565b60206040518083038186803b15801561105757600080fd5b505afa15801561106b573d6000803e3d6000fd5b505050506040513d601f19601f8201168201806040525081019061108f91906120ac565b6040518263ffffffff1660e01b81526004016110ab9190612583565b600060405180830381600087803b1580156110c557600080fd5b505af11580156110d9573d6000803e3d6000fd5b5050505060008054906101000a900473ffffffffffffffffffffffffffffffffffffffff1673ffffffffffffffffffffffffffffffffffffffff16ff5b60065481565b600960009054906101000a900460ff1681565b60606003805461113e90612874565b80601f016020809104026020016040519081016040528092919081815260200182805461116a90612874565b80156111b75780601f1061118c576101008083540402835291602001916111b7565b820191906000526020600020905b81548152906001019060200180831161119a57829003601f168201915b5050505050905090565b600960019054906101000a900460ff1681565b6000600b60008360028111156111ed576111ec6129a9565b5b60028111156111ff576111fe6129a9565b5b8152602001908152602001600020600101549050919050565b60075481565b600960029054906101000a900460ff1681565b60008054906101000a900473ffffffffffffffffffffffffffffffffffffffff1673ffffffffffffffffffffffffffffffffffffffff163373ffffffffffffffffffffffffffffffffffffffff16146112bf576040517f08c379a00000000000000000000000000000000000000000000000000000000081526004016112b6906124c8565b60405180910390fd5b82600b6000600960019054906101000a900460ff1660028111156112e6576112e56129a9565b5b60028111156112f8576112f76129a9565b5b81526020019081526020016000206004018190555081600b6000600960029054906101000a900460ff166002811115611334576113336129a9565b5b6002811115611346576113456129a9565b5b81526020019081526020016000206004018190555080600b6000600960019054906101000a900460ff166002811115611382576113816129a9565b5b6002811115611394576113936129a9565b5b81526020019081526020016000206005018190555060018060146101000a81548160ff021916908315150217905550505050565b60008060028111156113dd576113dc6129a9565b5b600960009054906101000a900460ff1660028111156113ff576113fe6129a9565b5b1415611440576040517f08c379a000000000000000000000000000000000000000000000000000000000815260040161143790612548565b60405180910390fd5b600b6000836002811115611457576114566129a9565b5b6002811115611469576114686129a9565b5b8152602001908152602001600020600001805490509050919050565b6003805461149290612874565b80601f01602080910402602001604051908101604052809291908181526020018280546114be90612874565b801561150b5780601f106114e05761010080835404028352916020019161150b565b820191906000526020600020905b8154815290600101906020018083116114ee57829003601f168201915b505050505081565b60055481565b600081836115279190612702565b905092915050565b81600a60008673ffffffffffffffffffffffffffffffffffffffff1673ffffffffffffffffffffffffffffffffffffffff1681526020019081526020016000206001016000828254611581919061267b565b9250508190555080600a60008673ffffffffffffffffffffffffffffffffffffffff1673ffffffffffffffffffffffffffffffffffffffff16815260200190815260200160002060020160008282546115da919061267b565b9250508190555081600b60008560028111156115f9576115f86129a9565b5b600281111561160b5761160a6129a9565b5b8152602001908152602001600020600101600082825461162b919061267b565b9250508190555080600b600085600281111561164a576116496129a9565b5b600281111561165c5761165b6129a9565b5b8152602001908152602001600020600201600082825461167c919061267b565b92505081905550600a60008573ffffffffffffffffffffffffffffffffffffffff1673ffffffffffffffffffffffffffffffffffffffff168152602001908152602001600020600001600181819054906101000a900461ffff16809291906116e3906128d7565b91906101000a81548161ffff021916908361ffff1602179055505050505050565b60006002811115611718576117176129a9565b5b82600281111561172b5761172a6129a9565b5b14156117685761173a81611c99565b600960036101000a81548160ff0219169083600281111561175e5761175d6129a9565b5b0217905550611878565b81600960006101000a81548160ff0219169083600281111561178d5761178c6129a9565b5b0217905550600160028111156117a6576117a56129a9565b5b8260028111156117b9576117b86129a9565b5b141561181c5780600960016101000a81548160ff021916908360028111156117e4576117e36129a9565b5b02179055506117f281611c99565b600960026101000a81548160ff02191690836002811115611816576118156129a9565b5b02179055505b7f9f944246baa01667bdd75f4a173d7aea07caaeddfd168558809d7bba08a5d43a600554600960009054906101000a900460ff16600960019054906101000a900460ff1660405161186f9392919061259e565b60405180910390a15b5050565b600060028111156118905761188f6129a9565b5b600960009054906101000a900460ff1660028111156118b2576118b16129a9565b5b14156118f3576040517f08c379a00000000000000000000000000000000000000000000000000000000081526004016118ea90612548565b60405180910390fd5b600160149054906101000a900460ff16611942576040517f08c379a0000000000000000000000000000000000000000000000000000000008152600401611939906124e8565b60405180910390fd5b600061194d826113c8565b90506000600b6000846002811115611968576119676129a9565b5b600281111561197a576119796129a9565b5b81526020019081526020016000206004015490506000600b60008560028111156119a7576119a66129a9565b5b60028111156119b9576119b86129a9565b5b81526020019081526020016000206005015490506000600960019054906101000a900460ff1660028111156119f1576119f06129a9565b5b856002811115611a0457611a036129a9565b5b1480611a34575060006002811115611a1f57611a1e6129a9565b5b856002811115611a3257611a316129a9565b5b145b15611a3e57600190505b60005b84811015611c91576000600b6000886002811115611a6257611a616129a9565b5b6002811115611a7457611a736129a9565b5b81526020019081526020016000206000018281548110611a9757611a96612a07565b5b9060005260206000200160009054906101000a900473ffffffffffffffffffffffffffffffffffffffff16905060008360ff16600a60008473ffffffffffffffffffffffffffffffffffffffff1673ffffffffffffffffffffffffffffffffffffffff16815260200190815260200160002060010154611b179190612702565b905060008187611b27919061267b565b9050611b338382611cda565b600060028660ff16600a60008773ffffffffffffffffffffffffffffffffffffffff1673ffffffffffffffffffffffffffffffffffffffff16815260200190815260200160002060020154611b889190612702565b611b9291906126d1565b9050600087611bac6008548b611dce90919063ffffffff16565b611bb6919061267b565b905060008183611bc6919061267b565b9050600260009054906101000a900473ffffffffffffffffffffffffffffffffffffffff1673ffffffffffffffffffffffffffffffffffffffff1663a9059cbb87836040518363ffffffff1660e01b8152600401611c25929190612370565b602060405180830381600087803b158015611c3f57600080fd5b505af1158015611c53573d6000803e3d6000fd5b505050506040513d601f19601f82011682018060405250810190611c779190611f60565b505050505050508080611c8990612902565b915050611a41565b505050505050565b6000600280811115611cae57611cad6129a9565b5b826002811115611cc157611cc06129a9565b5b1415611cd05760019050611cd5565b600290505b919050565b80471015611d1d576040517f08c379a0000000000000000000000000000000000000000000000000000000008152600401611d14906124a8565b60405180910390fd5b60008273ffffffffffffffffffffffffffffffffffffffff1682604051611d4390612340565b60006040518083038185875af1925050503d8060008114611d80576040519150601f19603f3d011682016040523d82523d6000602084013e611d85565b606091505b5050905080611dc9576040517f08c379a0000000000000000000000000000000000000000000000000000000008152600401611dc090612488565b60405180910390fd5b505050565b60008183611ddc91906126d1565b905092915050565b828054611df090612874565b90600052602060002090601f016020900481019282611e125760008555611e59565b82601f10611e2b57805160ff1916838001178555611e59565b82800160010185558215611e59579182015b82811115611e58578251825591602001919060010190611e3d565b5b509050611e669190611e6a565b5090565b5b80821115611e83576000816000905550600101611e6b565b5090565b6000611e9a611e9584612623565b6125fe565b905082815260208101848484011115611eb657611eb5612a6a565b5b611ec1848285612832565b509392505050565b600081519050611ed881612d0d565b92915050565b600081359050611eed81612d24565b92915050565b600081359050611f0281612d34565b92915050565b600082601f830112611f1d57611f1c612a65565b5b8135611f2d848260208601611e87565b91505092915050565b600081359050611f4581612d44565b92915050565b600081519050611f5a81612d44565b92915050565b600060208284031215611f7657611f75612a74565b5b6000611f8484828501611ec9565b91505092915050565b600080600060608486031215611fa657611fa5612a74565b5b6000611fb486828701611ede565b9350506020611fc586828701611ef3565b925050604084013567ffffffffffffffff811115611fe657611fe5612a6f565b5b611ff286828701611f08565b9150509250925092565b6000806000806080858703121561201657612015612a74565b5b600061202487828801611ede565b945050602061203587828801611ef3565b935050604061204687828801611f36565b925050606085013567ffffffffffffffff81111561206757612066612a6f565b5b61207387828801611f08565b91505092959194509250565b60006020828403121561209557612094612a74565b5b60006120a384828501611ef3565b91505092915050565b6000602082840312156120c2576120c1612a74565b5b60006120d084828501611f4b565b91505092915050565b6000806000606084860312156120f2576120f1612a74565b5b600061210086828701611f36565b935050602061211186828701611f36565b925050604061212286828701611f36565b9150509250925092565b612135816127d8565b82525050565b6121448161275c565b82525050565b612153816127ea565b82525050565b612162816127fc565b82525050565b600061217382612654565b61217d818561266a565b935061218d818560208601612841565b61219681612a79565b840191505092915050565b60006121ae60178361266a565b91506121b982612a8a565b602082019050919050565b60006121d160168361266a565b91506121dc82612ab3565b602082019050919050565b60006121f4602b8361266a565b91506121ff82612adc565b604082019050919050565b6000612217603a8361266a565b915061222282612b2b565b604082019050919050565b600061223a601d8361266a565b915061224582612b7a565b602082019050919050565b600061225d60348361266a565b915061226882612ba3565b604082019050919050565b600061228060238361266a565b915061228b82612bf2565b604082019050919050565b60006122a360008361265f565b91506122ae82612c41565b600082019050919050565b60006122c660198361266a565b91506122d182612c44565b602082019050919050565b60006122e960238361266a565b91506122f482612c6d565b604082019050919050565b600061230c601c8361266a565b915061231782612cbc565b602082019050919050565b61232b816127a0565b82525050565b61233a816127ce565b82525050565b600061234b82612296565b9150819050919050565b600060208201905061236a600083018461213b565b92915050565b6000604082019050612385600083018561212c565b6123926020830184612331565b9392505050565b60006060820190506123ae600083018661213b565b6123bb602083018561213b565b6123c86040830184612331565b949350505050565b60006020820190506123e5600083018461214a565b92915050565b60006020820190506124006000830184612159565b92915050565b600060208201905081810360008301526124208184612168565b905092915050565b60006020820190508181036000830152612441816121a1565b9050919050565b60006020820190508181036000830152612461816121c4565b9050919050565b60006020820190508181036000830152612481816121e7565b9050919050565b600060208201905081810360008301526124a18161220a565b9050919050565b600060208201905081810360008301526124c18161222d565b9050919050565b600060208201905081810360008301526124e181612250565b9050919050565b6000602082019050818103600083015261250181612273565b9050919050565b60006020820190508181036000830152612521816122b9565b9050919050565b60006020820190508181036000830152612541816122dc565b9050919050565b60006020820190508181036000830152612561816122ff565b9050919050565b600060208201905061257d6000830184612322565b92915050565b60006020820190506125986000830184612331565b92915050565b60006060820190506125b36000830186612331565b6125c0602083018561214a565b6125cd6040830184612159565b949350505050565b60006040820190506125ea6000830185612331565b6125f76020830184612159565b9392505050565b6000612608612619565b905061261482826128a6565b919050565b6000604051905090565b600067ffffffffffffffff82111561263e5761263d612a36565b5b61264782612a79565b9050602081019050919050565b600081519050919050565b600081905092915050565b600082825260208201905092915050565b6000612686826127ce565b9150612691836127ce565b9250827fffffffffffffffffffffffffffffffffffffffffffffffffffffffffffffffff038211156126c6576126c561294b565b5b828201905092915050565b60006126dc826127ce565b91506126e7836127ce565b9250826126f7576126f661297a565b5b828204905092915050565b600061270d826127ce565b9150612718836127ce565b9250817fffffffffffffffffffffffffffffffffffffffffffffffffffffffffffffffff04831182151516156127515761275061294b565b5b828202905092915050565b6000612767826127ae565b9050919050565b60008115159050919050565b600081905061278882612ce5565b919050565b600081905061279b82612cf9565b919050565b600061ffff82169050919050565b600073ffffffffffffffffffffffffffffffffffffffff82169050919050565b6000819050919050565b60006127e38261280e565b9050919050565b60006127f58261277a565b9050919050565b60006128078261278d565b9050919050565b600061281982612820565b9050919050565b600061282b826127ae565b9050919050565b82818337600083830152505050565b60005b8381101561285f578082015181840152602081019050612844565b8381111561286e576000848401525b50505050565b6000600282049050600182168061288c57607f821691505b602082108114156128a05761289f6129d8565b5b50919050565b6128af82612a79565b810181811067ffffffffffffffff821117156128ce576128cd612a36565b5b80604052505050565b60006128e2826127a0565b915061ffff8214156128f7576128f661294b565b5b600182019050919050565b600061290d826127ce565b91507fffffffffffffffffffffffffffffffffffffffffffffffffffffffffffffffff8214156129405761293f61294b565b5b600182019050919050565b7f4e487b7100000000000000000000000000000000000000000000000000000000600052601160045260246000fd5b7f4e487b7100000000000000000000000000000000000000000000000000000000600052601260045260246000fd5b7f4e487b7100000000000000000000000000000000000000000000000000000000600052602160045260246000fd5b7f4e487b7100000000000000000000000000000000000000000000000000000000600052602260045260246000fd5b7f4e487b7100000000000000000000000000000000000000000000000000000000600052603260045260246000fd5b7f4e487b7100000000000000000000000000000000000000000000000000000000600052604160045260246000fd5b600080fd5b600080fd5b600080fd5b600080fd5b6000601f19601f8301169050919050565b7f436865737347616d653a20496e76616c69642042696421000000000000000000600082015250565b7f436865737347616d653a2047616d6520656e6465642100000000000000000000600082015250565b7f436865737347616d653a20596f75206861766520706c61796564206d6178696d60008201527f756d206368616e63657321000000000000000000000000000000000000000000602082015250565b7f416464726573733a20756e61626c6520746f2073656e642076616c75652c207260008201527f6563697069656e74206d61792068617665207265766572746564000000000000602082015250565b7f416464726573733a20696e73756666696369656e742062616c616e6365000000600082015250565b7f436865737347616d653a204f6e6c79204368657373466163746f72792063616e60008201527f2063616c6c20746869732066756e6374696f6e21000000000000000000000000602082015250565b7f436865737347616d653a2052657761726420686173206e6f74206265656e207360008201527f6574210000000000000000000000000000000000000000000000000000000000602082015250565b50565b7f436865737347616d653a204e6f7420796f7572207475726e2100000000000000600082015250565b7f436865737347616d653a20596f752063616e6e6f74206368616e67652073696460008201527f6573210000000000000000000000000000000000000000000000000000000000602082015250565b7f436865737347616d653a2047616d6520696e2050726f67726573732100000000600082015250565b60038110612cf657612cf56129a9565b5b50565b60038110612d0a57612d096129a9565b5b50565b612d168161276e565b8114612d2157600080fd5b50565b60038110612d3157600080fd5b50565b60038110612d4157600080fd5b50565b612d4d816127ce565b8114612d5857600080fd5b5056fea26469706673582212204956f5e2c1646e3dd11d94a57c1fad0b51e5cee30dca1596ae2445d8217598be64736f6c63430008060033726e62716b626e722f70707070707070702f382f382f382f382f50505050505050502f524e42514b424e522077204b516b71202d203020314368657373466163746f72793a204572726f722063616c63756c6174696e672077696e6e657220726577617264214368657373466163746f72793a204572726f722063616c63756c6174696e67206c6f73657220726577617264214368657373466163746f72793a204572726f722063616c63756c6174696e672077696e6e657220636f696e2072657761726421a264697066735822122059fea243e598544d03fd79b040fadab5ac70c7bb6644f653e74aa1f068d010a964736f6c63430008060033",
  "immutableReferences": {},
  "source": "//SPDX-License-Identifier: RahulPanchal-15\r\npragma solidity ^0.8.4;\r\n\r\nimport \"@openzeppelin/contracts/access/Ownable.sol\";\r\nimport \"@openzeppelin/contracts/utils/math/SafeMath.sol\";\r\nimport \"./ChessGame.sol\";\r\nimport \"@openzeppelin/contracts/token/ERC20/IERC20.sol\";\r\n\r\n///@title Factory for Chess games\r\n///@author Rahul Panchal\r\n///@notice Responsible for creating new chess game contracts and handling reward distribution\r\n///@dev Setup Chainlink for getting current UbiquitoPrice and set rewards accordingly \r\ncontract ChessFactory is Ownable {\r\n    using SafeMath for uint256;\r\n\r\n    mapping(uint256 => ChessGame) public games;\r\n    uint256 public totalGames = 0;\r\n    IERC20Burnable private UBIQUITO;\r\n    uint256 private INITIAL_GAME_SUPPLY = 200;\r\n    uint256 private WINNER_SHARE  = 35;\r\n    uint256 private LOSER_SHARE = 12;\r\n    uint256 private WINNER_COIN_SHARE = 60;\r\n    bool private isActive = false;\r\n    \r\n    constructor(\r\n        IERC20Burnable _ubiquito\r\n    ) \r\n    {\r\n        UBIQUITO = _ubiquito;\r\n        setRewardPercentage(WINNER_SHARE,LOSER_SHARE,WINNER_COIN_SHARE);\r\n    }\r\n\r\n    ///@dev Creates new chess games\r\n    ///@param _maxChances Maximum number of chances an address is allowed to play\r\n    ///@param _minBid Minimum amount for the bid to play a move\r\n    ///@param _minCoinBid Minimum amount of coins required as a bid to play a move\r\n    ///@param _tokenPrice Price of coin in terms of wei(x if, 1 coin = x wei) \r\n    function createGame(\r\n        uint16 _maxChances,\r\n        uint256 _minBid,\r\n        uint256 _minCoinBid,\r\n        uint256 _tokenPrice\r\n    )\r\n        public onlyOwner \r\n    {\r\n        require(isActive==false,\"ChessFactory: A game is still in progress!\");\r\n        totalGames++;\r\n        ChessGame game = new ChessGame(\r\n            totalGames,\r\n            _maxChances,\r\n            _minBid,\r\n            _minCoinBid,\r\n            UBIQUITO,\r\n            _tokenPrice,\r\n            owner(),\r\n            payable(address(this))\r\n        );\r\n        UBIQUITO.transfer(address(game), INITIAL_GAME_SUPPLY); // Supply ChessFactory with sufficient Ubiquito!!!\r\n        games[totalGames] = game;\r\n        isActive = true;\r\n    }\r\n\r\n    ///@notice Address of latest game that was created\r\n    ///@dev Address of latest game that was created\r\n    ///@return Address of latest game\r\n    function getLatestGame() public view returns (address) {\r\n        return address(games[totalGames]);\r\n    }\r\n\r\n    ///@dev Provide Game contracts with some coins to begin with\r\n    ///@param _supply Amount of ERC20 coins to be supplied to Game contracts\r\n    function setInitialGameSupply(uint256 _supply) external onlyOwner {\r\n        INITIAL_GAME_SUPPLY = _supply;\r\n    }\r\n\r\n    ///@dev Set percentages for distribution of loser pool\r\n    ///@param _winnerShare Percentage of ether that will be rewarded to winners\r\n    ///@param _loserShare Percentage of ether that will be used for losers\r\n    ///@param _winnerCoinShare Percentage of coins that will be rewarded to winners\r\n    function setRewardPercentage(\r\n        uint256 _winnerShare,\r\n        uint256 _loserShare,\r\n        uint256 _winnerCoinShare\r\n    ) \r\n        public onlyOwner \r\n    {\r\n        WINNER_SHARE = _winnerShare;\r\n        LOSER_SHARE = _loserShare;\r\n        WINNER_COIN_SHARE = _winnerCoinShare;\r\n    }\r\n\r\n    ///@dev Calculate and set rewards for a game\r\n    ///@param _gameID Id of the game\r\n    function setRewardFor(uint256 _gameID) public onlyOwner {\r\n        ChessGame game = games[_gameID];\r\n        require(\r\n            game.GAME_RESULT() != ChessGame.Result.NA,\r\n            \"ChessFactory: Game has not ended yet!\"\r\n        );\r\n        if (game.GAME_RESULT() == ChessGame.Result.Draw) {\r\n            game.setReward(0, 0, 0);\r\n        } else {\r\n            ChessGame.Sides winner = game.WINNER();\r\n            ChessGame.Sides loser = game.LOSER();\r\n            uint256 loserPool = game.getPool(loser);\r\n            uint256 loserCoins = game.getCoins(loser);\r\n            uint256 nWinners = game.getNumberOfPlayers(winner);\r\n            uint256 nLosers = game.getNumberOfPlayers(loser);\r\n            uint256 winner_reward = SafeMath.div(\r\n                loserPool * WINNER_SHARE,\r\n                (nWinners * 100),\r\n                \"ChessFactory: Error calculating winner reward!\"\r\n            );\r\n            uint256 winner_coin_reward = SafeMath.div(\r\n                loserCoins * WINNER_COIN_SHARE,\r\n                (nWinners * 100),\r\n                \"ChessFactory: Error calculating winner coin reward!\"\r\n            );\r\n            uint256 loser_reward = SafeMath.div(\r\n                loserPool * LOSER_SHARE,\r\n                (nLosers * 100),\r\n                \"ChessFactory: Error calculating loser reward!\"\r\n            );\r\n            game.setReward(winner_reward, loser_reward, winner_coin_reward);\r\n        }\r\n    }\r\n\r\n    ///@dev Begins process of sending rewards to winners of a game\r\n    ///@param _gameID Id of the game\r\n    function rewardWinners(uint256 _gameID) public onlyOwner {\r\n        ChessGame game = games[_gameID];\r\n        require(\r\n            game.GAME_RESULT() != ChessGame.Result.NA,\r\n            \"ChessFactory: Game has not ended yet!\"\r\n        );\r\n        game.sendRewards();\r\n        isActive = false;\r\n    }\r\n}",
  "sourcePath": "C:/Users/naresh panchal/blockC/bidding-chess/contracts/ChessFactory.sol",
  "compiler": {
    "name": "solc",
    "version": "0.8.6+commit.11564f7e.Emscripten.clang"
  },
  "schemaVersion": "3.4.1",
  "updatedAt": "2021-07-29T12:20:02.775Z",
  "devdoc": {
    "author": "Rahul Panchal",
    "details": "Setup Chainlink for getting current UbiquitoPrice and set rewards accordingly ",
    "kind": "dev",
    "methods": {
      "createGame(uint16,uint256,uint256,uint256)": {
        "details": "Creates new chess games",
        "params": {
          "_maxChances": "Maximum number of chances an address is allowed to play",
          "_minBid": "Minimum amount for the bid to play a move",
          "_minCoinBid": "Minimum amount of coins required as a bid to play a move",
          "_tokenPrice": "Price of coin in terms of wei(x if, 1 coin = x wei) "
        }
      },
      "getLatestGame()": {
        "details": "Address of latest game that was created",
        "returns": {
          "_0": "Address of latest game"
        }
      },
      "owner()": {
        "details": "Returns the address of the current owner."
      },
      "renounceOwnership()": {
        "details": "Leaves the contract without owner. It will not be possible to call `onlyOwner` functions anymore. Can only be called by the current owner. NOTE: Renouncing ownership will leave the contract without an owner, thereby removing any functionality that is only available to the owner."
      },
      "rewardWinners(uint256)": {
        "details": "Begins process of sending rewards to winners of a game",
        "params": {
          "_gameID": "Id of the game"
        }
      },
      "setInitialGameSupply(uint256)": {
        "details": "Provide Game contracts with some coins to begin with",
        "params": {
          "_supply": "Amount of ERC20 coins to be supplied to Game contracts"
        }
      },
      "setRewardFor(uint256)": {
        "details": "Calculate and set rewards for a game",
        "params": {
          "_gameID": "Id of the game"
        }
      },
      "setRewardPercentage(uint256,uint256,uint256)": {
        "details": "Set percentages for distribution of loser pool",
        "params": {
          "_loserShare": "Percentage of ether that will be used for losers",
          "_winnerCoinShare": "Percentage of coins that will be rewarded to winners",
          "_winnerShare": "Percentage of ether that will be rewarded to winners"
        }
      },
      "transferOwnership(address)": {
        "details": "Transfers ownership of the contract to a new account (`newOwner`). Can only be called by the current owner."
      }
    },
    "title": "Factory for Chess games",
    "version": 1
  },
  "userdoc": {
    "kind": "user",
    "methods": {
      "getLatestGame()": {
        "notice": "Address of latest game that was created"
      }
    },
    "notice": "Responsible for creating new chess game contracts and handling reward distribution",
    "version": 1
  }
}