{
  "contractName": "ChessGame",
  "abi": [
    {
      "inputs": [
        {
          "internalType": "uint256",
          "name": "_gameId",
          "type": "uint256"
        },
        {
          "internalType": "uint16",
          "name": "_maxChances",
          "type": "uint16"
        },
        {
          "internalType": "uint256",
          "name": "_minBid",
          "type": "uint256"
        },
        {
          "internalType": "uint256",
          "name": "_mediumBid",
          "type": "uint256"
        },
        {
          "internalType": "uint256",
          "name": "_maxBid",
          "type": "uint256"
        },
        {
          "internalType": "address payable",
          "name": "_chessFactory",
          "type": "address"
        }
      ],
      "stateMutability": "nonpayable",
      "type": "constructor"
    },
    {
      "anonymous": false,
      "inputs": [
        {
          "indexed": false,
          "internalType": "uint256",
          "name": "_gameId",
          "type": "uint256"
        },
        {
          "indexed": false,
          "internalType": "enum ChessGame.Sides",
          "name": "_winner",
          "type": "uint8"
        },
        {
          "indexed": false,
          "internalType": "uint256",
          "name": "_blackPool",
          "type": "uint256"
        },
        {
          "indexed": false,
          "internalType": "uint256",
          "name": "_whitePool",
          "type": "uint256"
        }
      ],
      "name": "GameResult",
      "type": "event"
    },
    {
      "anonymous": false,
      "inputs": [
        {
          "indexed": false,
          "internalType": "uint256",
          "name": "_gameID",
          "type": "uint256"
        },
        {
          "indexed": false,
          "internalType": "enum ChessGame.Sides",
          "name": "_side",
          "type": "uint8"
        }
      ],
      "name": "RewardedPlayers",
      "type": "event"
    },
    {
      "stateMutability": "payable",
      "type": "fallback"
    },
    {
      "inputs": [],
      "name": "CHESS_FACTORY",
      "outputs": [
        {
          "internalType": "address payable",
          "name": "",
          "type": "address"
        }
      ],
      "stateMutability": "view",
      "type": "function"
    },
    {
      "inputs": [],
      "name": "COLLECT",
      "outputs": [
        {
          "internalType": "bool",
          "name": "",
          "type": "bool"
        }
      ],
      "stateMutability": "view",
      "type": "function"
    },
    {
      "inputs": [],
      "name": "GAME_ID",
      "outputs": [
        {
          "internalType": "uint256",
          "name": "",
          "type": "uint256"
        }
      ],
      "stateMutability": "view",
      "type": "function"
    },
    {
      "inputs": [],
      "name": "GAME_RESULT",
      "outputs": [
        {
          "internalType": "enum ChessGame.Result",
          "name": "",
          "type": "uint8"
        }
      ],
      "stateMutability": "view",
      "type": "function"
    },
    {
      "inputs": [],
      "name": "MAX_BID",
      "outputs": [
        {
          "internalType": "uint256",
          "name": "",
          "type": "uint256"
        }
      ],
      "stateMutability": "view",
      "type": "function"
    },
    {
      "inputs": [],
      "name": "MAX_CHANCES",
      "outputs": [
        {
          "internalType": "uint16",
          "name": "",
          "type": "uint16"
        }
      ],
      "stateMutability": "view",
      "type": "function"
    },
    {
      "inputs": [],
      "name": "MEDIUM_BID",
      "outputs": [
        {
          "internalType": "uint256",
          "name": "",
          "type": "uint256"
        }
      ],
      "stateMutability": "view",
      "type": "function"
    },
    {
      "inputs": [],
      "name": "MIN_BID",
      "outputs": [
        {
          "internalType": "uint256",
          "name": "",
          "type": "uint256"
        }
      ],
      "stateMutability": "view",
      "type": "function"
    },
    {
      "inputs": [],
      "name": "REWARD_SET",
      "outputs": [
        {
          "internalType": "bool",
          "name": "",
          "type": "bool"
        }
      ],
      "stateMutability": "view",
      "type": "function"
    },
    {
      "inputs": [
        {
          "internalType": "enum ChessGame.Sides",
          "name": "",
          "type": "uint8"
        },
        {
          "internalType": "address",
          "name": "",
          "type": "address"
        }
      ],
      "name": "bids",
      "outputs": [
        {
          "internalType": "uint256",
          "name": "",
          "type": "uint256"
        }
      ],
      "stateMutability": "view",
      "type": "function"
    },
    {
      "inputs": [],
      "name": "loser",
      "outputs": [
        {
          "internalType": "enum ChessGame.Sides",
          "name": "",
          "type": "uint8"
        }
      ],
      "stateMutability": "view",
      "type": "function"
    },
    {
      "inputs": [
        {
          "internalType": "uint16",
          "name": "",
          "type": "uint16"
        }
      ],
      "name": "moveId",
      "outputs": [
        {
          "internalType": "bytes8",
          "name": "",
          "type": "bytes8"
        }
      ],
      "stateMutability": "view",
      "type": "function"
    },
    {
      "inputs": [
        {
          "internalType": "address",
          "name": "",
          "type": "address"
        },
        {
          "internalType": "uint256",
          "name": "",
          "type": "uint256"
        }
      ],
      "name": "moves",
      "outputs": [
        {
          "internalType": "uint16",
          "name": "",
          "type": "uint16"
        }
      ],
      "stateMutability": "view",
      "type": "function"
    },
    {
      "inputs": [
        {
          "internalType": "enum ChessGame.Sides",
          "name": "",
          "type": "uint8"
        }
      ],
      "name": "numberOfPlayers",
      "outputs": [
        {
          "internalType": "uint256",
          "name": "",
          "type": "uint256"
        }
      ],
      "stateMutability": "view",
      "type": "function"
    },
    {
      "inputs": [
        {
          "internalType": "enum ChessGame.Sides",
          "name": "",
          "type": "uint8"
        },
        {
          "internalType": "uint256",
          "name": "",
          "type": "uint256"
        }
      ],
      "name": "playersOnSide",
      "outputs": [
        {
          "internalType": "address",
          "name": "",
          "type": "address"
        }
      ],
      "stateMutability": "view",
      "type": "function"
    },
    {
      "inputs": [
        {
          "internalType": "enum ChessGame.Sides",
          "name": "",
          "type": "uint8"
        }
      ],
      "name": "pool",
      "outputs": [
        {
          "internalType": "uint256",
          "name": "",
          "type": "uint256"
        }
      ],
      "stateMutability": "view",
      "type": "function"
    },
    {
      "inputs": [
        {
          "internalType": "address",
          "name": "",
          "type": "address"
        }
      ],
      "name": "side",
      "outputs": [
        {
          "internalType": "enum ChessGame.Sides",
          "name": "",
          "type": "uint8"
        }
      ],
      "stateMutability": "view",
      "type": "function"
    },
    {
      "inputs": [],
      "name": "state",
      "outputs": [
        {
          "internalType": "enum ChessGame.State",
          "name": "",
          "type": "uint8"
        }
      ],
      "stateMutability": "view",
      "type": "function"
    },
    {
      "inputs": [],
      "name": "totalMoves",
      "outputs": [
        {
          "internalType": "uint16",
          "name": "",
          "type": "uint16"
        }
      ],
      "stateMutability": "view",
      "type": "function"
    },
    {
      "inputs": [],
      "name": "turn",
      "outputs": [
        {
          "internalType": "enum ChessGame.Sides",
          "name": "",
          "type": "uint8"
        }
      ],
      "stateMutability": "view",
      "type": "function"
    },
    {
      "inputs": [],
      "name": "winner",
      "outputs": [
        {
          "internalType": "enum ChessGame.Sides",
          "name": "",
          "type": "uint8"
        }
      ],
      "stateMutability": "view",
      "type": "function"
    },
    {
      "stateMutability": "payable",
      "type": "receive"
    },
    {
      "inputs": [],
      "name": "getNumberMoves",
      "outputs": [
        {
          "internalType": "uint16",
          "name": "",
          "type": "uint16"
        }
      ],
      "stateMutability": "view",
      "type": "function"
    },
    {
      "inputs": [
        {
          "internalType": "uint256",
          "name": "_reward",
          "type": "uint256"
        }
      ],
      "name": "setReward",
      "outputs": [],
      "stateMutability": "nonpayable",
      "type": "function"
    },
    {
      "inputs": [
        {
          "internalType": "bool",
          "name": "_escrow",
          "type": "bool"
        }
      ],
      "name": "openEscrow",
      "outputs": [],
      "stateMutability": "nonpayable",
      "type": "function"
    },
    {
      "inputs": [
        {
          "internalType": "enum ChessGame.Sides",
          "name": "_side",
          "type": "uint8"
        }
      ],
      "name": "getNumberOfPlayers",
      "outputs": [
        {
          "internalType": "uint256",
          "name": "",
          "type": "uint256"
        }
      ],
      "stateMutability": "view",
      "type": "function"
    },
    {
      "inputs": [
        {
          "internalType": "enum ChessGame.Result",
          "name": "_result",
          "type": "uint8"
        },
        {
          "internalType": "enum ChessGame.Sides",
          "name": "_side",
          "type": "uint8"
        },
        {
          "internalType": "bytes8",
          "name": "_move",
          "type": "bytes8"
        }
      ],
      "name": "performMove",
      "outputs": [],
      "stateMutability": "payable",
      "type": "function"
    },
    {
      "inputs": [
        {
          "internalType": "address payable",
          "name": "_player",
          "type": "address"
        }
      ],
      "name": "collectRewards",
      "outputs": [],
      "stateMutability": "nonpayable",
      "type": "function"
    },
    {
      "inputs": [],
      "name": "sendRewards",
      "outputs": [],
      "stateMutability": "nonpayable",
      "type": "function"
    }
  ],
  "bytecode": "0x60806040526000600660006101000a81548161ffff021916908361ffff1602179055506001600660166101000a81548160ff021916908360028111156200004b576200004a620002ed565b5b02179055506000600660176101000a81548160ff02191690836002811115620000795762000078620002ed565b5b02179055506000600660186101000a81548160ff02191690836002811115620000a757620000a6620002ed565b5b02179055506000600660196101000a81548160ff02191690836001811115620000d557620000d4620002ed565b5b021790555060006006601a6101000a81548160ff02191690836002811115620001035762000102620002ed565b5b02179055503480156200011557600080fd5b5060405162002f0138038062002f0183398181016040528101906200013b919062000205565b85600181905550846000806101000a81548161ffff021916908361ffff16021790555083600381905550826004819055508160058190555080600660026101000a81548173ffffffffffffffffffffffffffffffffffffffff021916908373ffffffffffffffffffffffffffffffffffffffff1602179055505050505050506200036f565b600081519050620001d18162000321565b92915050565b600081519050620001e8816200033b565b92915050565b600081519050620001ff8162000355565b92915050565b60008060008060008060c087890312156200022557620002246200031c565b5b60006200023589828a01620001ee565b96505060206200024889828a01620001d7565b95505060406200025b89828a01620001ee565b94505060606200026e89828a01620001ee565b93505060806200028189828a01620001ee565b92505060a06200029489828a01620001c0565b9150509295509295509295565b6000620002ae82620002c3565b9050919050565b600061ffff82169050919050565b600073ffffffffffffffffffffffffffffffffffffffff82169050919050565b6000819050919050565b7f4e487b7100000000000000000000000000000000000000000000000000000000600052602160045260246000fd5b600080fd5b6200032c81620002a1565b81146200033857600080fd5b50565b6200034681620002b5565b81146200035257600080fd5b50565b6200036081620002e3565b81146200036c57600080fd5b50565b612b82806200037f6000396000f3fe6080604052600436106101ba5760003560e01c80638b299903116100ec578063c19d93fb1161008a578063dfbf53ae11610064578063dfbf53ae14610620578063e82898b31461064b578063e977198614610676578063fdcdb06b146106b3576101c1565b8063c19d93fb146105a1578063ce69cd20146105cc578063d9ec4752146105f7576101c1565b8063aa4bc48d116100c6578063aa4bc48d146104e3578063ae29610214610520578063aff814cf1461054b578063b3296a1314610576576101c1565b80638b2999031461046457806395cb1b1e1461048f578063a5334766146104a6576101c1565b80633ee5d95e116101595780635200eebe116101335780635200eebe146103c95780635763dbd0146103e55780636bb34c511461040e57806371ddaf0114610439576101c1565b80633ee5d95e146103365780634d91e1f7146103735780634f71aff41461039e576101c1565b80631d1e820a116101955780631d1e820a14610268578063201c0b2914610293578063293be456146102d05780633da140a1146102f9576101c1565b8062b33a7a146101c3578063024a6a41146102005780630ab9581f1461023d576101c1565b366101c157005b005b3480156101cf57600080fd5b506101ea60048036038101906101e59190611ee8565b6106de565b6040516101f79190612219565b60405180910390f35b34801561020c57600080fd5b5061022760048036038101906102229190611d7b565b6106fe565b6040516102349190612425565b60405180910390f35b34801561024957600080fd5b50610252610745565b60405161025f91906121fe565b60405180910390f35b34801561027457600080fd5b5061027d610758565b60405161028a91906121fe565b60405180910390f35b34801561029f57600080fd5b506102ba60048036038101906102b59190611d21565b61076b565b6040516102c7919061224f565b60405180910390f35b3480156102dc57600080fd5b506102f760048036038101906102f29190611f15565b61078b565b005b34801561030557600080fd5b50610320600480360381019061031b9190611e3b565b610840565b60405161032d9190612440565b60405180910390f35b34801561034257600080fd5b5061035d60048036038101906103589190611e68565b610858565b60405161036a9190612440565b60405180910390f35b34801561037f57600080fd5b5061038861087d565b6040516103959190612440565b60405180910390f35b3480156103aa57600080fd5b506103b3610883565b6040516103c09190612425565b60405180910390f35b6103e360048036038101906103de9190611de8565b610895565b005b3480156103f157600080fd5b5061040c60048036038101906104079190611d4e565b61107b565b005b34801561041a57600080fd5b506104236113a3565b6040516104309190612425565b60405180910390f35b34801561044557600080fd5b5061044e6113b7565b60405161045b9190612425565b60405180910390f35b34801561047057600080fd5b50610479611401565b604051610486919061224f565b60405180910390f35b34801561049b57600080fd5b506104a4611414565b005b3480156104b257600080fd5b506104cd60048036038101906104c89190611ea8565b6116d6565b6040516104da91906121c8565b60405180910390f35b3480156104ef57600080fd5b5061050a60048036038101906105059190611e3b565b611724565b6040516105179190612440565b60405180910390f35b34801561052c57600080fd5b5061053561173c565b6040516105429190612440565b60405180910390f35b34801561055757600080fd5b50610560611742565b60405161056d9190612234565b60405180910390f35b34801561058257600080fd5b5061058b611755565b60405161059891906121e3565b60405180910390f35b3480156105ad57600080fd5b506105b661177b565b6040516105c3919061226a565b60405180910390f35b3480156105d857600080fd5b506105e161178e565b6040516105ee9190612440565b60405180910390f35b34801561060357600080fd5b5061061e60048036038101906106199190611dbb565b611794565b005b34801561062c57600080fd5b50610635611841565b604051610642919061224f565b60405180910390f35b34801561065757600080fd5b50610660611854565b60405161066d919061224f565b60405180910390f35b34801561068257600080fd5b5061069d60048036038101906106989190611e3b565b611867565b6040516106aa9190612440565b60405180910390f35b3480156106bf57600080fd5b506106c861191d565b6040516106d59190612440565b60405180910390f35b60096020528060005260406000206000915054906101000a900460c01b81565b6008602052816000526040600020818154811061071a57600080fd5b9060005260206000209060109182820401919006600202915091509054906101000a900461ffff1681565b600060029054906101000a900460ff1681565b600060039054906101000a900460ff1681565b60076020528060005260406000206000915054906101000a900460ff1681565b600660029054906101000a900473ffffffffffffffffffffffffffffffffffffffff1673ffffffffffffffffffffffffffffffffffffffff163373ffffffffffffffffffffffffffffffffffffffff161461081b576040517f08c379a000000000000000000000000000000000000000000000000000000000815260040161081290612345565b60405180910390fd5b6001600060036101000a81548160ff0219169083151502179055508060028190555050565b600a6020528060005260406000206000915090505481565b600d602052816000526040600020602052806000526040600020600091509150505481565b60055481565b60008054906101000a900461ffff1681565b600060018111156108a9576108a86126e1565b5b600660199054906101000a900460ff1660018111156108cb576108ca6126e1565b5b1461090b576040517f08c379a0000000000000000000000000000000000000000000000000000000008152600401610902906122a5565b60405180910390fd5b60035434148061091c575060045434145b80610928575060055434145b610967576040517f08c379a000000000000000000000000000000000000000000000000000000000815260040161095e90612285565b60405180910390fd5b816000600860003373ffffffffffffffffffffffffffffffffffffffff1673ffffffffffffffffffffffffffffffffffffffff168152602001908152602001600020805490501115610a6a578060028111156109c6576109c56126e1565b5b600760003373ffffffffffffffffffffffffffffffffffffffff1673ffffffffffffffffffffffffffffffffffffffff16815260200190815260200160002060009054906101000a900460ff166002811115610a2557610a246126e1565b5b14610a65576040517f08c379a0000000000000000000000000000000000000000000000000000000008152600401610a5c906123e5565b60405180910390fd5b610bb7565b80600760003373ffffffffffffffffffffffffffffffffffffffff1673ffffffffffffffffffffffffffffffffffffffff16815260200190815260200160002060006101000a81548160ff02191690836002811115610acc57610acb6126e1565b5b0217905550600b6000826002811115610ae857610ae76126e1565b5b6002811115610afa57610af96126e1565b5b8152602001908152602001600020339080600181540180825580915050600190039060005260206000200160009091909190916101000a81548173ffffffffffffffffffffffffffffffffffffffff021916908373ffffffffffffffffffffffffffffffffffffffff160217905550600c6000826002811115610b8057610b7f6126e1565b5b6002811115610b9257610b916126e1565b5b81526020019081526020016000206000815480929190610bb190612669565b91905055505b82600660169054906101000a900460ff166002811115610bda57610bd96126e1565b5b816002811115610bed57610bec6126e1565b5b14610c2d576040517f08c379a0000000000000000000000000000000000000000000000000000000008152600401610c24906123c5565b60405180910390fd5b60008054906101000a900461ffff1661ffff16610c486113b7565b61ffff1610610c8c576040517f08c379a0000000000000000000000000000000000000000000000000000000008152600401610c83906122c5565b60405180910390fd5b6006600081819054906101000a900461ffff1680929190610cac9061263e565b91906101000a81548161ffff021916908361ffff1602179055505034600d6000866002811115610cdf57610cde6126e1565b5b6002811115610cf157610cf06126e1565b5b815260200190815260200160002060003373ffffffffffffffffffffffffffffffffffffffff1673ffffffffffffffffffffffffffffffffffffffff1681526020019081526020016000206000828254610d4b91906124e5565b9250508190555034600a6000866002811115610d6a57610d696126e1565b5b6002811115610d7c57610d7b6126e1565b5b81526020019081526020016000206000828254610d9991906124e5565b925050819055508260096000600660009054906101000a900461ffff1661ffff1661ffff16815260200190815260200160002060006101000a81548167ffffffffffffffff021916908360c01c0217905550600860003373ffffffffffffffffffffffffffffffffffffffff1673ffffffffffffffffffffffffffffffffffffffff168152602001908152602001600020600660009054906101000a900461ffff1690806001815401808255809150506001900390600052602060002090601091828204019190066002029091909190916101000a81548161ffff021916908361ffff16021790555060006002811115610e9657610e956126e1565b5b856002811115610ea957610ea86126e1565b5b1415610ee657610eb884611923565b600660166101000a81548160ff02191690836002811115610edc57610edb6126e1565b5b0217905550611074565b846006601a6101000a81548160ff02191690836002811115610f0b57610f0a6126e1565b5b02179055506001600660196101000a81548160ff02191690836001811115610f3657610f356126e1565b5b021790555060016002811115610f4f57610f4e6126e1565b5b856002811115610f6257610f616126e1565b5b1415610fc55783600660176101000a81548160ff02191690836002811115610f8d57610f8c6126e1565b5b0217905550610f9b84611923565b600660186101000a81548160ff02191690836002811115610fbf57610fbe6126e1565b5b02179055505b7fce35a41dee90120f02660313906304c1ed2b5ad97be56befe172e53e6c837a7560015485600a6000600280811115611001576110006126e1565b5b6002811115611013576110126126e1565b5b815260200190815260200160002054600a60006001600281111561103a576110396126e1565b5b600281111561104c5761104b6126e1565b5b81526020019081526020016000205460405161106b9493929190612484565b60405180910390a15b5050505050565b60011515600060029054906101000a900460ff161515146110d1576040517f08c379a00000000000000000000000000000000000000000000000000000000081526004016110c8906123a5565b60405180910390fd5b6002808111156110e4576110e36126e1565b5b600760003373ffffffffffffffffffffffffffffffffffffffff1673ffffffffffffffffffffffffffffffffffffffff16815260200190815260200160002060009054906101000a900460ff166002811115611143576111426126e1565b5b14806111bf57506001600281111561115e5761115d6126e1565b5b600760003373ffffffffffffffffffffffffffffffffffffffff1673ffffffffffffffffffffffffffffffffffffffff16815260200190815260200160002060009054906101000a900460ff1660028111156111bd576111bc6126e1565b5b145b6111fe576040517f08c379a00000000000000000000000000000000000000000000000000000000081526004016111f590612385565b60405180910390fd5b6000600760008373ffffffffffffffffffffffffffffffffffffffff1673ffffffffffffffffffffffffffffffffffffffff16815260200190815260200160002060009054906101000a900460ff169050600660179054906101000a900460ff166002811115611271576112706126e1565b5b816002811115611284576112836126e1565b5b14806112c2575060028081111561129e5761129d6126e1565b5b6006601a9054906101000a900460ff1660028111156112c0576112bf6126e1565b5b145b611301576040517f08c379a00000000000000000000000000000000000000000000000000000000081526004016112f890612325565b60405180910390fd5b6000600d600083600281111561131a576113196126e1565b5b600281111561132c5761132b6126e1565b5b815260200190815260200160002060008473ffffffffffffffffffffffffffffffffffffffff1673ffffffffffffffffffffffffffffffffffffffff16815260200190815260200160002054905060006113918260025461196490919063ffffffff16565b905061139d848261197a565b50505050565b600660009054906101000a900461ffff1681565b6000600860003373ffffffffffffffffffffffffffffffffffffffff1673ffffffffffffffffffffffffffffffffffffffff16815260200190815260200160002080549050905090565b600660169054906101000a900460ff1681565b600180811115611427576114266126e1565b5b600660199054906101000a900460ff166001811115611449576114486126e1565b5b14611489576040517f08c379a000000000000000000000000000000000000000000000000000000000815260040161148090612405565b60405180910390fd5b600660029054906101000a900473ffffffffffffffffffffffffffffffffffffffff1673ffffffffffffffffffffffffffffffffffffffff163373ffffffffffffffffffffffffffffffffffffffff1614611519576040517f08c379a000000000000000000000000000000000000000000000000000000000815260040161151090612345565b60405180910390fd5b600060039054906101000a900460ff16611568576040517f08c379a000000000000000000000000000000000000000000000000000000000815260040161155f90612365565b60405180910390fd5b60028081111561157b5761157a6126e1565b5b6006601a9054906101000a900460ff16600281111561159d5761159c6126e1565b5b1415611634576115ad6002611a6e565b7fa063b25e86b685025877e8288a7c25aaa1111ff0242b4fd0fa8c78c7dcd5cd9760015460026040516115e192919061245b565b60405180910390a16115f36001611a6e565b7fa063b25e86b685025877e8288a7c25aaa1111ff0242b4fd0fa8c78c7dcd5cd97600154600260405161162792919061245b565b60405180910390a16116d4565b60016002811115611648576116476126e1565b5b6006601a9054906101000a900460ff16600281111561166a576116696126e1565b5b14156116d357611688600660179054906101000a900460ff16611a6e565b7fa063b25e86b685025877e8288a7c25aaa1111ff0242b4fd0fa8c78c7dcd5cd97600154600660179054906101000a900460ff166040516116ca92919061245b565b60405180910390a15b5b565b600b60205281600052604060002081815481106116f257600080fd5b906000526020600020016000915091509054906101000a900473ffffffffffffffffffffffffffffffffffffffff1681565b600c6020528060005260406000206000915090505481565b60045481565b6006601a9054906101000a900460ff1681565b600660029054906101000a900473ffffffffffffffffffffffffffffffffffffffff1681565b600660199054906101000a900460ff1681565b60035481565b600660029054906101000a900473ffffffffffffffffffffffffffffffffffffffff1673ffffffffffffffffffffffffffffffffffffffff163373ffffffffffffffffffffffffffffffffffffffff1614611824576040517f08c379a000000000000000000000000000000000000000000000000000000000815260040161181b90612345565b60405180910390fd5b80600060026101000a81548160ff02191690831515021790555050565b600660179054906101000a900460ff1681565b600660189054906101000a900460ff1681565b600060018081111561187c5761187b6126e1565b5b600660199054906101000a900460ff16600181111561189e5761189d6126e1565b5b146118de576040517f08c379a00000000000000000000000000000000000000000000000000000000081526004016118d590612405565b60405180910390fd5b600c60008360028111156118f5576118f46126e1565b5b6002811115611907576119066126e1565b5b8152602001908152602001600020549050919050565b60015481565b6000600280811115611938576119376126e1565b5b82600281111561194b5761194a6126e1565b5b141561195a576001905061195f565b600290505b919050565b6000818361197291906124e5565b905092915050565b804710156119bd576040517f08c379a00000000000000000000000000000000000000000000000000000000081526004016119b490612305565b60405180910390fd5b60008273ffffffffffffffffffffffffffffffffffffffff16826040516119e3906121b3565b60006040518083038185875af1925050503d8060008114611a20576040519150601f19603f3d011682016040523d82523d6000602084013e611a25565b606091505b5050905080611a69576040517f08c379a0000000000000000000000000000000000000000000000000000000008152600401611a60906122e5565b60405180910390fd5b505050565b600180811115611a8157611a806126e1565b5b600660199054906101000a900460ff166001811115611aa357611aa26126e1565b5b14611ae3576040517f08c379a0000000000000000000000000000000000000000000000000000000008152600401611ada90612405565b60405180910390fd5b600060039054906101000a900460ff16611b32576040517f08c379a0000000000000000000000000000000000000000000000000000000008152600401611b2990612365565b60405180910390fd5b6000611b3d82611867565b905060005b81811015611c74576000600b6000856002811115611b6357611b626126e1565b5b6002811115611b7557611b746126e1565b5b81526020019081526020016000208281548110611b9557611b94612710565b5b9060005260206000200160009054906101000a900473ffffffffffffffffffffffffffffffffffffffff1690506000600d6000866002811115611bdb57611bda6126e1565b5b6002811115611bed57611bec6126e1565b5b815260200190815260200160002060008373ffffffffffffffffffffffffffffffffffffffff1673ffffffffffffffffffffffffffffffffffffffff1681526020019081526020016000205490506000611c528260025461196490919063ffffffff16565b9050611c5e838261197a565b5050508080611c6c90612669565b915050611b42565b505050565b600081359050611c8881612aa2565b92915050565b600081359050611c9d81612ab9565b92915050565b600081359050611cb281612ad0565b92915050565b600081359050611cc781612ae7565b92915050565b600081359050611cdc81612afe565b92915050565b600081359050611cf181612b0e565b92915050565b600081359050611d0681612b1e565b92915050565b600081359050611d1b81612b35565b92915050565b600060208284031215611d3757611d3661273f565b5b6000611d4584828501611c79565b91505092915050565b600060208284031215611d6457611d6361273f565b5b6000611d7284828501611c8e565b91505092915050565b60008060408385031215611d9257611d9161273f565b5b6000611da085828601611c79565b9250506020611db185828601611d0c565b9150509250929050565b600060208284031215611dd157611dd061273f565b5b6000611ddf84828501611ca3565b91505092915050565b600080600060608486031215611e0157611e0061273f565b5b6000611e0f86828701611ccd565b9350506020611e2086828701611ce2565b9250506040611e3186828701611cb8565b9150509250925092565b600060208284031215611e5157611e5061273f565b5b6000611e5f84828501611ce2565b91505092915050565b60008060408385031215611e7f57611e7e61273f565b5b6000611e8d85828601611ce2565b9250506020611e9e85828601611c79565b9150509250929050565b60008060408385031215611ebf57611ebe61273f565b5b6000611ecd85828601611ce2565b9250506020611ede85828601611d0c565b9150509250929050565b600060208284031215611efe57611efd61273f565b5b6000611f0c84828501611cf7565b91505092915050565b600060208284031215611f2b57611f2a61273f565b5b6000611f3984828501611d0c565b91505092915050565b611f4b8161254d565b82525050565b611f5a8161253b565b82525050565b611f698161255f565b82525050565b611f788161256b565b82525050565b611f8781612608565b82525050565b611f968161261a565b82525050565b611fa58161262c565b82525050565b6000611fb86017836124d4565b9150611fc382612744565b602082019050919050565b6000611fdb6016836124d4565b9150611fe68261276d565b602082019050919050565b6000611ffe602b836124d4565b915061200982612796565b604082019050919050565b6000612021603a836124d4565b915061202c826127e5565b604082019050919050565b6000612044601d836124d4565b915061204f82612834565b602082019050919050565b6000612067601b836124d4565b91506120728261285d565b602082019050919050565b600061208a6034836124d4565b915061209582612886565b604082019050919050565b60006120ad6023836124d4565b91506120b8826128d5565b604082019050919050565b60006120d06029836124d4565b91506120db82612924565b604082019050919050565b60006120f36000836124c9565b91506120fe82612973565b600082019050919050565b60006121166032836124d4565b915061212182612976565b604082019050919050565b60006121396019836124d4565b9150612144826129c5565b602082019050919050565b600061215c6023836124d4565b9150612167826129ee565b604082019050919050565b600061217f601c836124d4565b915061218a82612a3d565b602082019050919050565b61219e816125d0565b82525050565b6121ad816125fe565b82525050565b60006121be826120e6565b9150819050919050565b60006020820190506121dd6000830184611f51565b92915050565b60006020820190506121f86000830184611f42565b92915050565b60006020820190506122136000830184611f60565b92915050565b600060208201905061222e6000830184611f6f565b92915050565b60006020820190506122496000830184611f7e565b92915050565b60006020820190506122646000830184611f8d565b92915050565b600060208201905061227f6000830184611f9c565b92915050565b6000602082019050818103600083015261229e81611fab565b9050919050565b600060208201905081810360008301526122be81611fce565b9050919050565b600060208201905081810360008301526122de81611ff1565b9050919050565b600060208201905081810360008301526122fe81612014565b9050919050565b6000602082019050818103600083015261231e81612037565b9050919050565b6000602082019050818103600083015261233e8161205a565b9050919050565b6000602082019050818103600083015261235e8161207d565b9050919050565b6000602082019050818103600083015261237e816120a0565b9050919050565b6000602082019050818103600083015261239e816120c3565b9050919050565b600060208201905081810360008301526123be81612109565b9050919050565b600060208201905081810360008301526123de8161212c565b9050919050565b600060208201905081810360008301526123fe8161214f565b9050919050565b6000602082019050818103600083015261241e81612172565b9050919050565b600060208201905061243a6000830184612195565b92915050565b600060208201905061245560008301846121a4565b92915050565b600060408201905061247060008301856121a4565b61247d6020830184611f8d565b9392505050565b600060808201905061249960008301876121a4565b6124a66020830186611f8d565b6124b360408301856121a4565b6124c060608301846121a4565b95945050505050565b600081905092915050565b600082825260208201905092915050565b60006124f0826125fe565b91506124fb836125fe565b9250827fffffffffffffffffffffffffffffffffffffffffffffffffffffffffffffffff038211156125305761252f6126b2565b5b828201905092915050565b6000612546826125de565b9050919050565b6000612558826125de565b9050919050565b60008115159050919050565b60007fffffffffffffffff00000000000000000000000000000000000000000000000082169050919050565b60008190506125a582612a66565b919050565b60008190506125b882612a7a565b919050565b60008190506125cb82612a8e565b919050565b600061ffff82169050919050565b600073ffffffffffffffffffffffffffffffffffffffff82169050919050565b6000819050919050565b600061261382612597565b9050919050565b6000612625826125aa565b9050919050565b6000612637826125bd565b9050919050565b6000612649826125d0565b915061ffff82141561265e5761265d6126b2565b5b600182019050919050565b6000612674826125fe565b91507fffffffffffffffffffffffffffffffffffffffffffffffffffffffffffffffff8214156126a7576126a66126b2565b5b600182019050919050565b7f4e487b7100000000000000000000000000000000000000000000000000000000600052601160045260246000fd5b7f4e487b7100000000000000000000000000000000000000000000000000000000600052602160045260246000fd5b7f4e487b7100000000000000000000000000000000000000000000000000000000600052603260045260246000fd5b600080fd5b7f436865737347616d653a20496e76616c69642042696421000000000000000000600082015250565b7f436865737347616d653a2047616d6520656e6465642100000000000000000000600082015250565b7f436865737347616d653a20596f75206861766520706c61796564206d6178696d60008201527f756d206368616e63657321000000000000000000000000000000000000000000602082015250565b7f416464726573733a20756e61626c6520746f2073656e642076616c75652c207260008201527f6563697069656e74206d61792068617665207265766572746564000000000000602082015250565b7f416464726573733a20696e73756666696369656e742062616c616e6365000000600082015250565b7f436865737347616d653a20596f7520646964206e6f742077696e210000000000600082015250565b7f436865737347616d653a204f6e6c79204368657373466163746f72792063616e60008201527f2063616c6c20746869732066756e6374696f6e21000000000000000000000000602082015250565b7f436865737347616d653a2052657761726420686173206e6f74206265656e207360008201527f6574210000000000000000000000000000000000000000000000000000000000602082015250565b7f436865737347616d653a20596f752068617665206e6f7420706c61796564207460008201527f6869732047616d65210000000000000000000000000000000000000000000000602082015250565b50565b7f436865737347616d653a2047616d6520696e2070726f67726573732e2057616960008201527f7420666f722067616d6520746f20656e64210000000000000000000000000000602082015250565b7f436865737347616d653a204e6f7420796f7572207475726e2100000000000000600082015250565b7f436865737347616d653a20596f752063616e6e6f74206368616e67652073696460008201527f6573210000000000000000000000000000000000000000000000000000000000602082015250565b7f436865737347616d653a2047616d6520696e2050726f67726573732100000000600082015250565b60038110612a7757612a766126e1565b5b50565b60038110612a8b57612a8a6126e1565b5b50565b60028110612a9f57612a9e6126e1565b5b50565b612aab8161253b565b8114612ab657600080fd5b50565b612ac28161254d565b8114612acd57600080fd5b50565b612ad98161255f565b8114612ae457600080fd5b50565b612af08161256b565b8114612afb57600080fd5b50565b60038110612b0b57600080fd5b50565b60038110612b1b57600080fd5b50565b612b27816125d0565b8114612b3257600080fd5b50565b612b3e816125fe565b8114612b4957600080fd5b5056fea264697066735822122011c51d2991dad16319182f7dff4cbf2ef21b8605e54f308e6a3f4af24b5dd31164736f6c63430008060033",
  "immutableReferences": {},
  "source": "//SPDX-License-Identifier: RahulPanchal-15\r\npragma solidity ^0.8.4;\r\n\r\nimport \"@openzeppelin/contracts/utils/Address.sol\";\r\nimport \"@openzeppelin/contracts/utils/math/SafeMath.sol\";\r\n\r\ncontract ChessGame {\r\n    using SafeMath for uint256;\r\n    using Address for address payable;\r\n\r\n    event GameResult(\r\n        uint256 _gameId,\r\n        Sides _winner,\r\n        uint256 _blackPool,\r\n        uint256 _whitePool\r\n    );\r\n\r\n    event RewardedPlayers(uint256 _gameID, Sides _side);\r\n\r\n    enum Result {\r\n        NA,\r\n        WinLoss,\r\n        Draw\r\n    }\r\n\r\n    enum State {\r\n        InProgress,\r\n        Ended\r\n    }\r\n\r\n    enum Sides {\r\n        None,\r\n        White,\r\n        Black\r\n    }\r\n\r\n    uint16 public MAX_CHANCES;\r\n    bool public COLLECT;\r\n    bool public REWARD_SET;\r\n    uint256 public GAME_ID;\r\n    uint256 private REWARD;\r\n    uint256 public MIN_BID;\r\n    uint256 public MEDIUM_BID;\r\n    uint256 public MAX_BID;\r\n    uint16 public totalMoves = 0;\r\n    address payable public CHESS_FACTORY;\r\n    Sides public turn = Sides.White;\r\n    Sides public winner = Sides.None;\r\n    Sides public loser = Sides.None;\r\n    State public state = State.InProgress;\r\n    Result public GAME_RESULT = Result.NA;\r\n    mapping(address => Sides) public side;\r\n    mapping(address => uint16[]) public moves;\r\n    mapping(uint16 => bytes8) public moveId;\r\n    mapping(Sides => uint256) public pool;\r\n    mapping(Sides => address[]) public playersOnSide;\r\n    mapping(Sides => uint256) public numberOfPlayers;\r\n    mapping(Sides => mapping(address => uint256)) public bids;\r\n\r\n    receive() external payable {}\r\n\r\n    fallback() external payable {}\r\n\r\n    constructor(\r\n        uint256 _gameId,\r\n        uint16 _maxChances,\r\n        uint256 _minBid,\r\n        uint256 _mediumBid,\r\n        uint256 _maxBid,\r\n        address payable _chessFactory\r\n    ) {\r\n        GAME_ID = _gameId;\r\n        MAX_CHANCES = _maxChances;\r\n        MIN_BID = _minBid;\r\n        MEDIUM_BID = _mediumBid;\r\n        MAX_BID = _maxBid;\r\n        CHESS_FACTORY = _chessFactory;\r\n    }\r\n\r\n    modifier isTrueSide(Sides _side) {\r\n        if (moves[msg.sender].length > 0) {\r\n            require(\r\n                side[msg.sender] == _side,\r\n                \"ChessGame: You cannot change sides!\"\r\n            );\r\n        } else {\r\n            side[msg.sender] = _side;\r\n            playersOnSide[_side].push(msg.sender);\r\n            numberOfPlayers[_side]++;\r\n        }\r\n        _;\r\n    }\r\n\r\n    modifier validBid() {\r\n        require(\r\n            msg.value == MIN_BID ||\r\n                msg.value == MEDIUM_BID ||\r\n                msg.value == MAX_BID,\r\n            \"ChessGame: Invalid Bid!\"\r\n        );\r\n        _;\r\n    }\r\n\r\n    modifier onlyFactory() {\r\n        require(\r\n            msg.sender == CHESS_FACTORY,\r\n            \"ChessGame: Only ChessFactory can call this function!\"\r\n        );\r\n        _;\r\n    }\r\n\r\n    function getNumberMoves() public view returns (uint16) {\r\n        return uint16(moves[msg.sender].length);\r\n    }\r\n\r\n    function setReward(uint256 _reward) external onlyFactory {\r\n        REWARD_SET = true;\r\n        REWARD = _reward;\r\n    }\r\n\r\n    function openEscrow(bool _escrow) external onlyFactory {\r\n        COLLECT = _escrow;\r\n    }\r\n\r\n    modifier hasChancesLeft() {\r\n        require(\r\n            getNumberMoves() < MAX_CHANCES,\r\n            \"ChessGame: You have played maximum chances!\"\r\n        );\r\n        _;\r\n    }\r\n\r\n    modifier isTrueTurn(Sides _side) {\r\n        require(_side == turn, \"ChessGame: Not your turn!\");\r\n        _;\r\n    }\r\n\r\n    modifier rewardIsSet() {\r\n        require(REWARD_SET, \"ChessGame: Reward has not been set!\");\r\n        _;\r\n    }\r\n\r\n    modifier inProgress() {\r\n        require(state == State.InProgress, \"ChessGame: Game ended!\");\r\n        _;\r\n    }\r\n\r\n    modifier isEnded() {\r\n        require(state == State.Ended, \"ChessGame: Game in Progress!\");\r\n        _;\r\n    }\r\n\r\n    modifier isTrueAccount(address payable _payee) {\r\n        require(\r\n            _payee == msg.sender,\r\n            \"ChessGame: Use account used in game to Withdraw rewards!\"\r\n        );\r\n        _;\r\n    }\r\n\r\n    modifier hasPlayedThisGame() {\r\n        require(\r\n            side[msg.sender] == Sides.Black || side[msg.sender] == Sides.White,\r\n            \"ChessGame: You have not played this Game!\"\r\n        );\r\n        _;\r\n    }\r\n\r\n    modifier escrowIsOpen() {\r\n        require(\r\n            COLLECT == true,\r\n            \"ChessGame: Game in progress. Wait for game to end!\"\r\n        );\r\n        _;\r\n    }\r\n\r\n    function switchTeam(Sides _side) internal pure returns (Sides) {\r\n        if (_side == Sides.Black) {\r\n            return Sides.White;\r\n        } else {\r\n            return Sides.Black;\r\n        }\r\n    }\r\n\r\n    function getNumberOfPlayers(Sides _side)\r\n        public\r\n        view\r\n        isEnded\r\n        returns (uint256)\r\n    {\r\n        return numberOfPlayers[_side];\r\n    }\r\n\r\n    function performMove(\r\n        Result _result,\r\n        Sides _side,\r\n        bytes8 _move\r\n    )\r\n        public\r\n        payable\r\n        inProgress()\r\n        validBid()\r\n        isTrueSide(_side)\r\n        isTrueTurn(_side)\r\n        hasChancesLeft()\r\n    {\r\n        totalMoves++;\r\n        bids[_side][msg.sender] += msg.value;\r\n        pool[_side] += msg.value;\r\n        moveId[totalMoves] = _move;\r\n        moves[msg.sender].push(totalMoves);\r\n        if (_result == Result.NA) {\r\n            turn = switchTeam(_side);\r\n        } else {\r\n            GAME_RESULT = _result;\r\n            state = State.Ended;\r\n            if (_result == Result.WinLoss) {\r\n                winner = _side;\r\n                loser = switchTeam(_side);\r\n            }\r\n            emit GameResult(\r\n                GAME_ID,\r\n                _side,\r\n                pool[Sides.Black],\r\n                pool[Sides.White]\r\n            );\r\n        }\r\n    }\r\n\r\n    function collectRewards(address payable _player)\r\n        public\r\n        escrowIsOpen\r\n        hasPlayedThisGame()\r\n    {\r\n        Sides _playerSide = side[_player];\r\n        require(\r\n            _playerSide == winner || GAME_RESULT == Result.Draw,\r\n            \"ChessGame: You did not win!\"\r\n        );\r\n        uint256 _playerBid = bids[_playerSide][_player];\r\n        uint256 _amount = REWARD.add(_playerBid);\r\n        Address.sendValue(_player, _amount);\r\n    }\r\n\r\n    function rewardPlayersOfSide(Sides _side) internal isEnded rewardIsSet {\r\n        uint256 recipients = getNumberOfPlayers(_side);\r\n        for (uint256 i = 0; i < recipients; i++) {\r\n            address payable recipient = payable(playersOnSide[_side][i]);\r\n            uint256 _playerBid = bids[_side][recipient];\r\n            uint256 amount = REWARD.add(_playerBid);\r\n            Address.sendValue(recipient, amount);\r\n        }\r\n    }\r\n\r\n    function sendRewards() external isEnded onlyFactory rewardIsSet {\r\n        if (GAME_RESULT == Result.Draw) {\r\n            rewardPlayersOfSide(Sides.Black);\r\n            emit RewardedPlayers(GAME_ID, Sides.Black);\r\n            rewardPlayersOfSide(Sides.White);\r\n            emit RewardedPlayers(GAME_ID, Sides.Black);\r\n        } else if (GAME_RESULT == Result.WinLoss) {\r\n            rewardPlayersOfSide(winner);\r\n            emit RewardedPlayers(GAME_ID, winner);\r\n        }\r\n    }\r\n}\r\n",
  "sourcePath": "C:\\Users\\naresh panchal\\blockC\\bidding-chess\\contracts\\ChessGame.sol",
  "compiler": {
    "name": "solc",
    "version": "0.8.6+commit.11564f7e.Emscripten.clang"
  },
  "schemaVersion": "3.4.1",
  "updatedAt": "2021-07-12T17:55:31.020Z",
  "devdoc": {
    "kind": "dev",
    "methods": {},
    "version": 1
  },
  "userdoc": {
    "kind": "user",
    "methods": {},
    "version": 1
  }
}