{
  "contractName": "ChessFactory",
  "abi": [
    {
      "inputs": [
        {
          "internalType": "contract IERC20Burnable",
          "name": "_ubiquito",
          "type": "address"
        }
      ],
      "stateMutability": "payable",
      "type": "constructor",
      "payable": true
    },
    {
      "anonymous": false,
      "inputs": [
        {
          "indexed": true,
          "internalType": "address",
          "name": "previousOwner",
          "type": "address"
        },
        {
          "indexed": true,
          "internalType": "address",
          "name": "newOwner",
          "type": "address"
        }
      ],
      "name": "OwnershipTransferred",
      "type": "event"
    },
    {
      "inputs": [
        {
          "internalType": "uint32",
          "name": "",
          "type": "uint32"
        }
      ],
      "name": "games",
      "outputs": [
        {
          "internalType": "contract ChessGame",
          "name": "",
          "type": "address"
        }
      ],
      "stateMutability": "view",
      "type": "function",
      "constant": true
    },
    {
      "inputs": [],
      "name": "isActive",
      "outputs": [
        {
          "internalType": "bool",
          "name": "",
          "type": "bool"
        }
      ],
      "stateMutability": "view",
      "type": "function",
      "constant": true
    },
    {
      "inputs": [],
      "name": "owner",
      "outputs": [
        {
          "internalType": "address",
          "name": "",
          "type": "address"
        }
      ],
      "stateMutability": "view",
      "type": "function",
      "constant": true
    },
    {
      "inputs": [],
      "name": "renounceOwnership",
      "outputs": [],
      "stateMutability": "nonpayable",
      "type": "function"
    },
    {
      "inputs": [],
      "name": "totalGames",
      "outputs": [
        {
          "internalType": "uint32",
          "name": "",
          "type": "uint32"
        }
      ],
      "stateMutability": "view",
      "type": "function",
      "constant": true
    },
    {
      "inputs": [
        {
          "internalType": "address",
          "name": "newOwner",
          "type": "address"
        }
      ],
      "name": "transferOwnership",
      "outputs": [],
      "stateMutability": "nonpayable",
      "type": "function"
    },
    {
      "inputs": [
        {
          "internalType": "uint256",
          "name": "_gasPrice",
          "type": "uint256"
        }
      ],
      "name": "createGame",
      "outputs": [],
      "stateMutability": "nonpayable",
      "type": "function"
    },
    {
      "inputs": [],
      "name": "getLatestGame",
      "outputs": [
        {
          "internalType": "address",
          "name": "",
          "type": "address"
        }
      ],
      "stateMutability": "view",
      "type": "function",
      "constant": true
    },
    {
      "inputs": [
        {
          "internalType": "uint256",
          "name": "_supply",
          "type": "uint256"
        }
      ],
      "name": "setInitialGameSupply",
      "outputs": [],
      "stateMutability": "nonpayable",
      "type": "function"
    },
    {
      "inputs": [
        {
          "internalType": "uint16",
          "name": "_maxChances",
          "type": "uint16"
        },
        {
          "internalType": "uint256",
          "name": "_minBid",
          "type": "uint256"
        },
        {
          "internalType": "uint256",
          "name": "_minCoinBid",
          "type": "uint256"
        },
        {
          "internalType": "uint256",
          "name": "_tokenPrice",
          "type": "uint256"
        },
        {
          "internalType": "uint256",
          "name": "_gasPrice",
          "type": "uint256"
        }
      ],
      "name": "setGameDefaults",
      "outputs": [],
      "stateMutability": "nonpayable",
      "type": "function"
    },
    {
      "inputs": [
        {
          "internalType": "uint32",
          "name": "_gameID",
          "type": "uint32"
        }
      ],
      "name": "gameOver",
      "outputs": [],
      "stateMutability": "nonpayable",
      "type": "function"
    },
    {
      "inputs": [
        {
          "internalType": "uint32",
          "name": "_gameID",
          "type": "uint32"
        },
        {
          "internalType": "bool",
          "name": "_compute",
          "type": "bool"
        }
      ],
      "name": "forceKill",
      "outputs": [],
      "stateMutability": "nonpayable",
      "type": "function"
    }
  ],
  "bytecode": "0x60806040526000600260006101000a81548163ffffffff021916908363ffffffff1602179055506107d06003556023600455600c600555603c6006556000600760006101000a81548160ff021916908315150217905550600a600760016101000a81548161ffff021916908361ffff1602179055506402540be40060085560646009556305f5e102600a556019600b5560405162005053380380620050538339818101604052810190620000b49190620001ff565b620000d4620000c86200011c60201b60201c565b6200012460201b60201c565b80600260046101000a81548173ffffffffffffffffffffffffffffffffffffffff021916908373ffffffffffffffffffffffffffffffffffffffff1602179055505062000298565b600033905090565b60008060009054906101000a900473ffffffffffffffffffffffffffffffffffffffff169050816000806101000a81548173ffffffffffffffffffffffffffffffffffffffff021916908373ffffffffffffffffffffffffffffffffffffffff1602179055508173ffffffffffffffffffffffffffffffffffffffff168173ffffffffffffffffffffffffffffffffffffffff167f8be0079c531659141344cd1fd0a4f28419497f9722a3daafe3b4186f6b6457e060405160405180910390a35050565b600081519050620001f9816200027e565b92915050565b60006020828403121562000218576200021762000279565b5b60006200022884828501620001e8565b91505092915050565b60006200023e8262000259565b9050919050565b6000620002528262000231565b9050919050565b600073ffffffffffffffffffffffffffffffffffffffff82169050919050565b600080fd5b620002898162000245565b81146200029557600080fd5b50565b614dab80620002a86000396000f3fe60806040523480156200001157600080fd5b5060043610620000c45760003560e01c8063704af5a7116200007b578063704af5a7146200018f578063715018a614620001af5780638da5cb5b14620001bb578063aa5295cb14620001dd578063da5d2fac14620001fd578063f2fde38b146200023357620000c4565b806310c84b2214620000c957806322f3e2d414620000e95780632c4e591b146200010b57806348e837b9146200012d5780635fc39fc6146200014d5780636ab4495e146200016d575b600080fd5b620000e76004803603810190620000e1919062000e32565b62000253565b005b620000f362000316565b604051620001029190620010fa565b60405180910390f35b6200011562000329565b604051620001249190620011de565b60405180910390f35b6200014b600480360381019062000145919062000eba565b6200033f565b005b6200016b600480360381019062000165919062000f1e565b6200065f565b005b62000177620007b5565b604051620001869190620010b0565b60405180910390f35b620001ad6004803603810190620001a7919062000eec565b6200080e565b005b620001b9620009ec565b005b620001c562000a7d565b604051620001d49190620010b0565b60405180910390f35b620001fb6004803603810190620001f5919062000eba565b62000aa6565b005b6200021b600480360381019062000215919062000eec565b62000b33565b6040516200022a919062001117565b60405180910390f35b6200025160048036038101906200024b919062000dce565b62000b66565b005b6200025d62000c6a565b73ffffffffffffffffffffffffffffffffffffffff166200027d62000a7d565b73ffffffffffffffffffffffffffffffffffffffff1614620002d6576040517f08c379a0000000000000000000000000000000000000000000000000000000008152600401620002cd90620011bc565b60405180910390fd5b84600760016101000a81548161ffff021916908361ffff160217905550836008819055508260098190555081600a8190555080600b819055505050505050565b600760009054906101000a900460ff1681565b600260009054906101000a900463ffffffff1681565b6200034962000c6a565b73ffffffffffffffffffffffffffffffffffffffff166200036962000a7d565b73ffffffffffffffffffffffffffffffffffffffff1614620003c2576040517f08c379a0000000000000000000000000000000000000000000000000000000008152600401620003b990620011bc565b60405180910390fd5b60001515600760009054906101000a900460ff161515146200041b576040517f08c379a000000000000000000000000000000000000000000000000000000000815260040162000412906200119a565b60405180910390fd5b6002600081819054906101000a900463ffffffff16809291906200043f90620013fa565b91906101000a81548163ffffffff021916908363ffffffff1602179055505060006064600854620004719190620012cd565b600260009054906101000a900463ffffffff16600760019054906101000a900461ffff16600854600954600260049054906101000a900473ffffffffffffffffffffffffffffffffffffffff16600a548860045460065460055430604051620004da9062000d36565b620004f09b9a99989796959493929190620011fb565b6040518091039082f09050801580156200050e573d6000803e3d6000fd5b5090508060016000600260009054906101000a900463ffffffff1663ffffffff1663ffffffff16815260200190815260200160002060006101000a81548173ffffffffffffffffffffffffffffffffffffffff021916908373ffffffffffffffffffffffffffffffffffffffff1602179055506001600760006101000a81548160ff02191690831515021790555081600b81905550600260049054906101000a900473ffffffffffffffffffffffffffffffffffffffff1673ffffffffffffffffffffffffffffffffffffffff1663a9059cbb826003546040518363ffffffff1660e01b815260040162000604929190620010cd565b602060405180830381600087803b1580156200061f57600080fd5b505af115801562000634573d6000803e3d6000fd5b505050506040513d601f19601f820116820180604052508101906200065a919062000e00565b505050565b6200066962000c6a565b73ffffffffffffffffffffffffffffffffffffffff166200068962000a7d565b73ffffffffffffffffffffffffffffffffffffffff1614620006e2576040517f08c379a0000000000000000000000000000000000000000000000000000000008152600401620006d990620011bc565b60405180910390fd5b6000600160008463ffffffff1663ffffffff16815260200190815260200160002060009054906101000a900473ffffffffffffffffffffffffffffffffffffffff1690508073ffffffffffffffffffffffffffffffffffffffff16634fb2fcf6836040518263ffffffff1660e01b8152600401620007619190620010fa565b600060405180830381600087803b1580156200077c57600080fd5b505af115801562000791573d6000803e3d6000fd5b505050506000600760006101000a81548160ff021916908315150217905550505050565b600060016000600260009054906101000a900463ffffffff1663ffffffff1663ffffffff16815260200190815260200160002060009054906101000a900473ffffffffffffffffffffffffffffffffffffffff16905090565b600160008263ffffffff1663ffffffff16815260200190815260200160002060009054906101000a900473ffffffffffffffffffffffffffffffffffffffff1673ffffffffffffffffffffffffffffffffffffffff163373ffffffffffffffffffffffffffffffffffffffff1614620008be576040517f08c379a0000000000000000000000000000000000000000000000000000000008152600401620008b59062001178565b60405180910390fd5b6000600160008363ffffffff1663ffffffff16815260200190815260200160002060009054906101000a900473ffffffffffffffffffffffffffffffffffffffff169050600115158173ffffffffffffffffffffffffffffffffffffffff166322ba90b06040518163ffffffff1660e01b815260040160206040518083038186803b1580156200094d57600080fd5b505afa15801562000962573d6000803e3d6000fd5b505050506040513d601f19601f8201168201806040525081019062000988919062000e00565b151514620009cd576040517f08c379a0000000000000000000000000000000000000000000000000000000008152600401620009c49062001134565b60405180910390fd5b6000600760006101000a81548160ff0219169083151502179055505050565b620009f662000c6a565b73ffffffffffffffffffffffffffffffffffffffff1662000a1662000a7d565b73ffffffffffffffffffffffffffffffffffffffff161462000a6f576040517f08c379a000000000000000000000000000000000000000000000000000000000815260040162000a6690620011bc565b60405180910390fd5b62000a7b600062000c72565b565b60008060009054906101000a900473ffffffffffffffffffffffffffffffffffffffff16905090565b62000ab062000c6a565b73ffffffffffffffffffffffffffffffffffffffff1662000ad062000a7d565b73ffffffffffffffffffffffffffffffffffffffff161462000b29576040517f08c379a000000000000000000000000000000000000000000000000000000000815260040162000b2090620011bc565b60405180910390fd5b8060038190555050565b60016020528060005260406000206000915054906101000a900473ffffffffffffffffffffffffffffffffffffffff1681565b62000b7062000c6a565b73ffffffffffffffffffffffffffffffffffffffff1662000b9062000a7d565b73ffffffffffffffffffffffffffffffffffffffff161462000be9576040517f08c379a000000000000000000000000000000000000000000000000000000000815260040162000be090620011bc565b60405180910390fd5b600073ffffffffffffffffffffffffffffffffffffffff168173ffffffffffffffffffffffffffffffffffffffff16141562000c5c576040517f08c379a000000000000000000000000000000000000000000000000000000000815260040162000c539062001156565b60405180910390fd5b62000c678162000c72565b50565b600033905090565b60008060009054906101000a900473ffffffffffffffffffffffffffffffffffffffff169050816000806101000a81548173ffffffffffffffffffffffffffffffffffffffff021916908373ffffffffffffffffffffffffffffffffffffffff1602179055508173ffffffffffffffffffffffffffffffffffffffff168173ffffffffffffffffffffffffffffffffffffffff167f8be0079c531659141344cd1fd0a4f28419497f9722a3daafe3b4186f6b6457e060405160405180910390a35050565b613754806200162283390190565b60008135905062000d55816200159f565b92915050565b60008135905062000d6c81620015b9565b92915050565b60008151905062000d8381620015b9565b92915050565b60008135905062000d9a81620015d3565b92915050565b60008135905062000db181620015ed565b92915050565b60008135905062000dc88162001607565b92915050565b60006020828403121562000de75762000de66200145b565b5b600062000df78482850162000d44565b91505092915050565b60006020828403121562000e195762000e186200145b565b5b600062000e298482850162000d72565b91505092915050565b600080600080600060a0868803121562000e515762000e506200145b565b5b600062000e618882890162000d89565b955050602062000e748882890162000da0565b945050604062000e878882890162000da0565b935050606062000e9a8882890162000da0565b925050608062000ead8882890162000da0565b9150509295509295909350565b60006020828403121562000ed35762000ed26200145b565b5b600062000ee38482850162000da0565b91505092915050565b60006020828403121562000f055762000f046200145b565b5b600062000f158482850162000db7565b91505092915050565b6000806040838503121562000f385762000f376200145b565b5b600062000f488582860162000db7565b925050602062000f5b8582860162000d5b565b9150509250929050565b62000f708162001342565b82525050565b62000f81816200132e565b82525050565b62000f928162001356565b82525050565b62000fa381620013aa565b82525050565b62000fb481620013d2565b82525050565b600062000fc9602583620012bc565b915062000fd68262001460565b604082019050919050565b600062000ff0602683620012bc565b915062000ffd82620014af565b604082019050919050565b600062001017601d83620012bc565b91506200102482620014fe565b602082019050919050565b60006200103e602a83620012bc565b91506200104b8262001527565b604082019050919050565b600062001065602083620012bc565b9150620010728262001576565b602082019050919050565b620010888162001362565b82525050565b620010998162001390565b82525050565b620010aa816200139a565b82525050565b6000602082019050620010c7600083018462000f76565b92915050565b6000604082019050620010e4600083018562000f76565b620010f360208301846200108e565b9392505050565b600060208201905062001111600083018462000f87565b92915050565b60006020820190506200112e600083018462000f98565b92915050565b600060208201905081810360008301526200114f8162000fba565b9050919050565b60006020820190508181036000830152620011718162000fe1565b9050919050565b60006020820190508181036000830152620011938162001008565b9050919050565b60006020820190508181036000830152620011b5816200102f565b9050919050565b60006020820190508181036000830152620011d78162001056565b9050919050565b6000602082019050620011f560008301846200109f565b92915050565b60006101608201905062001213600083018e6200109f565b62001222602083018d6200107d565b62001231604083018c6200108e565b62001240606083018b6200108e565b6200124f608083018a62000fa9565b6200125e60a08301896200108e565b6200126d60c08301886200108e565b6200127c60e08301876200108e565b6200128c6101008301866200108e565b6200129c6101208301856200108e565b620012ac61014083018462000f65565b9c9b505050505050505050505050565b600082825260208201905092915050565b6000620012da8262001390565b9150620012e78362001390565b9250817fffffffffffffffffffffffffffffffffffffffffffffffffffffffffffffffff04831182151516156200132357620013226200142c565b5b828202905092915050565b60006200133b8262001370565b9050919050565b60006200134f8262001370565b9050919050565b60008115159050919050565b600061ffff82169050919050565b600073ffffffffffffffffffffffffffffffffffffffff82169050919050565b6000819050919050565b600063ffffffff82169050919050565b6000620013b782620013be565b9050919050565b6000620013cb8262001370565b9050919050565b6000620013df82620013e6565b9050919050565b6000620013f38262001370565b9050919050565b600062001407826200139a565b915063ffffffff8214156200142157620014206200142c565b5b600182019050919050565b7f4e487b7100000000000000000000000000000000000000000000000000000000600052601160045260246000fd5b600080fd5b7f4368657373466163746f72793a2047616d6520686173206e6f7420656e64656460008201527f2079657421000000000000000000000000000000000000000000000000000000602082015250565b7f4f776e61626c653a206e6577206f776e657220697320746865207a65726f206160008201527f6464726573730000000000000000000000000000000000000000000000000000602082015250565b7f4368657373466163746f72793a20496e76616c69642063616c6c657221000000600082015250565b7f4368657373466163746f72793a20412067616d65206973207374696c6c20696e60008201527f2070726f67726573732100000000000000000000000000000000000000000000602082015250565b7f4f776e61626c653a2063616c6c6572206973206e6f7420746865206f776e6572600082015250565b620015aa816200132e565b8114620015b657600080fd5b50565b620015c48162001356565b8114620015d057600080fd5b50565b620015de8162001362565b8114620015ea57600080fd5b50565b620015f88162001390565b81146200160457600080fd5b50565b62001612816200139a565b81146200161e57600080fd5b5056fe60806040526040518060600160405280603881526020016200371c60389139600190805190602001906200003592919062000214565b506000600660006101000a81548160ff021916908360038111156200005f576200005e620004fe565b5b02179055506000600660016101000a81548160ff021916908360028111156200008d576200008c620004fe565b5b02179055506000600660026101000a81548160ff02191690836002811115620000bb57620000ba620004fe565b5b02179055506001600660036101000a81548160ff02191690836002811115620000e957620000e8620004fe565b5b02179055506040516200375438038062003754833981810160405281019062000113919062000337565b8a6000806101000a81548163ffffffff021916908363ffffffff16021790555089600260006101000a81548161ffff021916908361ffff160217905550886004819055508760038190555086600660046101000a81548173ffffffffffffffffffffffffffffffffffffffff021916908373ffffffffffffffffffffffffffffffffffffffff1602179055508360098190555082600b8190555081600a81905550856005819055508460088190555080600760006101000a81548173ffffffffffffffffffffffffffffffffffffffff021916908373ffffffffffffffffffffffffffffffffffffffff1602179055505050505050505050505050620005e3565b8280546200022290620004c8565b90600052602060002090601f01602090048101928262000246576000855562000292565b82601f106200026157805160ff191683800117855562000292565b8280016001018555821562000292579182015b828111156200029157825182559160200191906001019062000274565b5b509050620002a19190620002a5565b5090565b5b80821115620002c0576000816000905550600101620002a6565b5090565b600081519050620002d58162000561565b92915050565b600081519050620002ec816200057b565b92915050565b600081519050620003038162000595565b92915050565b6000815190506200031a81620005af565b92915050565b6000815190506200033181620005c9565b92915050565b60008060008060008060008060008060006101608c8e03121562000360576200035f6200055c565b5b6000620003708e828f0162000320565b9b50506020620003838e828f01620002f2565b9a50506040620003968e828f0162000309565b9950506060620003a98e828f0162000309565b9850506080620003bc8e828f01620002db565b97505060a0620003cf8e828f0162000309565b96505060c0620003e28e828f0162000309565b95505060e0620003f58e828f0162000309565b945050610100620004098e828f0162000309565b9350506101206200041d8e828f0162000309565b925050610140620004318e828f01620002c4565b9150509295989b509295989b9093969950565b600062000451826200048e565b9050919050565b600062000465826200048e565b9050919050565b6000620004798262000444565b9050919050565b600061ffff82169050919050565b600073ffffffffffffffffffffffffffffffffffffffff82169050919050565b6000819050919050565b600063ffffffff82169050919050565b60006002820490506001821680620004e157607f821691505b60208210811415620004f857620004f76200052d565b5b50919050565b7f4e487b7100000000000000000000000000000000000000000000000000000000600052602160045260246000fd5b7f4e487b7100000000000000000000000000000000000000000000000000000000600052602260045260246000fd5b600080fd5b6200056c8162000458565b81146200057857600080fd5b50565b62000586816200046c565b81146200059257600080fd5b50565b620005a08162000480565b8114620005ac57600080fd5b50565b620005ba81620004ae565b8114620005c657600080fd5b50565b620005d481620004b8565b8114620005e057600080fd5b50565b61312980620005f36000396000f3fe6080604052600436106101185760003560e01c80639707b030116100a0578063ce69cd2011610064578063ce69cd20146103c5578063d1e90d62146103f0578063e97719861461041b578063fbfc2d6514610458578063fdcdb06b146104835761011f565b80639707b030146102ca578063aff814cf146102f5578063b108501f14610320578063b145cf081461034b578063ccd79382146103885761011f565b806341c85ed6116100e757806341c85ed6146101d05780634f71aff41461020e5780634fb2fcf6146102395780637fb024c2146102625780638b2999031461029f5761011f565b806319c571db1461012157806322ba90b01461013d5780633e51d681146101685780633ef018eb146101935761011f565b3661011f57005b005b61013b600480360381019061013691906122ea565b6104ae565b005b34801561014957600080fd5b506101526109de565b60405161015f919061273e565b60405180910390f35b34801561017457600080fd5b5061017d6109f1565b60405161018a91906128ec565b60405180910390f35b34801561019f57600080fd5b506101ba60048036038101906101b5919061239d565b6109f7565b6040516101c791906128ec565b60405180910390f35b3480156101dc57600080fd5b506101f760048036038101906101f29190612263565b610a3b565b604051610205929190612907565b60405180910390f35b34801561021a57600080fd5b50610223610ad9565b60405161023091906128d1565b60405180910390f35b34801561024557600080fd5b50610260600480360381019061025b9190612290565b610aed565b005b34801561026e57600080fd5b5061028960048036038101906102849190612263565b610dbe565b60405161029691906128ec565b60405180910390f35b3480156102ab57600080fd5b506102b4610e0a565b6040516102c19190612774565b60405180910390f35b3480156102d657600080fd5b506102df610e1d565b6040516102ec91906128ec565b60405180910390f35b34801561030157600080fd5b5061030a610e23565b6040516103179190612759565b60405180910390f35b34801561032c57600080fd5b50610335610e36565b6040516103429190612774565b60405180910390f35b34801561035757600080fd5b50610372600480360381019061036d9190612263565b610e49565b60405161037f9190612774565b60405180910390f35b34801561039457600080fd5b506103af60048036038101906103aa919061239d565b610ea2565b6040516103bc91906128ec565b60405180910390f35b3480156103d157600080fd5b506103da610ee6565b6040516103e791906128ec565b60405180910390f35b3480156103fc57600080fd5b50610405610eec565b6040516104129190612774565b60405180910390f35b34801561042757600080fd5b50610442600480360381019061043d919061239d565b610eff565b60405161044f91906128ec565b60405180910390f35b34801561046457600080fd5b5061046d610fbc565b60405161047a919061278f565b60405180910390f35b34801561048f57600080fd5b5061049861104a565b6040516104a59190612930565b60405180910390f35b600060038111156104c2576104c1612d11565b5b600660009054906101000a900460ff1660038111156104e4576104e3612d11565b5b14610524576040517f08c379a000000000000000000000000000000000000000000000000000000000815260040161051b906127d1565b60405180910390fd5b3483600454821480610543575060056004546105409190612a5a565b82145b8061055b5750600a6004546105589190612a5a565b82145b80610567575060035481145b8061057f5750600560035461057c9190612a5a565b81145b806105975750600a6003546105949190612a5a565b81145b6105d6576040517f08c379a00000000000000000000000000000000000000000000000000000000081526004016105cd906127b1565b60405180910390fd5b856000600c60003373ffffffffffffffffffffffffffffffffffffffff1673ffffffffffffffffffffffffffffffffffffffff16815260200190815260200160002060000160009054906101000a900460ff1690506000600281111561063f5761063e612d11565b5b81600281111561065257610651612d11565b5b14156107625781600c60003373ffffffffffffffffffffffffffffffffffffffff1673ffffffffffffffffffffffffffffffffffffffff16815260200190815260200160002060000160006101000a81548160ff021916908360028111156106bd576106bc612d11565b5b0217905550600d60008360028111156106d9576106d8612d11565b5b60028111156106eb576106ea612d11565b5b8152602001908152602001600020600001339080600181540180825580915050600190039060005260206000200160009091909190916101000a81548173ffffffffffffffffffffffffffffffffffffffff021916908373ffffffffffffffffffffffffffffffffffffffff1602179055506107c9565b81600281111561077557610774612d11565b5b81600281111561078857610787612d11565b5b146107c8576040517f08c379a00000000000000000000000000000000000000000000000000000000081526004016107bf90612891565b60405180910390fd5b5b87600660039054906101000a900460ff1660028111156107ec576107eb612d11565b5b8160028111156107ff576107fe612d11565b5b1461083f576040517f08c379a000000000000000000000000000000000000000000000000000000000815260040161083690612871565b60405180910390fd5b600260009054906101000a900461ffff1661ffff16600c60003373ffffffffffffffffffffffffffffffffffffffff1673ffffffffffffffffffffffffffffffffffffffff16815260200190815260200160002060000160019054906101000a900461ffff1661ffff16106108e9576040517f08c379a00000000000000000000000000000000000000000000000000000000081526004016108e0906127f1565b60405180910390fd5b85600190805190602001906108ff9291906120bd565b5061090c338a348b61105e565b60035488106109c857600660049054906101000a900473ffffffffffffffffffffffffffffffffffffffff1673ffffffffffffffffffffffffffffffffffffffff166323b872dd33308b6040518463ffffffff1660e01b8152600401610974939291906126a7565b602060405180830381600087803b15801561098e57600080fd5b505af11580156109a2573d6000803e3d6000fd5b505050506040513d601f19601f820116820180604052508101906109c691906122bd565b505b6109d28a8a61137f565b50505050505050505050565b600060049054906101000a900460ff1681565b60055481565b6000600d6000836002811115610a1057610a0f612d11565b5b6002811115610a2257610a21612d11565b5b8152602001908152602001600020600201549050919050565b6000806000600c60008573ffffffffffffffffffffffffffffffffffffffff1673ffffffffffffffffffffffffffffffffffffffff1681526020019081526020016000206001015490506000600c60008673ffffffffffffffffffffffffffffffffffffffff1673ffffffffffffffffffffffffffffffffffffffff1681526020019081526020016000206002015490508181935093505050915091565b600260009054906101000a900461ffff1681565b60006003811115610b0157610b00612d11565b5b600660009054906101000a900460ff166003811115610b2357610b22612d11565b5b141580610b7d5750600760009054906101000a900473ffffffffffffffffffffffffffffffffffffffff1673ffffffffffffffffffffffffffffffffffffffff163373ffffffffffffffffffffffffffffffffffffffff16145b610bbc576040517f08c379a0000000000000000000000000000000000000000000000000000000008152600401610bb390612851565b60405180910390fd5b600760009054906101000a900473ffffffffffffffffffffffffffffffffffffffff1673ffffffffffffffffffffffffffffffffffffffff163373ffffffffffffffffffffffffffffffffffffffff161415610c3e576003600660006101000a81548160ff02191690836003811115610c3857610c37612d11565b5b02179055505b8015610c4d57610c4c611600565b5b610c55611823565b600760009054906101000a900473ffffffffffffffffffffffffffffffffffffffff1673ffffffffffffffffffffffffffffffffffffffff16620186a060008054906101000a900463ffffffff16604051602401610cb39190612930565b6040516020818303038152906040527f704af5a7000000000000000000000000000000000000000000000000000000007bffffffffffffffffffffffffffffffffffffffffffffffffffffffff19166020820180517bffffffffffffffffffffffffffffffffffffffffffffffffffffffff8381831617835250505050604051610d3d9190612637565b60006040518083038160008787f1925050503d8060008114610d7b576040519150601f19603f3d011682016040523d82523d6000602084013e610d80565b606091505b505050600760009054906101000a900473ffffffffffffffffffffffffffffffffffffffff1673ffffffffffffffffffffffffffffffffffffffff16ff5b6000600c60008373ffffffffffffffffffffffffffffffffffffffff1673ffffffffffffffffffffffffffffffffffffffff168152602001908152602001600020600301549050919050565b600660039054906101000a900460ff1681565b60035481565b600660009054906101000a900460ff1681565b600660019054906101000a900460ff1681565b6000600c60008373ffffffffffffffffffffffffffffffffffffffff1673ffffffffffffffffffffffffffffffffffffffff16815260200190815260200160002060000160009054906101000a900460ff169050919050565b6000600d6000836002811115610ebb57610eba612d11565b5b6002811115610ecd57610ecc612d11565b5b8152602001908152602001600020600101549050919050565b60045481565b600660029054906101000a900460ff1681565b6000806003811115610f1457610f13612d11565b5b600660009054906101000a900460ff166003811115610f3657610f35612d11565b5b1415610f77576040517f08c379a0000000000000000000000000000000000000000000000000000000008152600401610f6e906128b1565b60405180910390fd5b600d6000836002811115610f8e57610f8d612d11565b5b6002811115610fa057610f9f612d11565b5b8152602001908152602001600020600001805490509050919050565b60018054610fc990612bdc565b80601f0160208091040260200160405190810160405280929190818152602001828054610ff590612bdc565b80156110425780601f1061101757610100808354040283529160200191611042565b820191906000526020600020905b81548152906001019060200180831161102557829003601f168201915b505050505081565b60008054906101000a900463ffffffff1681565b81600c60008673ffffffffffffffffffffffffffffffffffffffff1673ffffffffffffffffffffffffffffffffffffffff16815260200190815260200160002060010160008282546110b091906129d3565b9250508190555080600c60008673ffffffffffffffffffffffffffffffffffffffff1673ffffffffffffffffffffffffffffffffffffffff168152602001908152602001600020600201600082825461110991906129d3565b9250508190555081600d600085600281111561112857611127612d11565b5b600281111561113a57611139612d11565b5b8152602001908152602001600020600101600082825461115a91906129d3565b9250508190555080600d600085600281111561117957611178612d11565b5b600281111561118b5761118a612d11565b5b815260200190815260200160002060020160008282546111ab91906129d3565b92505081905550600554816111c09190612a5a565b826111cb91906129d3565b600d60008560028111156111e2576111e1612d11565b5b60028111156111f4576111f3612d11565b5b8152602001908152602001600020600301600082825461121491906129d3565b92505081905550600c60008573ffffffffffffffffffffffffffffffffffffffff1673ffffffffffffffffffffffffffffffffffffffff16815260200190815260200160002060010154600554600c60008773ffffffffffffffffffffffffffffffffffffffff1673ffffffffffffffffffffffffffffffffffffffff168152602001908152602001600020600201546112ae9190612a5a565b6112b891906129d3565b600c60008673ffffffffffffffffffffffffffffffffffffffff1673ffffffffffffffffffffffffffffffffffffffff16815260200190815260200160002060030181905550600c60008573ffffffffffffffffffffffffffffffffffffffff1673ffffffffffffffffffffffffffffffffffffffff168152602001908152602001600020600001600181819054906101000a900461ffff168092919061135e90612c3f565b91906101000a81548161ffff021916908361ffff1602179055505050505050565b6000600381111561139357611392612d11565b5b8260038111156113a6576113a5612d11565b5b14156113e3576113b581611abb565b600660036101000a81548160ff021916908360028111156113d9576113d8612d11565b5b02179055506115fc565b81600660006101000a81548160ff0219169083600381111561140857611407612d11565b5b02179055506001600381111561142157611420612d11565b5b82600381111561143457611433612d11565b5b14156114975780600660016101000a81548160ff0219169083600281111561145f5761145e612d11565b5b021790555061146d81611abb565b600660026101000a81548160ff0219169083600281111561149157611490612d11565b5b02179055505b7ff2c19256ceef03eec7a00ba5e27726b55e9224b711266400dfe19267ac36f44d30600660009054906101000a900460ff16600660019054906101000a900460ff166040516114e8939291906126de565b60405180910390a1600854600d600060028081111561150a57611509612d11565b5b600281111561151c5761151b612d11565b5b815260200190815260200160002060040154600d60006001600281111561154657611545612d11565b5b600281111561155857611557612d11565b5b81526020019081526020016000206004015461157491906129d3565b61ad706115819190612a5a565b620188c461158f91906129d3565b6115999190612a5a565b600c60003373ffffffffffffffffffffffffffffffffffffffff1673ffffffffffffffffffffffffffffffffffffffff16815260200190815260200160002060010160008282546115ea91906129d3565b925050819055506115fb6001610aed565b5b5050565b600061161a600660029054906101000a900460ff16610ea2565b90506000611636600660029054906101000a900460ff166109f7565b90506000611652600660019054906101000a900460ff16610eff565b9050600061166e600660029054906101000a900460ff16610eff565b905060006116ae600954866116839190612a5a565b6064856116909190612a5a565b6040518060600160405280602e8152602001613066602e9139611afc565b905060006116ee600b54866116c39190612a5a565b6064866116d09190612a5a565b6040518060600160405280603381526020016130c160339139611afc565b9050600061172e600a54886117039190612a5a565b6064866117109190612a5a565b6040518060600160405280602d8152602001613094602d9139611afc565b905082600d6000600660019054906101000a900460ff16600281111561175757611756612d11565b5b600281111561176957611768612d11565b5b81526020019081526020016000206005018190555080600d6000600660029054906101000a900460ff1660028111156117a5576117a4612d11565b5b60028111156117b7576117b6612d11565b5b81526020019081526020016000206005018190555081600d6000600660019054906101000a900460ff1660028111156117f3576117f2612d11565b5b600281111561180557611804612d11565b5b81526020019081526020016000206006018190555050505050505050565b6000600381111561183757611836612d11565b5b600660009054906101000a900460ff16600381111561185957611858612d11565b5b141561189a576040517f08c379a0000000000000000000000000000000000000000000000000000000008152600401611891906128b1565b60405180910390fd5b6118a46001611b5e565b7fd9d01d44de29b498f44d3c62c207fc5adbf37f4ecc6d2318d1e971cc79a6ab4a3060016040516118d6929190612715565b60405180910390a16118e86002611b5e565b7fd9d01d44de29b498f44d3c62c207fc5adbf37f4ecc6d2318d1e971cc79a6ab4a30600260405161191a929190612715565b60405180910390a1600660049054906101000a900473ffffffffffffffffffffffffffffffffffffffff1673ffffffffffffffffffffffffffffffffffffffff1663a9059cbb600760009054906101000a900473ffffffffffffffffffffffffffffffffffffffff16600660049054906101000a900473ffffffffffffffffffffffffffffffffffffffff1673ffffffffffffffffffffffffffffffffffffffff166370a08231306040518263ffffffff1660e01b81526004016119de9190612663565b60206040518083038186803b1580156119f657600080fd5b505afa158015611a0a573d6000803e3d6000fd5b505050506040513d601f19601f82011682018060405250810190611a2e91906123ca565b6040518363ffffffff1660e01b8152600401611a4b92919061267e565b602060405180830381600087803b158015611a6557600080fd5b505af1158015611a79573d6000803e3d6000fd5b505050506040513d601f19601f82011682018060405250810190611a9d91906122bd565b506001600060046101000a81548160ff021916908315150217905550565b6000600280811115611ad057611acf612d11565b5b826002811115611ae357611ae2612d11565b5b1415611af25760019050611af7565b600290505b919050565b60008083118290611b43576040517f08c379a0000000000000000000000000000000000000000000000000000000008152600401611b3a919061278f565b60405180910390fd5b50828481611b5457611b53612ce2565b5b0490509392505050565b6000611b6982610eff565b90506000600d6000846002811115611b8457611b83612d11565b5b6002811115611b9657611b95612d11565b5b815260200190815260200160002060050154905060008282611bb89190612a5a565b90506000600d6000866002811115611bd357611bd2612d11565b5b6002811115611be557611be4612d11565b5b81526020019081526020016000206006015490506000600d6000876002811115611c1257611c11612d11565b5b6002811115611c2457611c23612d11565b5b81526020019081526020016000206003015490506000600660019054906101000a900460ff166002811115611c5c57611c5b612d11565b5b876002811115611c6f57611c6e612d11565b5b1480611ced575060006002811115611c8a57611c89612d11565b5b600660019054906101000a900460ff166002811115611cac57611cab612d11565b5b148015611cec575060006002811115611cc857611cc7612d11565b5b600660029054906101000a900460ff166002811115611cea57611ce9612d11565b5b145b5b15611cf757600190505b60005b86811015611fa9576000600d60008a6002811115611d1b57611d1a612d11565b5b6002811115611d2d57611d2c612d11565b5b81526020019081526020016000206000018281548110611d5057611d4f612d6f565b5b9060005260206000200160009054906101000a900473ffffffffffffffffffffffffffffffffffffffff16905060008360ff16600c60008473ffffffffffffffffffffffffffffffffffffffff1673ffffffffffffffffffffffffffffffffffffffff16815260200190815260200160002060010154611dd09190612a5a565b9050600060028560ff16600c60008673ffffffffffffffffffffffffffffffffffffffff1673ffffffffffffffffffffffffffffffffffffffff16815260200190815260200160002060020154611e279190612a5a565b611e319190612a29565b9050600082611e9688600c60008873ffffffffffffffffffffffffffffffffffffffff1673ffffffffffffffffffffffffffffffffffffffff168152602001908152602001600020600301548c611e889190612a5a565b611fb390919063ffffffff16565b611ea091906129d3565b9050600088611eba6005548d611fb390919063ffffffff16565b611ec491906129d3565b905060008184611ed491906129d3565b9050600660049054906101000a900473ffffffffffffffffffffffffffffffffffffffff1673ffffffffffffffffffffffffffffffffffffffff1663a9059cbb87836040518363ffffffff1660e01b8152600401611f3392919061267e565b602060405180830381600087803b158015611f4d57600080fd5b505af1158015611f61573d6000803e3d6000fd5b505050506040513d601f19601f82011682018060405250810190611f8591906122bd565b50611f908684611fc9565b5050505050508080611fa190612c6a565b915050611cfa565b5050505050505050565b60008183611fc19190612a29565b905092915050565b8047101561200c576040517f08c379a000000000000000000000000000000000000000000000000000000000815260040161200390612831565b60405180910390fd5b60008273ffffffffffffffffffffffffffffffffffffffff16826040516120329061264e565b60006040518083038185875af1925050503d806000811461206f576040519150601f19603f3d011682016040523d82523d6000602084013e612074565b606091505b50509050806120b8576040517f08c379a00000000000000000000000000000000000000000000000000000000081526004016120af90612811565b60405180910390fd5b505050565b8280546120c990612bdc565b90600052602060002090601f0160209004810192826120eb5760008555612132565b82601f1061210457805160ff1916838001178555612132565b82800160010185558215612132579182015b82811115612131578251825591602001919060010190612116565b5b50905061213f9190612143565b5090565b5b8082111561215c576000816000905550600101612144565b5090565b600061217361216e84612970565b61294b565b90508281526020810184848401111561218f5761218e612dd2565b5b61219a848285612b9a565b509392505050565b6000813590506121b181613000565b92915050565b6000813590506121c681613017565b92915050565b6000815190506121db81613017565b92915050565b6000813590506121f08161302e565b92915050565b6000813590506122058161303e565b92915050565b600082601f8301126122205761221f612dcd565b5b8135612230848260208601612160565b91505092915050565b6000813590506122488161304e565b92915050565b60008151905061225d8161304e565b92915050565b60006020828403121561227957612278612ddc565b5b6000612287848285016121a2565b91505092915050565b6000602082840312156122a6576122a5612ddc565b5b60006122b4848285016121b7565b91505092915050565b6000602082840312156122d3576122d2612ddc565b5b60006122e1848285016121cc565b91505092915050565b600080600080600060a0868803121561230657612305612ddc565b5b6000612314888289016121e1565b9550506020612325888289016121f6565b945050604061233688828901612239565b935050606086013567ffffffffffffffff81111561235757612356612dd7565b5b6123638882890161220b565b925050608086013567ffffffffffffffff81111561238457612383612dd7565b5b6123908882890161220b565b9150509295509295909350565b6000602082840312156123b3576123b2612ddc565b5b60006123c1848285016121f6565b91505092915050565b6000602082840312156123e0576123df612ddc565b5b60006123ee8482850161224e565b91505092915050565b61240081612b40565b82525050565b61240f81612ab4565b82525050565b61241e81612ac6565b82525050565b600061242f826129a1565b61243981856129b7565b9350612449818560208601612ba9565b80840191505092915050565b61245e81612b52565b82525050565b61246d81612b64565b82525050565b600061247e826129ac565b61248881856129c2565b9350612498818560208601612ba9565b6124a181612de1565b840191505092915050565b60006124b96017836129c2565b91506124c482612df2565b602082019050919050565b60006124dc6016836129c2565b91506124e782612e1b565b602082019050919050565b60006124ff602b836129c2565b915061250a82612e44565b604082019050919050565b6000612522603a836129c2565b915061252d82612e93565b604082019050919050565b6000612545601d836129c2565b915061255082612ee2565b602082019050919050565b6000612568601a836129c2565b915061257382612f0b565b602082019050919050565b600061258b6000836129b7565b915061259682612f34565b600082019050919050565b60006125ae6019836129c2565b91506125b982612f37565b602082019050919050565b60006125d16023836129c2565b91506125dc82612f60565b604082019050919050565b60006125f4601c836129c2565b91506125ff82612faf565b602082019050919050565b61261381612af8565b82525050565b61262281612b26565b82525050565b61263181612b30565b82525050565b60006126438284612424565b915081905092915050565b60006126598261257e565b9150819050919050565b60006020820190506126786000830184612406565b92915050565b600060408201905061269360008301856123f7565b6126a06020830184612619565b9392505050565b60006060820190506126bc6000830186612406565b6126c96020830185612406565b6126d66040830184612619565b949350505050565b60006060820190506126f36000830186612406565b6127006020830185612455565b61270d6040830184612464565b949350505050565b600060408201905061272a6000830185612406565b6127376020830184612464565b9392505050565b60006020820190506127536000830184612415565b92915050565b600060208201905061276e6000830184612455565b92915050565b60006020820190506127896000830184612464565b92915050565b600060208201905081810360008301526127a98184612473565b905092915050565b600060208201905081810360008301526127ca816124ac565b9050919050565b600060208201905081810360008301526127ea816124cf565b9050919050565b6000602082019050818103600083015261280a816124f2565b9050919050565b6000602082019050818103600083015261282a81612515565b9050919050565b6000602082019050818103600083015261284a81612538565b9050919050565b6000602082019050818103600083015261286a8161255b565b9050919050565b6000602082019050818103600083015261288a816125a1565b9050919050565b600060208201905081810360008301526128aa816125c4565b9050919050565b600060208201905081810360008301526128ca816125e7565b9050919050565b60006020820190506128e6600083018461260a565b92915050565b60006020820190506129016000830184612619565b92915050565b600060408201905061291c6000830185612619565b6129296020830184612619565b9392505050565b60006020820190506129456000830184612628565b92915050565b6000612955612966565b90506129618282612c0e565b919050565b6000604051905090565b600067ffffffffffffffff82111561298b5761298a612d9e565b5b61299482612de1565b9050602081019050919050565b600081519050919050565b600081519050919050565b600081905092915050565b600082825260208201905092915050565b60006129de82612b26565b91506129e983612b26565b9250827fffffffffffffffffffffffffffffffffffffffffffffffffffffffffffffffff03821115612a1e57612a1d612cb3565b5b828201905092915050565b6000612a3482612b26565b9150612a3f83612b26565b925082612a4f57612a4e612ce2565b5b828204905092915050565b6000612a6582612b26565b9150612a7083612b26565b9250817fffffffffffffffffffffffffffffffffffffffffffffffffffffffffffffffff0483118215151615612aa957612aa8612cb3565b5b828202905092915050565b6000612abf82612b06565b9050919050565b60008115159050919050565b6000819050612ae082612fd8565b919050565b6000819050612af382612fec565b919050565b600061ffff82169050919050565b600073ffffffffffffffffffffffffffffffffffffffff82169050919050565b6000819050919050565b600063ffffffff82169050919050565b6000612b4b82612b76565b9050919050565b6000612b5d82612ad2565b9050919050565b6000612b6f82612ae5565b9050919050565b6000612b8182612b88565b9050919050565b6000612b9382612b06565b9050919050565b82818337600083830152505050565b60005b83811015612bc7578082015181840152602081019050612bac565b83811115612bd6576000848401525b50505050565b60006002820490506001821680612bf457607f821691505b60208210811415612c0857612c07612d40565b5b50919050565b612c1782612de1565b810181811067ffffffffffffffff82111715612c3657612c35612d9e565b5b80604052505050565b6000612c4a82612af8565b915061ffff821415612c5f57612c5e612cb3565b5b600182019050919050565b6000612c7582612b26565b91507fffffffffffffffffffffffffffffffffffffffffffffffffffffffffffffffff821415612ca857612ca7612cb3565b5b600182019050919050565b7f4e487b7100000000000000000000000000000000000000000000000000000000600052601160045260246000fd5b7f4e487b7100000000000000000000000000000000000000000000000000000000600052601260045260246000fd5b7f4e487b7100000000000000000000000000000000000000000000000000000000600052602160045260246000fd5b7f4e487b7100000000000000000000000000000000000000000000000000000000600052602260045260246000fd5b7f4e487b7100000000000000000000000000000000000000000000000000000000600052603260045260246000fd5b7f4e487b7100000000000000000000000000000000000000000000000000000000600052604160045260246000fd5b600080fd5b600080fd5b600080fd5b600080fd5b6000601f19601f8301169050919050565b7f436865737347616d653a20496e76616c69642042696421000000000000000000600082015250565b7f436865737347616d653a2047616d6520656e6465642100000000000000000000600082015250565b7f436865737347616d653a20596f75206861766520706c61796564206d6178696d60008201527f756d206368616e63657321000000000000000000000000000000000000000000602082015250565b7f416464726573733a20756e61626c6520746f2073656e642076616c75652c207260008201527f6563697069656e74206d61792068617665207265766572746564000000000000602082015250565b7f416464726573733a20696e73756666696369656e742062616c616e6365000000600082015250565b7f436865737347616d653a20496e76616c69642043616c6c657221000000000000600082015250565b50565b7f436865737347616d653a204e6f7420796f7572207475726e2100000000000000600082015250565b7f436865737347616d653a20596f752063616e6e6f74206368616e67652073696460008201527f6573210000000000000000000000000000000000000000000000000000000000602082015250565b7f436865737347616d653a2047616d6520696e2050726f67726573732100000000600082015250565b60048110612fe957612fe8612d11565b5b50565b60038110612ffd57612ffc612d11565b5b50565b61300981612ab4565b811461301457600080fd5b50565b61302081612ac6565b811461302b57600080fd5b50565b6004811061303b57600080fd5b50565b6003811061304b57600080fd5b50565b61305781612b26565b811461306257600080fd5b5056fe4368657373466163746f72793a204572726f722063616c63756c6174696e672077696e6e657220726577617264214368657373466163746f72793a204572726f722063616c63756c6174696e67206c6f73657220726577617264214368657373466163746f72793a204572726f722063616c63756c6174696e672077696e6e657220636f696e2072657761726421a264697066735822122096d9c946b99e5d95c64075d8da8a3752b57d2f87fc3c4b508af4a615ac79c05c64736f6c63430008060033726e62716b626e722f70707070707070702f382f382f382f382f50505050505050502f524e42514b424e522077204b516b71202d20302031a2646970667358221220c5bd5daf5a92af9817d7f1d442e5bb1f416944aa3385f2aeb580ec773614b44b64736f6c63430008060033",
  "immutableReferences": {},
  "source": "//SPDX-License-Identifier: RahulPanchal-15\r\npragma solidity ^0.8.4;\r\n\r\nimport \"@openzeppelin/contracts/access/Ownable.sol\";\r\nimport \"@openzeppelin/contracts/utils/math/SafeMath.sol\";\r\nimport \"./ChessGame.sol\";\r\nimport \"@openzeppelin/contracts/token/ERC20/IERC20.sol\";\r\n\r\n///@title Factory for Chess games\r\n///@author Rahul Panchal\r\n///@notice Responsible for creating new chess game contracts and handling reward distribution\r\n///@dev Setup Chainlink for getting current UbiquitoPrice and set rewards accordingly \r\ncontract ChessFactory is Ownable {\r\n    using SafeMath for uint256;\r\n\r\n    mapping(uint32 => ChessGame) public games;\r\n    uint32 public totalGames = 0;\r\n    IERC20Burnable private UBIQUITO;\r\n    uint256 private INITIAL_GAME_SUPPLY = 2000;\r\n    uint256 private WINNER_SHARE  = 35;\r\n    uint256 private LOSER_SHARE = 12;\r\n    uint256 private WINNER_COIN_SHARE = 60;\r\n    bool public isActive = false;\r\n    uint16 private MAX_CHANCES = 10;\r\n    uint256 private MIN_BID = 10000000000;\r\n    uint256 private MIN_COIN_BID = 100;\r\n    uint256 private TOKEN_PRICE = 100000002;\r\n    uint256 private GAS_PRICE = 25;\r\n    \r\n    \r\n    constructor(\r\n        IERC20Burnable _ubiquito\r\n    ) \r\n        payable\r\n    {\r\n        UBIQUITO = _ubiquito;\r\n    }\r\n\r\n    ///@dev Creates new chess games\r\n    function createGame(uint _gasPrice)public onlyOwner \r\n    {\r\n        require(isActive==false,\"ChessFactory: A game is still in progress!\");\r\n        totalGames++;\r\n        ChessGame game = new ChessGame{value: MIN_BID*100}(\r\n            totalGames,\r\n            MAX_CHANCES,\r\n            MIN_BID,\r\n            MIN_COIN_BID,\r\n            UBIQUITO,\r\n            TOKEN_PRICE,\r\n            _gasPrice,\r\n            WINNER_SHARE,\r\n            WINNER_COIN_SHARE,\r\n            LOSER_SHARE,\r\n            payable(address(this))\r\n        );\r\n        games[totalGames] = game;\r\n        isActive = true;\r\n        GAS_PRICE = _gasPrice;\r\n        UBIQUITO.transfer(address(game), INITIAL_GAME_SUPPLY); // Supply ChessFactory with sufficient Ubiquito!!!\r\n    }\r\n\r\n    ///@notice Address of latest game that was created\r\n    ///@dev Address of latest game that was created\r\n    ///@return Address of latest game\r\n    function getLatestGame() public view returns (address) {\r\n        return address(games[totalGames]);\r\n    }\r\n\r\n    ///@dev Provide Game contracts with some coins to begin with\r\n    ///@param _supply Amount of ERC20 coins to be supplied to Game contracts\r\n    function setInitialGameSupply(uint256 _supply) external onlyOwner {\r\n        INITIAL_GAME_SUPPLY = _supply;\r\n    }\r\n\r\n    ///@dev Change the default parameters of the game\r\n    ///@param _maxChances Maximum moves a single player can make\r\n    ///@param _minBid Minimum bid a player must make in ETH\r\n    ///@param _minCoinBid Minimum bid a player must make in COIN\r\n    ///@param _tokenPrice Price set for 1 COIN\r\n    ///@param _gasPrice Current average gas price (considered to reimburse last player for reward computation)\r\n    function setGameDefaults(\r\n        uint16 _maxChances, \r\n        uint256 _minBid, \r\n        uint256 _minCoinBid, \r\n        uint256 _tokenPrice,\r\n        uint256 _gasPrice\r\n    )\r\n        public \r\n        onlyOwner \r\n    {\r\n        MAX_CHANCES = _maxChances;\r\n        MIN_BID = _minBid;\r\n        MIN_COIN_BID = _minCoinBid;\r\n        TOKEN_PRICE = _tokenPrice;\r\n        GAS_PRICE = _gasPrice;\r\n    }\r\n\r\n\r\n    ///@dev Begins process of sending rewards to winners of a game\r\n    ///@param _gameID Id of the game\r\n    function gameOver(uint32 _gameID) public  {\r\n        require(msg.sender == address(games[_gameID]), \"ChessFactory: Invalid caller!\");\r\n        ChessGame game = games[_gameID];\r\n        require(game.REWARDED() == true,\r\n            \"ChessFactory: Game has not ended yet!\"\r\n        );\r\n        isActive = false;\r\n    }\r\n    \r\n    ///@dev Kills the game contract and refunds the bids\r\n    ///@param _gameID Id of the game\r\n    ///@param _compute True if rewards need to be computed and False for simple refund\r\n    function forceKill(uint32 _gameID,bool _compute) public onlyOwner {\r\n        ChessGame game = games[_gameID];\r\n        game.activateRewardMechanism(_compute);\r\n        isActive = false;\r\n    }\r\n}",
  "sourcePath": "C:/Users/naresh panchal/blockC/bidding-chess/contracts/ChessFactory.sol",
  "compiler": {
    "name": "solc",
    "version": "0.8.6+commit.11564f7e.Emscripten.clang"
  },
  "schemaVersion": "3.4.1",
  "updatedAt": "2021-08-09T16:00:54.268Z",
  "networkType": "ethereum",
  "devdoc": {
    "author": "Rahul Panchal",
    "details": "Setup Chainlink for getting current UbiquitoPrice and set rewards accordingly ",
    "kind": "dev",
    "methods": {
      "createGame(uint256)": {
        "details": "Creates new chess games"
      },
      "forceKill(uint32,bool)": {
        "details": "Kills the game contract and refunds the bids",
        "params": {
          "_compute": "True if rewards need to be computed and False for simple refund",
          "_gameID": "Id of the game"
        }
      },
      "gameOver(uint32)": {
        "details": "Begins process of sending rewards to winners of a game",
        "params": {
          "_gameID": "Id of the game"
        }
      },
      "getLatestGame()": {
        "details": "Address of latest game that was created",
        "returns": {
          "_0": "Address of latest game"
        }
      },
      "owner()": {
        "details": "Returns the address of the current owner."
      },
      "renounceOwnership()": {
        "details": "Leaves the contract without owner. It will not be possible to call `onlyOwner` functions anymore. Can only be called by the current owner. NOTE: Renouncing ownership will leave the contract without an owner, thereby removing any functionality that is only available to the owner."
      },
      "setGameDefaults(uint16,uint256,uint256,uint256,uint256)": {
        "details": "Change the default parameters of the game",
        "params": {
          "_gasPrice": "Current average gas price (considered to reimburse last player for reward computation)",
          "_maxChances": "Maximum moves a single player can make",
          "_minBid": "Minimum bid a player must make in ETH",
          "_minCoinBid": "Minimum bid a player must make in COIN",
          "_tokenPrice": "Price set for 1 COIN"
        }
      },
      "setInitialGameSupply(uint256)": {
        "details": "Provide Game contracts with some coins to begin with",
        "params": {
          "_supply": "Amount of ERC20 coins to be supplied to Game contracts"
        }
      },
      "transferOwnership(address)": {
        "details": "Transfers ownership of the contract to a new account (`newOwner`). Can only be called by the current owner."
      }
    },
    "title": "Factory for Chess games",
    "version": 1
  },
  "userdoc": {
    "kind": "user",
    "methods": {
      "getLatestGame()": {
        "notice": "Address of latest game that was created"
      }
    },
    "notice": "Responsible for creating new chess game contracts and handling reward distribution",
    "version": 1
  }
}