{
  "contractName": "ChessFactory",
  "abi": [
    {
      "anonymous": false,
      "inputs": [
        {
          "indexed": true,
          "internalType": "address",
          "name": "previousOwner",
          "type": "address"
        },
        {
          "indexed": true,
          "internalType": "address",
          "name": "newOwner",
          "type": "address"
        }
      ],
      "name": "OwnershipTransferred",
      "type": "event"
    },
    {
      "inputs": [],
      "name": "owner",
      "outputs": [
        {
          "internalType": "address",
          "name": "",
          "type": "address"
        }
      ],
      "stateMutability": "view",
      "type": "function"
    },
    {
      "inputs": [],
      "name": "renounceOwnership",
      "outputs": [],
      "stateMutability": "nonpayable",
      "type": "function"
    },
    {
      "inputs": [
        {
          "internalType": "address",
          "name": "newOwner",
          "type": "address"
        }
      ],
      "name": "transferOwnership",
      "outputs": [],
      "stateMutability": "nonpayable",
      "type": "function"
    },
    {
      "inputs": [
        {
          "internalType": "uint16",
          "name": "_maxChances",
          "type": "uint16"
        },
        {
          "internalType": "uint256",
          "name": "_minBid",
          "type": "uint256"
        },
        {
          "internalType": "uint256",
          "name": "_mediumBid",
          "type": "uint256"
        },
        {
          "internalType": "uint256",
          "name": "_maxBid",
          "type": "uint256"
        }
      ],
      "name": "createGame",
      "outputs": [],
      "stateMutability": "nonpayable",
      "type": "function"
    },
    {
      "inputs": [],
      "name": "getLatestGame",
      "outputs": [
        {
          "internalType": "address",
          "name": "",
          "type": "address"
        }
      ],
      "stateMutability": "view",
      "type": "function"
    },
    {
      "inputs": [
        {
          "internalType": "uint256",
          "name": "_gameID",
          "type": "uint256"
        }
      ],
      "name": "setRewardFor",
      "outputs": [],
      "stateMutability": "nonpayable",
      "type": "function"
    },
    {
      "inputs": [
        {
          "internalType": "uint256",
          "name": "_gameId",
          "type": "uint256"
        },
        {
          "internalType": "bool",
          "name": "_status",
          "type": "bool"
        }
      ],
      "name": "setEscrowStatus",
      "outputs": [],
      "stateMutability": "nonpayable",
      "type": "function"
    },
    {
      "inputs": [
        {
          "internalType": "uint256",
          "name": "_gameId",
          "type": "uint256"
        }
      ],
      "name": "rewardWinners",
      "outputs": [],
      "stateMutability": "nonpayable",
      "type": "function"
    }
  ],
  "bytecode": "0x6080604052600060035534801561001557600080fd5b5061003261002761003760201b60201c565b61003f60201b60201c565b610103565b600033905090565b60008060009054906101000a900473ffffffffffffffffffffffffffffffffffffffff169050816000806101000a81548173ffffffffffffffffffffffffffffffffffffffff021916908373ffffffffffffffffffffffffffffffffffffffff1602179055508173ffffffffffffffffffffffffffffffffffffffff168173ffffffffffffffffffffffffffffffffffffffff167f8be0079c531659141344cd1fd0a4f28419497f9722a3daafe3b4186f6b6457e060405160405180910390a35050565b6146ef806101126000396000f3fe60806040523480156200001157600080fd5b5060043610620000945760003560e01c8063715018a61162000063578063715018a6146200011b5780638da5cb5b14620001275780639f54c6701462000149578063f2fde38b14620001695762000094565b806327ef376214620000995780632bbda31114620000b957806332e2d7f914620000d95780636ab4495e14620000f9575b600080fd5b620000b76004803603810190620000b19190620011d6565b62000189565b005b620000d76004803603810190620000d1919062001172565b620003a8565b005b620000f76004803603810190620000f1919062001172565b62000941565b005b6200010362000b52565b60405162000112919062001309565b60405180910390f35b6200012562000b8f565b005b6200013162000c20565b60405162000140919062001309565b60405180910390f35b62000167600480360381019062000161919062001100565b62000c49565b005b62000187600480360381019062000181919062001038565b62000d8a565b005b6200019362000e8e565b73ffffffffffffffffffffffffffffffffffffffff16620001b362000c20565b73ffffffffffffffffffffffffffffffffffffffff16146200020c576040517f08c379a00000000000000000000000000000000000000000000000000000000081526004016200020390620013c1565b60405180910390fd5b60006001600084815260200190815260200160002060009054906101000a900473ffffffffffffffffffffffffffffffffffffffff1690506001808111156200025a57620002596200160b565b5b8173ffffffffffffffffffffffffffffffffffffffff1663c19d93fb6040518163ffffffff1660e01b815260040160206040518083038186803b158015620002a157600080fd5b505afa158015620002b6573d6000803e3d6000fd5b505050506040513d601f19601f82011682018060405250810190620002dc9190620010ce565b6001811115620002f157620002f06200160b565b5b1462000334576040517f08c379a00000000000000000000000000000000000000000000000000000000081526004016200032b906200137d565b60405180910390fd5b8073ffffffffffffffffffffffffffffffffffffffff1663d9ec4752836040518263ffffffff1660e01b81526004016200036f919062001326565b600060405180830381600087803b1580156200038a57600080fd5b505af11580156200039f573d6000803e3d6000fd5b50505050505050565b620003b262000e8e565b73ffffffffffffffffffffffffffffffffffffffff16620003d262000c20565b73ffffffffffffffffffffffffffffffffffffffff16146200042b576040517f08c379a00000000000000000000000000000000000000000000000000000000081526004016200042290620013c1565b60405180910390fd5b60006001600083815260200190815260200160002060009054906101000a900473ffffffffffffffffffffffffffffffffffffffff1690506001808111156200047957620004786200160b565b5b8173ffffffffffffffffffffffffffffffffffffffff1663c19d93fb6040518163ffffffff1660e01b815260040160206040518083038186803b158015620004c057600080fd5b505afa158015620004d5573d6000803e3d6000fd5b505050506040513d601f19601f82011682018060405250810190620004fb9190620010ce565b600181111562000510576200050f6200160b565b5b1462000553576040517f08c379a00000000000000000000000000000000000000000000000000000000081526004016200054a906200137d565b60405180910390fd5b6002808111156200056957620005686200160b565b5b8173ffffffffffffffffffffffffffffffffffffffff1663aff814cf6040518163ffffffff1660e01b815260040160206040518083038186803b158015620005b057600080fd5b505afa158015620005c5573d6000803e3d6000fd5b505050506040513d601f19601f82011682018060405250810190620005eb91906200106a565b60028111156200060057620005ff6200160b565b5b14156200067d578073ffffffffffffffffffffffffffffffffffffffff1663293be45660006040518263ffffffff1660e01b815260040162000643919062001360565b600060405180830381600087803b1580156200065e57600080fd5b505af115801562000673573d6000803e3d6000fd5b505050506200093d565b60008173ffffffffffffffffffffffffffffffffffffffff1663dfbf53ae6040518163ffffffff1660e01b815260040160206040518083038186803b158015620006c657600080fd5b505afa158015620006db573d6000803e3d6000fd5b505050506040513d601f19601f820116820180604052508101906200070191906200109c565b905060008273ffffffffffffffffffffffffffffffffffffffff1663e82898b36040518163ffffffff1660e01b815260040160206040518083038186803b1580156200074c57600080fd5b505afa15801562000761573d6000803e3d6000fd5b505050506040513d601f19601f820116820180604052508101906200078791906200109c565b905060008373ffffffffffffffffffffffffffffffffffffffff16633da140a1836040518263ffffffff1660e01b8152600401620007c6919062001343565b60206040518083038186803b158015620007df57600080fd5b505afa158015620007f4573d6000803e3d6000fd5b505050506040513d601f19601f820116820180604052508101906200081a9190620011a4565b905060008473ffffffffffffffffffffffffffffffffffffffff1663e9771986856040518263ffffffff1660e01b815260040162000859919062001343565b60206040518083038186803b1580156200087257600080fd5b505afa15801562000887573d6000803e3d6000fd5b505050506040513d601f19601f82011682018060405250810190620008ad9190620011a4565b90506000620008c6828462000e9690919063ffffffff16565b90508573ffffffffffffffffffffffffffffffffffffffff1663293be456826040518263ffffffff1660e01b8152600401620009039190620013e3565b600060405180830381600087803b1580156200091e57600080fd5b505af115801562000933573d6000803e3d6000fd5b5050505050505050505b5050565b6200094b62000e8e565b73ffffffffffffffffffffffffffffffffffffffff166200096b62000c20565b73ffffffffffffffffffffffffffffffffffffffff1614620009c4576040517f08c379a0000000000000000000000000000000000000000000000000000000008152600401620009bb90620013c1565b60405180910390fd5b60006001600083815260200190815260200160002060009054906101000a900473ffffffffffffffffffffffffffffffffffffffff16905060018081111562000a125762000a116200160b565b5b8173ffffffffffffffffffffffffffffffffffffffff1663c19d93fb6040518163ffffffff1660e01b815260040160206040518083038186803b15801562000a5957600080fd5b505afa15801562000a6e573d6000803e3d6000fd5b505050506040513d601f19601f8201168201806040525081019062000a949190620010ce565b600181111562000aa95762000aa86200160b565b5b1462000aec576040517f08c379a000000000000000000000000000000000000000000000000000000000815260040162000ae3906200137d565b60405180910390fd5b8073ffffffffffffffffffffffffffffffffffffffff166395cb1b1e6040518163ffffffff1660e01b8152600401600060405180830381600087803b15801562000b3557600080fd5b505af115801562000b4a573d6000803e3d6000fd5b505050505050565b600060016000600354815260200190815260200160002060009054906101000a900473ffffffffffffffffffffffffffffffffffffffff16905090565b62000b9962000e8e565b73ffffffffffffffffffffffffffffffffffffffff1662000bb962000c20565b73ffffffffffffffffffffffffffffffffffffffff161462000c12576040517f08c379a000000000000000000000000000000000000000000000000000000000815260040162000c0990620013c1565b60405180910390fd5b62000c1e600062000eae565b565b60008060009054906101000a900473ffffffffffffffffffffffffffffffffffffffff16905090565b62000c5362000e8e565b73ffffffffffffffffffffffffffffffffffffffff1662000c7362000c20565b73ffffffffffffffffffffffffffffffffffffffff161462000ccc576040517f08c379a000000000000000000000000000000000000000000000000000000000815260040162000cc390620013c1565b60405180910390fd5b6003600081548092919062000ce1906200155f565b91905055506000600354858585853060405162000cfe9062000f72565b62000d0f9695949392919062001400565b604051809103906000f08015801562000d2c573d6000803e3d6000fd5b5090508060016000600354815260200190815260200160002060006101000a81548173ffffffffffffffffffffffffffffffffffffffff021916908373ffffffffffffffffffffffffffffffffffffffff1602179055505050505050565b62000d9462000e8e565b73ffffffffffffffffffffffffffffffffffffffff1662000db462000c20565b73ffffffffffffffffffffffffffffffffffffffff161462000e0d576040517f08c379a000000000000000000000000000000000000000000000000000000000815260040162000e0490620013c1565b60405180910390fd5b600073ffffffffffffffffffffffffffffffffffffffff168173ffffffffffffffffffffffffffffffffffffffff16141562000e80576040517f08c379a000000000000000000000000000000000000000000000000000000000815260040162000e77906200139f565b60405180910390fd5b62000e8b8162000eae565b50565b600033905090565b6000818362000ea691906200147e565b905092915050565b60008060009054906101000a900473ffffffffffffffffffffffffffffffffffffffff169050816000806101000a81548173ffffffffffffffffffffffffffffffffffffffff021916908373ffffffffffffffffffffffffffffffffffffffff1602179055508173ffffffffffffffffffffffffffffffffffffffff168173ffffffffffffffffffffffffffffffffffffffff167f8be0079c531659141344cd1fd0a4f28419497f9722a3daafe3b4186f6b6457e060405160405180910390a35050565b612f0180620017b983390190565b60008135905062000f91816200171d565b92915050565b60008135905062000fa88162001737565b92915050565b60008151905062000fbf8162001751565b92915050565b60008151905062000fd68162001762565b92915050565b60008151905062000fed8162001773565b92915050565b600081359050620010048162001784565b92915050565b6000813590506200101b816200179e565b92915050565b60008151905062001032816200179e565b92915050565b6000602082840312156200105157620010506200163a565b5b6000620010618482850162000f80565b91505092915050565b6000602082840312156200108357620010826200163a565b5b6000620010938482850162000fae565b91505092915050565b600060208284031215620010b557620010b46200163a565b5b6000620010c58482850162000fc5565b91505092915050565b600060208284031215620010e757620010e66200163a565b5b6000620010f78482850162000fdc565b91505092915050565b600080600080608085870312156200111d576200111c6200163a565b5b60006200112d8782880162000ff3565b945050602062001140878288016200100a565b935050604062001153878288016200100a565b925050606062001166878288016200100a565b91505092959194509250565b6000602082840312156200118b576200118a6200163a565b5b60006200119b848285016200100a565b91505092915050565b600060208284031215620011bd57620011bc6200163a565b5b6000620011cd8482850162001021565b91505092915050565b60008060408385031215620011f057620011ef6200163a565b5b600062001200858286016200100a565b9250506020620012138582860162000f97565b9150509250929050565b6200122881620014ca565b82525050565b6200123981620014b6565b82525050565b6200124a81620014de565b82525050565b6200125b8162001537565b82525050565b6200126c816200154b565b82525050565b6000620012816025836200146d565b91506200128e826200163f565b604082019050919050565b6000620012a86026836200146d565b9150620012b5826200168e565b604082019050919050565b6000620012cf6020836200146d565b9150620012dc82620016dd565b602082019050919050565b620012f281620014ff565b82525050565b62001303816200152d565b82525050565b60006020820190506200132060008301846200122e565b92915050565b60006020820190506200133d60008301846200123f565b92915050565b60006020820190506200135a600083018462001250565b92915050565b600060208201905062001377600083018462001261565b92915050565b60006020820190508181036000830152620013988162001272565b9050919050565b60006020820190508181036000830152620013ba8162001299565b9050919050565b60006020820190508181036000830152620013dc81620012c0565b9050919050565b6000602082019050620013fa6000830184620012f8565b92915050565b600060c082019050620014176000830189620012f8565b620014266020830188620012e7565b620014356040830187620012f8565b620014446060830186620012f8565b620014536080830185620012f8565b6200146260a08301846200121d565b979650505050505050565b600082825260208201905092915050565b60006200148b826200152d565b915062001498836200152d565b925082620014ab57620014aa620015dc565b5b828204905092915050565b6000620014c3826200150d565b9050919050565b6000620014d7826200150d565b9050919050565b60008115159050919050565b6000819050620014fa8262001706565b919050565b600061ffff82169050919050565b600073ffffffffffffffffffffffffffffffffffffffff82169050919050565b6000819050919050565b60006200154482620014ea565b9050919050565b600062001558826200152d565b9050919050565b60006200156c826200152d565b91507fffffffffffffffffffffffffffffffffffffffffffffffffffffffffffffffff821415620015a257620015a1620015ad565b5b600182019050919050565b7f4e487b7100000000000000000000000000000000000000000000000000000000600052601160045260246000fd5b7f4e487b7100000000000000000000000000000000000000000000000000000000600052601260045260246000fd5b7f4e487b7100000000000000000000000000000000000000000000000000000000600052602160045260246000fd5b600080fd5b7f4368657373466163746f72793a2047616d6520686173206e6f7420656e64656460008201527f2079657421000000000000000000000000000000000000000000000000000000602082015250565b7f4f776e61626c653a206e6577206f776e657220697320746865207a65726f206160008201527f6464726573730000000000000000000000000000000000000000000000000000602082015250565b7f4f776e61626c653a2063616c6c6572206973206e6f7420746865206f776e6572600082015250565b600381106200171a57620017196200160b565b5b50565b6200172881620014b6565b81146200173457600080fd5b50565b6200174281620014de565b81146200174e57600080fd5b50565b600381106200175f57600080fd5b50565b600381106200177057600080fd5b50565b600281106200178157600080fd5b50565b6200178f81620014ff565b81146200179b57600080fd5b50565b620017a9816200152d565b8114620017b557600080fd5b5056fe60806040526000600660006101000a81548161ffff021916908361ffff1602179055506001600660166101000a81548160ff021916908360028111156200004b576200004a620002ed565b5b02179055506000600660176101000a81548160ff02191690836002811115620000795762000078620002ed565b5b02179055506000600660186101000a81548160ff02191690836002811115620000a757620000a6620002ed565b5b02179055506000600660196101000a81548160ff02191690836001811115620000d557620000d4620002ed565b5b021790555060006006601a6101000a81548160ff02191690836002811115620001035762000102620002ed565b5b02179055503480156200011557600080fd5b5060405162002f0138038062002f0183398181016040528101906200013b919062000205565b85600181905550846000806101000a81548161ffff021916908361ffff16021790555083600381905550826004819055508160058190555080600660026101000a81548173ffffffffffffffffffffffffffffffffffffffff021916908373ffffffffffffffffffffffffffffffffffffffff1602179055505050505050506200036f565b600081519050620001d18162000321565b92915050565b600081519050620001e8816200033b565b92915050565b600081519050620001ff8162000355565b92915050565b60008060008060008060c087890312156200022557620002246200031c565b5b60006200023589828a01620001ee565b96505060206200024889828a01620001d7565b95505060406200025b89828a01620001ee565b94505060606200026e89828a01620001ee565b93505060806200028189828a01620001ee565b92505060a06200029489828a01620001c0565b9150509295509295509295565b6000620002ae82620002c3565b9050919050565b600061ffff82169050919050565b600073ffffffffffffffffffffffffffffffffffffffff82169050919050565b6000819050919050565b7f4e487b7100000000000000000000000000000000000000000000000000000000600052602160045260246000fd5b600080fd5b6200032c81620002a1565b81146200033857600080fd5b50565b6200034681620002b5565b81146200035257600080fd5b50565b6200036081620002e3565b81146200036c57600080fd5b50565b612b82806200037f6000396000f3fe6080604052600436106101ba5760003560e01c80638b299903116100ec578063c19d93fb1161008a578063dfbf53ae11610064578063dfbf53ae14610620578063e82898b31461064b578063e977198614610676578063fdcdb06b146106b3576101c1565b8063c19d93fb146105a1578063ce69cd20146105cc578063d9ec4752146105f7576101c1565b8063aa4bc48d116100c6578063aa4bc48d146104e3578063ae29610214610520578063aff814cf1461054b578063b3296a1314610576576101c1565b80638b2999031461046457806395cb1b1e1461048f578063a5334766146104a6576101c1565b80633ee5d95e116101595780635200eebe116101335780635200eebe146103c95780635763dbd0146103e55780636bb34c511461040e57806371ddaf0114610439576101c1565b80633ee5d95e146103365780634d91e1f7146103735780634f71aff41461039e576101c1565b80631d1e820a116101955780631d1e820a14610268578063201c0b2914610293578063293be456146102d05780633da140a1146102f9576101c1565b8062b33a7a146101c3578063024a6a41146102005780630ab9581f1461023d576101c1565b366101c157005b005b3480156101cf57600080fd5b506101ea60048036038101906101e59190611ee8565b6106de565b6040516101f79190612219565b60405180910390f35b34801561020c57600080fd5b5061022760048036038101906102229190611d7b565b6106fe565b6040516102349190612425565b60405180910390f35b34801561024957600080fd5b50610252610745565b60405161025f91906121fe565b60405180910390f35b34801561027457600080fd5b5061027d610758565b60405161028a91906121fe565b60405180910390f35b34801561029f57600080fd5b506102ba60048036038101906102b59190611d21565b61076b565b6040516102c7919061224f565b60405180910390f35b3480156102dc57600080fd5b506102f760048036038101906102f29190611f15565b61078b565b005b34801561030557600080fd5b50610320600480360381019061031b9190611e3b565b610840565b60405161032d9190612440565b60405180910390f35b34801561034257600080fd5b5061035d60048036038101906103589190611e68565b610858565b60405161036a9190612440565b60405180910390f35b34801561037f57600080fd5b5061038861087d565b6040516103959190612440565b60405180910390f35b3480156103aa57600080fd5b506103b3610883565b6040516103c09190612425565b60405180910390f35b6103e360048036038101906103de9190611de8565b610895565b005b3480156103f157600080fd5b5061040c60048036038101906104079190611d4e565b61107b565b005b34801561041a57600080fd5b506104236113a3565b6040516104309190612425565b60405180910390f35b34801561044557600080fd5b5061044e6113b7565b60405161045b9190612425565b60405180910390f35b34801561047057600080fd5b50610479611401565b604051610486919061224f565b60405180910390f35b34801561049b57600080fd5b506104a4611414565b005b3480156104b257600080fd5b506104cd60048036038101906104c89190611ea8565b6116d6565b6040516104da91906121c8565b60405180910390f35b3480156104ef57600080fd5b5061050a60048036038101906105059190611e3b565b611724565b6040516105179190612440565b60405180910390f35b34801561052c57600080fd5b5061053561173c565b6040516105429190612440565b60405180910390f35b34801561055757600080fd5b50610560611742565b60405161056d9190612234565b60405180910390f35b34801561058257600080fd5b5061058b611755565b60405161059891906121e3565b60405180910390f35b3480156105ad57600080fd5b506105b661177b565b6040516105c3919061226a565b60405180910390f35b3480156105d857600080fd5b506105e161178e565b6040516105ee9190612440565b60405180910390f35b34801561060357600080fd5b5061061e60048036038101906106199190611dbb565b611794565b005b34801561062c57600080fd5b50610635611841565b604051610642919061224f565b60405180910390f35b34801561065757600080fd5b50610660611854565b60405161066d919061224f565b60405180910390f35b34801561068257600080fd5b5061069d60048036038101906106989190611e3b565b611867565b6040516106aa9190612440565b60405180910390f35b3480156106bf57600080fd5b506106c861191d565b6040516106d59190612440565b60405180910390f35b60096020528060005260406000206000915054906101000a900460c01b81565b6008602052816000526040600020818154811061071a57600080fd5b9060005260206000209060109182820401919006600202915091509054906101000a900461ffff1681565b600060029054906101000a900460ff1681565b600060039054906101000a900460ff1681565b60076020528060005260406000206000915054906101000a900460ff1681565b600660029054906101000a900473ffffffffffffffffffffffffffffffffffffffff1673ffffffffffffffffffffffffffffffffffffffff163373ffffffffffffffffffffffffffffffffffffffff161461081b576040517f08c379a000000000000000000000000000000000000000000000000000000000815260040161081290612345565b60405180910390fd5b6001600060036101000a81548160ff0219169083151502179055508060028190555050565b600a6020528060005260406000206000915090505481565b600d602052816000526040600020602052806000526040600020600091509150505481565b60055481565b60008054906101000a900461ffff1681565b600060018111156108a9576108a86126e1565b5b600660199054906101000a900460ff1660018111156108cb576108ca6126e1565b5b1461090b576040517f08c379a0000000000000000000000000000000000000000000000000000000008152600401610902906122a5565b60405180910390fd5b60035434148061091c575060045434145b80610928575060055434145b610967576040517f08c379a000000000000000000000000000000000000000000000000000000000815260040161095e90612285565b60405180910390fd5b816000600860003373ffffffffffffffffffffffffffffffffffffffff1673ffffffffffffffffffffffffffffffffffffffff168152602001908152602001600020805490501115610a6a578060028111156109c6576109c56126e1565b5b600760003373ffffffffffffffffffffffffffffffffffffffff1673ffffffffffffffffffffffffffffffffffffffff16815260200190815260200160002060009054906101000a900460ff166002811115610a2557610a246126e1565b5b14610a65576040517f08c379a0000000000000000000000000000000000000000000000000000000008152600401610a5c906123e5565b60405180910390fd5b610bb7565b80600760003373ffffffffffffffffffffffffffffffffffffffff1673ffffffffffffffffffffffffffffffffffffffff16815260200190815260200160002060006101000a81548160ff02191690836002811115610acc57610acb6126e1565b5b0217905550600b6000826002811115610ae857610ae76126e1565b5b6002811115610afa57610af96126e1565b5b8152602001908152602001600020339080600181540180825580915050600190039060005260206000200160009091909190916101000a81548173ffffffffffffffffffffffffffffffffffffffff021916908373ffffffffffffffffffffffffffffffffffffffff160217905550600c6000826002811115610b8057610b7f6126e1565b5b6002811115610b9257610b916126e1565b5b81526020019081526020016000206000815480929190610bb190612669565b91905055505b82600660169054906101000a900460ff166002811115610bda57610bd96126e1565b5b816002811115610bed57610bec6126e1565b5b14610c2d576040517f08c379a0000000000000000000000000000000000000000000000000000000008152600401610c24906123c5565b60405180910390fd5b60008054906101000a900461ffff1661ffff16610c486113b7565b61ffff1610610c8c576040517f08c379a0000000000000000000000000000000000000000000000000000000008152600401610c83906122c5565b60405180910390fd5b6006600081819054906101000a900461ffff1680929190610cac9061263e565b91906101000a81548161ffff021916908361ffff1602179055505034600d6000866002811115610cdf57610cde6126e1565b5b6002811115610cf157610cf06126e1565b5b815260200190815260200160002060003373ffffffffffffffffffffffffffffffffffffffff1673ffffffffffffffffffffffffffffffffffffffff1681526020019081526020016000206000828254610d4b91906124e5565b9250508190555034600a6000866002811115610d6a57610d696126e1565b5b6002811115610d7c57610d7b6126e1565b5b81526020019081526020016000206000828254610d9991906124e5565b925050819055508260096000600660009054906101000a900461ffff1661ffff1661ffff16815260200190815260200160002060006101000a81548167ffffffffffffffff021916908360c01c0217905550600860003373ffffffffffffffffffffffffffffffffffffffff1673ffffffffffffffffffffffffffffffffffffffff168152602001908152602001600020600660009054906101000a900461ffff1690806001815401808255809150506001900390600052602060002090601091828204019190066002029091909190916101000a81548161ffff021916908361ffff16021790555060006002811115610e9657610e956126e1565b5b856002811115610ea957610ea86126e1565b5b1415610ee657610eb884611923565b600660166101000a81548160ff02191690836002811115610edc57610edb6126e1565b5b0217905550611074565b846006601a6101000a81548160ff02191690836002811115610f0b57610f0a6126e1565b5b02179055506001600660196101000a81548160ff02191690836001811115610f3657610f356126e1565b5b021790555060016002811115610f4f57610f4e6126e1565b5b856002811115610f6257610f616126e1565b5b1415610fc55783600660176101000a81548160ff02191690836002811115610f8d57610f8c6126e1565b5b0217905550610f9b84611923565b600660186101000a81548160ff02191690836002811115610fbf57610fbe6126e1565b5b02179055505b7fce35a41dee90120f02660313906304c1ed2b5ad97be56befe172e53e6c837a7560015485600a6000600280811115611001576110006126e1565b5b6002811115611013576110126126e1565b5b815260200190815260200160002054600a60006001600281111561103a576110396126e1565b5b600281111561104c5761104b6126e1565b5b81526020019081526020016000205460405161106b9493929190612484565b60405180910390a15b5050505050565b60011515600060029054906101000a900460ff161515146110d1576040517f08c379a00000000000000000000000000000000000000000000000000000000081526004016110c8906123a5565b60405180910390fd5b6002808111156110e4576110e36126e1565b5b600760003373ffffffffffffffffffffffffffffffffffffffff1673ffffffffffffffffffffffffffffffffffffffff16815260200190815260200160002060009054906101000a900460ff166002811115611143576111426126e1565b5b14806111bf57506001600281111561115e5761115d6126e1565b5b600760003373ffffffffffffffffffffffffffffffffffffffff1673ffffffffffffffffffffffffffffffffffffffff16815260200190815260200160002060009054906101000a900460ff1660028111156111bd576111bc6126e1565b5b145b6111fe576040517f08c379a00000000000000000000000000000000000000000000000000000000081526004016111f590612385565b60405180910390fd5b6000600760008373ffffffffffffffffffffffffffffffffffffffff1673ffffffffffffffffffffffffffffffffffffffff16815260200190815260200160002060009054906101000a900460ff169050600660179054906101000a900460ff166002811115611271576112706126e1565b5b816002811115611284576112836126e1565b5b14806112c2575060028081111561129e5761129d6126e1565b5b6006601a9054906101000a900460ff1660028111156112c0576112bf6126e1565b5b145b611301576040517f08c379a00000000000000000000000000000000000000000000000000000000081526004016112f890612325565b60405180910390fd5b6000600d600083600281111561131a576113196126e1565b5b600281111561132c5761132b6126e1565b5b815260200190815260200160002060008473ffffffffffffffffffffffffffffffffffffffff1673ffffffffffffffffffffffffffffffffffffffff16815260200190815260200160002054905060006113918260025461196490919063ffffffff16565b905061139d848261197a565b50505050565b600660009054906101000a900461ffff1681565b6000600860003373ffffffffffffffffffffffffffffffffffffffff1673ffffffffffffffffffffffffffffffffffffffff16815260200190815260200160002080549050905090565b600660169054906101000a900460ff1681565b600180811115611427576114266126e1565b5b600660199054906101000a900460ff166001811115611449576114486126e1565b5b14611489576040517f08c379a000000000000000000000000000000000000000000000000000000000815260040161148090612405565b60405180910390fd5b600660029054906101000a900473ffffffffffffffffffffffffffffffffffffffff1673ffffffffffffffffffffffffffffffffffffffff163373ffffffffffffffffffffffffffffffffffffffff1614611519576040517f08c379a000000000000000000000000000000000000000000000000000000000815260040161151090612345565b60405180910390fd5b600060039054906101000a900460ff16611568576040517f08c379a000000000000000000000000000000000000000000000000000000000815260040161155f90612365565b60405180910390fd5b60028081111561157b5761157a6126e1565b5b6006601a9054906101000a900460ff16600281111561159d5761159c6126e1565b5b1415611634576115ad6002611a6e565b7fa063b25e86b685025877e8288a7c25aaa1111ff0242b4fd0fa8c78c7dcd5cd9760015460026040516115e192919061245b565b60405180910390a16115f36001611a6e565b7fa063b25e86b685025877e8288a7c25aaa1111ff0242b4fd0fa8c78c7dcd5cd97600154600260405161162792919061245b565b60405180910390a16116d4565b60016002811115611648576116476126e1565b5b6006601a9054906101000a900460ff16600281111561166a576116696126e1565b5b14156116d357611688600660179054906101000a900460ff16611a6e565b7fa063b25e86b685025877e8288a7c25aaa1111ff0242b4fd0fa8c78c7dcd5cd97600154600660179054906101000a900460ff166040516116ca92919061245b565b60405180910390a15b5b565b600b60205281600052604060002081815481106116f257600080fd5b906000526020600020016000915091509054906101000a900473ffffffffffffffffffffffffffffffffffffffff1681565b600c6020528060005260406000206000915090505481565b60045481565b6006601a9054906101000a900460ff1681565b600660029054906101000a900473ffffffffffffffffffffffffffffffffffffffff1681565b600660199054906101000a900460ff1681565b60035481565b600660029054906101000a900473ffffffffffffffffffffffffffffffffffffffff1673ffffffffffffffffffffffffffffffffffffffff163373ffffffffffffffffffffffffffffffffffffffff1614611824576040517f08c379a000000000000000000000000000000000000000000000000000000000815260040161181b90612345565b60405180910390fd5b80600060026101000a81548160ff02191690831515021790555050565b600660179054906101000a900460ff1681565b600660189054906101000a900460ff1681565b600060018081111561187c5761187b6126e1565b5b600660199054906101000a900460ff16600181111561189e5761189d6126e1565b5b146118de576040517f08c379a00000000000000000000000000000000000000000000000000000000081526004016118d590612405565b60405180910390fd5b600c60008360028111156118f5576118f46126e1565b5b6002811115611907576119066126e1565b5b8152602001908152602001600020549050919050565b60015481565b6000600280811115611938576119376126e1565b5b82600281111561194b5761194a6126e1565b5b141561195a576001905061195f565b600290505b919050565b6000818361197291906124e5565b905092915050565b804710156119bd576040517f08c379a00000000000000000000000000000000000000000000000000000000081526004016119b490612305565b60405180910390fd5b60008273ffffffffffffffffffffffffffffffffffffffff16826040516119e3906121b3565b60006040518083038185875af1925050503d8060008114611a20576040519150601f19603f3d011682016040523d82523d6000602084013e611a25565b606091505b5050905080611a69576040517f08c379a0000000000000000000000000000000000000000000000000000000008152600401611a60906122e5565b60405180910390fd5b505050565b600180811115611a8157611a806126e1565b5b600660199054906101000a900460ff166001811115611aa357611aa26126e1565b5b14611ae3576040517f08c379a0000000000000000000000000000000000000000000000000000000008152600401611ada90612405565b60405180910390fd5b600060039054906101000a900460ff16611b32576040517f08c379a0000000000000000000000000000000000000000000000000000000008152600401611b2990612365565b60405180910390fd5b6000611b3d82611867565b905060005b81811015611c74576000600b6000856002811115611b6357611b626126e1565b5b6002811115611b7557611b746126e1565b5b81526020019081526020016000208281548110611b9557611b94612710565b5b9060005260206000200160009054906101000a900473ffffffffffffffffffffffffffffffffffffffff1690506000600d6000866002811115611bdb57611bda6126e1565b5b6002811115611bed57611bec6126e1565b5b815260200190815260200160002060008373ffffffffffffffffffffffffffffffffffffffff1673ffffffffffffffffffffffffffffffffffffffff1681526020019081526020016000205490506000611c528260025461196490919063ffffffff16565b9050611c5e838261197a565b5050508080611c6c90612669565b915050611b42565b505050565b600081359050611c8881612aa2565b92915050565b600081359050611c9d81612ab9565b92915050565b600081359050611cb281612ad0565b92915050565b600081359050611cc781612ae7565b92915050565b600081359050611cdc81612afe565b92915050565b600081359050611cf181612b0e565b92915050565b600081359050611d0681612b1e565b92915050565b600081359050611d1b81612b35565b92915050565b600060208284031215611d3757611d3661273f565b5b6000611d4584828501611c79565b91505092915050565b600060208284031215611d6457611d6361273f565b5b6000611d7284828501611c8e565b91505092915050565b60008060408385031215611d9257611d9161273f565b5b6000611da085828601611c79565b9250506020611db185828601611d0c565b9150509250929050565b600060208284031215611dd157611dd061273f565b5b6000611ddf84828501611ca3565b91505092915050565b600080600060608486031215611e0157611e0061273f565b5b6000611e0f86828701611ccd565b9350506020611e2086828701611ce2565b9250506040611e3186828701611cb8565b9150509250925092565b600060208284031215611e5157611e5061273f565b5b6000611e5f84828501611ce2565b91505092915050565b60008060408385031215611e7f57611e7e61273f565b5b6000611e8d85828601611ce2565b9250506020611e9e85828601611c79565b9150509250929050565b60008060408385031215611ebf57611ebe61273f565b5b6000611ecd85828601611ce2565b9250506020611ede85828601611d0c565b9150509250929050565b600060208284031215611efe57611efd61273f565b5b6000611f0c84828501611cf7565b91505092915050565b600060208284031215611f2b57611f2a61273f565b5b6000611f3984828501611d0c565b91505092915050565b611f4b8161254d565b82525050565b611f5a8161253b565b82525050565b611f698161255f565b82525050565b611f788161256b565b82525050565b611f8781612608565b82525050565b611f968161261a565b82525050565b611fa58161262c565b82525050565b6000611fb86017836124d4565b9150611fc382612744565b602082019050919050565b6000611fdb6016836124d4565b9150611fe68261276d565b602082019050919050565b6000611ffe602b836124d4565b915061200982612796565b604082019050919050565b6000612021603a836124d4565b915061202c826127e5565b604082019050919050565b6000612044601d836124d4565b915061204f82612834565b602082019050919050565b6000612067601b836124d4565b91506120728261285d565b602082019050919050565b600061208a6034836124d4565b915061209582612886565b604082019050919050565b60006120ad6023836124d4565b91506120b8826128d5565b604082019050919050565b60006120d06029836124d4565b91506120db82612924565b604082019050919050565b60006120f36000836124c9565b91506120fe82612973565b600082019050919050565b60006121166032836124d4565b915061212182612976565b604082019050919050565b60006121396019836124d4565b9150612144826129c5565b602082019050919050565b600061215c6023836124d4565b9150612167826129ee565b604082019050919050565b600061217f601c836124d4565b915061218a82612a3d565b602082019050919050565b61219e816125d0565b82525050565b6121ad816125fe565b82525050565b60006121be826120e6565b9150819050919050565b60006020820190506121dd6000830184611f51565b92915050565b60006020820190506121f86000830184611f42565b92915050565b60006020820190506122136000830184611f60565b92915050565b600060208201905061222e6000830184611f6f565b92915050565b60006020820190506122496000830184611f7e565b92915050565b60006020820190506122646000830184611f8d565b92915050565b600060208201905061227f6000830184611f9c565b92915050565b6000602082019050818103600083015261229e81611fab565b9050919050565b600060208201905081810360008301526122be81611fce565b9050919050565b600060208201905081810360008301526122de81611ff1565b9050919050565b600060208201905081810360008301526122fe81612014565b9050919050565b6000602082019050818103600083015261231e81612037565b9050919050565b6000602082019050818103600083015261233e8161205a565b9050919050565b6000602082019050818103600083015261235e8161207d565b9050919050565b6000602082019050818103600083015261237e816120a0565b9050919050565b6000602082019050818103600083015261239e816120c3565b9050919050565b600060208201905081810360008301526123be81612109565b9050919050565b600060208201905081810360008301526123de8161212c565b9050919050565b600060208201905081810360008301526123fe8161214f565b9050919050565b6000602082019050818103600083015261241e81612172565b9050919050565b600060208201905061243a6000830184612195565b92915050565b600060208201905061245560008301846121a4565b92915050565b600060408201905061247060008301856121a4565b61247d6020830184611f8d565b9392505050565b600060808201905061249960008301876121a4565b6124a66020830186611f8d565b6124b360408301856121a4565b6124c060608301846121a4565b95945050505050565b600081905092915050565b600082825260208201905092915050565b60006124f0826125fe565b91506124fb836125fe565b9250827fffffffffffffffffffffffffffffffffffffffffffffffffffffffffffffffff038211156125305761252f6126b2565b5b828201905092915050565b6000612546826125de565b9050919050565b6000612558826125de565b9050919050565b60008115159050919050565b60007fffffffffffffffff00000000000000000000000000000000000000000000000082169050919050565b60008190506125a582612a66565b919050565b60008190506125b882612a7a565b919050565b60008190506125cb82612a8e565b919050565b600061ffff82169050919050565b600073ffffffffffffffffffffffffffffffffffffffff82169050919050565b6000819050919050565b600061261382612597565b9050919050565b6000612625826125aa565b9050919050565b6000612637826125bd565b9050919050565b6000612649826125d0565b915061ffff82141561265e5761265d6126b2565b5b600182019050919050565b6000612674826125fe565b91507fffffffffffffffffffffffffffffffffffffffffffffffffffffffffffffffff8214156126a7576126a66126b2565b5b600182019050919050565b7f4e487b7100000000000000000000000000000000000000000000000000000000600052601160045260246000fd5b7f4e487b7100000000000000000000000000000000000000000000000000000000600052602160045260246000fd5b7f4e487b7100000000000000000000000000000000000000000000000000000000600052603260045260246000fd5b600080fd5b7f436865737347616d653a20496e76616c69642042696421000000000000000000600082015250565b7f436865737347616d653a2047616d6520656e6465642100000000000000000000600082015250565b7f436865737347616d653a20596f75206861766520706c61796564206d6178696d60008201527f756d206368616e63657321000000000000000000000000000000000000000000602082015250565b7f416464726573733a20756e61626c6520746f2073656e642076616c75652c207260008201527f6563697069656e74206d61792068617665207265766572746564000000000000602082015250565b7f416464726573733a20696e73756666696369656e742062616c616e6365000000600082015250565b7f436865737347616d653a20596f7520646964206e6f742077696e210000000000600082015250565b7f436865737347616d653a204f6e6c79204368657373466163746f72792063616e60008201527f2063616c6c20746869732066756e6374696f6e21000000000000000000000000602082015250565b7f436865737347616d653a2052657761726420686173206e6f74206265656e207360008201527f6574210000000000000000000000000000000000000000000000000000000000602082015250565b7f436865737347616d653a20596f752068617665206e6f7420706c61796564207460008201527f6869732047616d65210000000000000000000000000000000000000000000000602082015250565b50565b7f436865737347616d653a2047616d6520696e2070726f67726573732e2057616960008201527f7420666f722067616d6520746f20656e64210000000000000000000000000000602082015250565b7f436865737347616d653a204e6f7420796f7572207475726e2100000000000000600082015250565b7f436865737347616d653a20596f752063616e6e6f74206368616e67652073696460008201527f6573210000000000000000000000000000000000000000000000000000000000602082015250565b7f436865737347616d653a2047616d6520696e2050726f67726573732100000000600082015250565b60038110612a7757612a766126e1565b5b50565b60038110612a8b57612a8a6126e1565b5b50565b60028110612a9f57612a9e6126e1565b5b50565b612aab8161253b565b8114612ab657600080fd5b50565b612ac28161254d565b8114612acd57600080fd5b50565b612ad98161255f565b8114612ae457600080fd5b50565b612af08161256b565b8114612afb57600080fd5b50565b60038110612b0b57600080fd5b50565b60038110612b1b57600080fd5b50565b612b27816125d0565b8114612b3257600080fd5b50565b612b3e816125fe565b8114612b4957600080fd5b5056fea264697066735822122011c51d2991dad16319182f7dff4cbf2ef21b8605e54f308e6a3f4af24b5dd31164736f6c63430008060033a26469706673582212203ba53da9ed0a6939ba76779db8d4bad9169e9161af5d4f36ff80d51485de49fd64736f6c63430008060033",
  "immutableReferences": {},
  "source": "//SPDX-License-Identifier: RahulPanchal-15\r\npragma solidity ^0.8.4;\r\n\r\nimport \"@openzeppelin/contracts/access/Ownable.sol\";\r\nimport \"@openzeppelin/contracts/utils/math/SafeMath.sol\";\r\nimport \"./ChessGame.sol\";\r\n\r\ncontract ChessFactory is Ownable {\r\n    using SafeMath for uint256;\r\n    mapping(uint256 => ChessGame) games;\r\n    mapping(uint256 => uint256) collection;\r\n    uint256 totalGames = 0;\r\n\r\n    function createGame(\r\n        uint16 _maxChances,\r\n        uint256 _minBid,\r\n        uint256 _mediumBid,\r\n        uint256 _maxBid\r\n    ) public onlyOwner {\r\n        totalGames++;\r\n        ChessGame game = new ChessGame(\r\n            totalGames,\r\n            _maxChances,\r\n            _minBid,\r\n            _mediumBid,\r\n            _maxBid,\r\n            payable(address(this))\r\n        );\r\n        games[totalGames] = game;\r\n    }\r\n\r\n    function getLatestGame() public view returns (address) {\r\n        return address(games[totalGames]);\r\n    }\r\n\r\n    function setRewardFor(uint256 _gameID) public onlyOwner {\r\n        ChessGame game = games[_gameID];\r\n        require(\r\n            game.state() == ChessGame.State.Ended,\r\n            \"ChessFactory: Game has not ended yet!\"\r\n        );\r\n        if (game.GAME_RESULT() == ChessGame.Result.Draw) {\r\n            game.setReward(0);\r\n        } else {\r\n            ChessGame.Sides winner = game.winner();\r\n            ChessGame.Sides loser = game.loser();\r\n            uint256 loserPool = game.pool(loser);\r\n            uint256 nWinners = game.getNumberOfPlayers(winner);\r\n            uint256 reward = loserPool.div(nWinners);\r\n            game.setReward(reward);\r\n        }\r\n    }\r\n\r\n    function setEscrowStatus(uint256 _gameId, bool _status) public onlyOwner {\r\n        ChessGame game = games[_gameId];\r\n        require(\r\n            game.state() == ChessGame.State.Ended,\r\n            \"ChessFactory: Game has not ended yet!\"\r\n        );\r\n        game.openEscrow(_status);\r\n    }\r\n\r\n    function rewardWinners(uint256 _gameId) public onlyOwner {\r\n        ChessGame game = games[_gameId];\r\n        require(\r\n            game.state() == ChessGame.State.Ended,\r\n            \"ChessFactory: Game has not ended yet!\"\r\n        );\r\n        game.sendRewards();\r\n    }\r\n}\r\n",
  "sourcePath": "C:/Users/naresh panchal/blockC/bidding-chess/contracts/ChessFactory.sol",
  "compiler": {
    "name": "solc",
    "version": "0.8.6+commit.11564f7e.Emscripten.clang"
  },
  "schemaVersion": "3.4.1",
  "updatedAt": "2021-07-12T17:55:30.950Z",
  "devdoc": {
    "kind": "dev",
    "methods": {
      "owner()": {
        "details": "Returns the address of the current owner."
      },
      "renounceOwnership()": {
        "details": "Leaves the contract without owner. It will not be possible to call `onlyOwner` functions anymore. Can only be called by the current owner. NOTE: Renouncing ownership will leave the contract without an owner, thereby removing any functionality that is only available to the owner."
      },
      "transferOwnership(address)": {
        "details": "Transfers ownership of the contract to a new account (`newOwner`). Can only be called by the current owner."
      }
    },
    "version": 1
  },
  "userdoc": {
    "kind": "user",
    "methods": {},
    "version": 1
  }
}