{
  "contractName": "ChessFactory",
  "abi": [
    {
      "inputs": [
        {
          "internalType": "contract IERC20Burnable",
          "name": "_ubiquito",
          "type": "address"
        },
        {
          "internalType": "uint256",
          "name": "_winnerShare",
          "type": "uint256"
        },
        {
          "internalType": "uint256",
          "name": "_loserShare",
          "type": "uint256"
        },
        {
          "internalType": "uint256",
          "name": "_winnerCoinShare",
          "type": "uint256"
        }
      ],
      "stateMutability": "nonpayable",
      "type": "constructor"
    },
    {
      "anonymous": false,
      "inputs": [
        {
          "indexed": true,
          "internalType": "address",
          "name": "previousOwner",
          "type": "address"
        },
        {
          "indexed": true,
          "internalType": "address",
          "name": "newOwner",
          "type": "address"
        }
      ],
      "name": "OwnershipTransferred",
      "type": "event"
    },
    {
      "inputs": [
        {
          "internalType": "uint256",
          "name": "",
          "type": "uint256"
        }
      ],
      "name": "games",
      "outputs": [
        {
          "internalType": "contract ChessGame",
          "name": "",
          "type": "address"
        }
      ],
      "stateMutability": "view",
      "type": "function",
      "constant": true
    },
    {
      "inputs": [],
      "name": "owner",
      "outputs": [
        {
          "internalType": "address",
          "name": "",
          "type": "address"
        }
      ],
      "stateMutability": "view",
      "type": "function",
      "constant": true
    },
    {
      "inputs": [],
      "name": "renounceOwnership",
      "outputs": [],
      "stateMutability": "nonpayable",
      "type": "function"
    },
    {
      "inputs": [],
      "name": "totalGames",
      "outputs": [
        {
          "internalType": "uint256",
          "name": "",
          "type": "uint256"
        }
      ],
      "stateMutability": "view",
      "type": "function",
      "constant": true
    },
    {
      "inputs": [
        {
          "internalType": "address",
          "name": "newOwner",
          "type": "address"
        }
      ],
      "name": "transferOwnership",
      "outputs": [],
      "stateMutability": "nonpayable",
      "type": "function"
    },
    {
      "inputs": [
        {
          "internalType": "uint16",
          "name": "_maxChances",
          "type": "uint16"
        },
        {
          "internalType": "uint256",
          "name": "_minBid",
          "type": "uint256"
        },
        {
          "internalType": "uint256",
          "name": "_minCoinBid",
          "type": "uint256"
        },
        {
          "internalType": "uint256",
          "name": "_tokenPrice",
          "type": "uint256"
        }
      ],
      "name": "createGame",
      "outputs": [],
      "stateMutability": "nonpayable",
      "type": "function"
    },
    {
      "inputs": [],
      "name": "getLatestGame",
      "outputs": [
        {
          "internalType": "address",
          "name": "",
          "type": "address"
        }
      ],
      "stateMutability": "view",
      "type": "function",
      "constant": true
    },
    {
      "inputs": [
        {
          "internalType": "uint256",
          "name": "_supply",
          "type": "uint256"
        }
      ],
      "name": "setInitialGameSupply",
      "outputs": [],
      "stateMutability": "nonpayable",
      "type": "function"
    },
    {
      "inputs": [
        {
          "internalType": "uint256",
          "name": "_winnerShare",
          "type": "uint256"
        },
        {
          "internalType": "uint256",
          "name": "_loserShare",
          "type": "uint256"
        },
        {
          "internalType": "uint256",
          "name": "_winnerCoinShare",
          "type": "uint256"
        }
      ],
      "name": "setRewardPercentage",
      "outputs": [],
      "stateMutability": "nonpayable",
      "type": "function"
    },
    {
      "inputs": [
        {
          "internalType": "uint256",
          "name": "_gameID",
          "type": "uint256"
        }
      ],
      "name": "setRewardFor",
      "outputs": [],
      "stateMutability": "nonpayable",
      "type": "function"
    },
    {
      "inputs": [
        {
          "internalType": "uint256",
          "name": "_gameID",
          "type": "uint256"
        }
      ],
      "name": "rewardWinners",
      "outputs": [],
      "stateMutability": "nonpayable",
      "type": "function"
    }
  ],
  "bytecode": "0x6080604052600060025560c86004556000600860006101000a81548160ff0219169083151502179055503480156200003657600080fd5b5060405162005ab438038062005ab483398181016040528101906200005c9190620002a6565b6200007c62000070620000da60201b60201c565b620000e260201b60201c565b83600360006101000a81548173ffffffffffffffffffffffffffffffffffffffff021916908373ffffffffffffffffffffffffffffffffffffffff160217905550620000d0838383620001a660201b60201c565b5050505062000426565b600033905090565b60008060009054906101000a900473ffffffffffffffffffffffffffffffffffffffff169050816000806101000a81548173ffffffffffffffffffffffffffffffffffffffff021916908373ffffffffffffffffffffffffffffffffffffffff1602179055508173ffffffffffffffffffffffffffffffffffffffff168173ffffffffffffffffffffffffffffffffffffffff167f8be0079c531659141344cd1fd0a4f28419497f9722a3daafe3b4186f6b6457e060405160405180910390a35050565b620001b6620000da60201b60201c565b73ffffffffffffffffffffffffffffffffffffffff16620001dc6200024f60201b60201c565b73ffffffffffffffffffffffffffffffffffffffff161462000235576040517f08c379a00000000000000000000000000000000000000000000000000000000081526004016200022c906200033f565b60405180910390fd5b826005819055508160068190555080600781905550505050565b60008060009054906101000a900473ffffffffffffffffffffffffffffffffffffffff16905090565b6000815190506200028981620003f2565b92915050565b600081519050620002a0816200040c565b92915050565b60008060008060808587031215620002c357620002c2620003c4565b5b6000620002d38782880162000278565b9450506020620002e6878288016200028f565b9350506040620002f9878288016200028f565b92505060606200030c878288016200028f565b91505092959194509250565b60006200032760208362000361565b91506200033482620003c9565b602082019050919050565b600060208201905081810360008301526200035a8162000318565b9050919050565b600082825260208201905092915050565b60006200037f826200039a565b9050919050565b6000620003938262000372565b9050919050565b600073ffffffffffffffffffffffffffffffffffffffff82169050919050565b6000819050919050565b600080fd5b7f4f776e61626c653a2063616c6c6572206973206e6f7420746865206f776e6572600082015250565b620003fd8162000386565b81146200040957600080fd5b50565b6200041781620003ba565b81146200042357600080fd5b50565b61567e80620004366000396000f3fe60806040523480156200001157600080fd5b5060043610620000b85760003560e01c8063715018a6116200007b578063715018a614620001775780638da5cb5b14620001835780639f54c67014620001a5578063a76032d014620001c5578063aa5295cb14620001e5578063f2fde38b146200020557620000b8565b8063117a5b9014620000bd5780632bbda31114620000f35780632c4e591b146200011357806332e2d7f914620001355780636ab4495e1462000155575b600080fd5b620000db6004803603810190620000d59190620014f4565b62000225565b604051620000ea919062001763565b60405180910390f35b6200011160048036038101906200010b9190620014f4565b62000258565b005b6200011d620009e2565b6040516200012c919062001886565b60405180910390f35b6200015360048036038101906200014d9190620014f4565b620009e8565b005b6200015f62000c16565b6040516200016e919062001719565b60405180910390f35b6200018162000c53565b005b6200018d62000ce4565b6040516200019c919062001719565b60405180910390f35b620001c36004803603810190620001bd919062001482565b62000d0d565b005b620001e36004803603810190620001dd919062001558565b62000fa9565b005b620002036004803603810190620001fd9190620014f4565b62001046565b005b6200022360048036038101906200021d9190620013ba565b620010d3565b005b60016020528060005260406000206000915054906101000a900473ffffffffffffffffffffffffffffffffffffffff1681565b62000262620011d7565b73ffffffffffffffffffffffffffffffffffffffff166200028262000ce4565b73ffffffffffffffffffffffffffffffffffffffff1614620002db576040517f08c379a0000000000000000000000000000000000000000000000000000000008152600401620002d29062001864565b60405180910390fd5b60006001600083815260200190815260200160002060009054906101000a900473ffffffffffffffffffffffffffffffffffffffff169050600060028111156200032a576200032962001bc6565b5b8173ffffffffffffffffffffffffffffffffffffffff1663aff814cf6040518163ffffffff1660e01b815260040160206040518083038186803b1580156200037157600080fd5b505afa15801562000386573d6000803e3d6000fd5b505050506040513d601f19601f82011682018060405250810190620003ac91906200141e565b6002811115620003c157620003c062001bc6565b5b141562000405576040517f08c379a0000000000000000000000000000000000000000000000000000000008152600401620003fc90620017fe565b60405180910390fd5b6002808111156200041b576200041a62001bc6565b5b8173ffffffffffffffffffffffffffffffffffffffff1663aff814cf6040518163ffffffff1660e01b815260040160206040518083038186803b1580156200046257600080fd5b505afa15801562000477573d6000803e3d6000fd5b505050506040513d601f19601f820116820180604052508101906200049d91906200141e565b6002811115620004b257620004b162001bc6565b5b141562000534578073ffffffffffffffffffffffffffffffffffffffff1663e1c05d9360008060006040518463ffffffff1660e01b8152600401620004fa939291906200179d565b600060405180830381600087803b1580156200051557600080fd5b505af11580156200052a573d6000803e3d6000fd5b50505050620009de565b60008173ffffffffffffffffffffffffffffffffffffffff1663b108501f6040518163ffffffff1660e01b815260040160206040518083038186803b1580156200057d57600080fd5b505afa15801562000592573d6000803e3d6000fd5b505050506040513d601f19601f82011682018060405250810190620005b8919062001450565b905060008273ffffffffffffffffffffffffffffffffffffffff1663d1e90d626040518163ffffffff1660e01b815260040160206040518083038186803b1580156200060357600080fd5b505afa15801562000618573d6000803e3d6000fd5b505050506040513d601f19601f820116820180604052508101906200063e919062001450565b905060008373ffffffffffffffffffffffffffffffffffffffff1663ccd79382836040518263ffffffff1660e01b81526004016200067d919062001780565b60206040518083038186803b1580156200069657600080fd5b505afa158015620006ab573d6000803e3d6000fd5b505050506040513d601f19601f82011682018060405250810190620006d1919062001526565b905060008473ffffffffffffffffffffffffffffffffffffffff16633ef018eb846040518263ffffffff1660e01b815260040162000710919062001780565b60206040518083038186803b1580156200072957600080fd5b505afa1580156200073e573d6000803e3d6000fd5b505050506040513d601f19601f8201168201806040525081019062000764919062001526565b905060008573ffffffffffffffffffffffffffffffffffffffff1663e9771986866040518263ffffffff1660e01b8152600401620007a3919062001780565b60206040518083038186803b158015620007bc57600080fd5b505afa158015620007d1573d6000803e3d6000fd5b505050506040513d601f19601f82011682018060405250810190620007f7919062001526565b905060008673ffffffffffffffffffffffffffffffffffffffff1663e9771986866040518263ffffffff1660e01b815260040162000836919062001780565b60206040518083038186803b1580156200084f57600080fd5b505afa15801562000864573d6000803e3d6000fd5b505050506040513d601f19601f820116820180604052508101906200088a919062001526565b90506000620008d160055486620008a291906200198a565b606485620008b191906200198a565b6040518060600160405280602e8152602001620055bb602e9139620011df565b905060006200091860075486620008e991906200198a565b606486620008f891906200198a565b6040518060600160405280603381526020016200561660339139620011df565b905060006200095f600654886200093091906200198a565b6064866200093f91906200198a565b6040518060600160405280602d8152602001620055e9602d9139620011df565b90508973ffffffffffffffffffffffffffffffffffffffff1663e1c05d938483856040518463ffffffff1660e01b8152600401620009a09392919062001931565b600060405180830381600087803b158015620009bb57600080fd5b505af1158015620009d0573d6000803e3d6000fd5b505050505050505050505050505b5050565b60025481565b620009f2620011d7565b73ffffffffffffffffffffffffffffffffffffffff1662000a1262000ce4565b73ffffffffffffffffffffffffffffffffffffffff161462000a6b576040517f08c379a000000000000000000000000000000000000000000000000000000000815260040162000a629062001864565b60405180910390fd5b60006001600083815260200190815260200160002060009054906101000a900473ffffffffffffffffffffffffffffffffffffffff1690506000600281111562000aba5762000ab962001bc6565b5b8173ffffffffffffffffffffffffffffffffffffffff1663aff814cf6040518163ffffffff1660e01b815260040160206040518083038186803b15801562000b0157600080fd5b505afa15801562000b16573d6000803e3d6000fd5b505050506040513d601f19601f8201168201806040525081019062000b3c91906200141e565b600281111562000b515762000b5062001bc6565b5b141562000b95576040517f08c379a000000000000000000000000000000000000000000000000000000000815260040162000b8c90620017fe565b60405180910390fd5b8073ffffffffffffffffffffffffffffffffffffffff166395cb1b1e6040518163ffffffff1660e01b8152600401600060405180830381600087803b15801562000bde57600080fd5b505af115801562000bf3573d6000803e3d6000fd5b505050506000600860006101000a81548160ff0219169083151502179055505050565b600060016000600254815260200190815260200160002060009054906101000a900473ffffffffffffffffffffffffffffffffffffffff16905090565b62000c5d620011d7565b73ffffffffffffffffffffffffffffffffffffffff1662000c7d62000ce4565b73ffffffffffffffffffffffffffffffffffffffff161462000cd6576040517f08c379a000000000000000000000000000000000000000000000000000000000815260040162000ccd9062001864565b60405180910390fd5b62000ce2600062001247565b565b60008060009054906101000a900473ffffffffffffffffffffffffffffffffffffffff16905090565b62000d17620011d7565b73ffffffffffffffffffffffffffffffffffffffff1662000d3762000ce4565b73ffffffffffffffffffffffffffffffffffffffff161462000d90576040517f08c379a000000000000000000000000000000000000000000000000000000000815260040162000d879062001864565b60405180910390fd5b60001515600860009054906101000a900460ff1615151462000de9576040517f08c379a000000000000000000000000000000000000000000000000000000000815260040162000de09062001842565b60405180910390fd5b6002600081548092919062000dfe9062001b1a565b91905055506000600254858585600360009054906101000a900473ffffffffffffffffffffffffffffffffffffffff168662000e3962000ce4565b3060405162000e48906200130b565b62000e5b989796959493929190620018a3565b604051809103906000f08015801562000e78573d6000803e3d6000fd5b509050600360009054906101000a900473ffffffffffffffffffffffffffffffffffffffff1673ffffffffffffffffffffffffffffffffffffffff1663a9059cbb826004546040518363ffffffff1660e01b815260040162000edc92919062001736565b602060405180830381600087803b15801562000ef757600080fd5b505af115801562000f0c573d6000803e3d6000fd5b505050506040513d601f19601f8201168201806040525081019062000f329190620013ec565b508060016000600254815260200190815260200160002060006101000a81548173ffffffffffffffffffffffffffffffffffffffff021916908373ffffffffffffffffffffffffffffffffffffffff1602179055506001600860006101000a81548160ff0219169083151502179055505050505050565b62000fb3620011d7565b73ffffffffffffffffffffffffffffffffffffffff1662000fd362000ce4565b73ffffffffffffffffffffffffffffffffffffffff16146200102c576040517f08c379a0000000000000000000000000000000000000000000000000000000008152600401620010239062001864565b60405180910390fd5b826005819055508160068190555080600781905550505050565b62001050620011d7565b73ffffffffffffffffffffffffffffffffffffffff166200107062000ce4565b73ffffffffffffffffffffffffffffffffffffffff1614620010c9576040517f08c379a0000000000000000000000000000000000000000000000000000000008152600401620010c09062001864565b60405180910390fd5b8060048190555050565b620010dd620011d7565b73ffffffffffffffffffffffffffffffffffffffff16620010fd62000ce4565b73ffffffffffffffffffffffffffffffffffffffff161462001156576040517f08c379a00000000000000000000000000000000000000000000000000000000081526004016200114d9062001864565b60405180910390fd5b600073ffffffffffffffffffffffffffffffffffffffff168173ffffffffffffffffffffffffffffffffffffffff161415620011c9576040517f08c379a0000000000000000000000000000000000000000000000000000000008152600401620011c09062001820565b60405180910390fd5b620011d48162001247565b50565b600033905090565b6000808311829062001229576040517f08c379a0000000000000000000000000000000000000000000000000000000008152600401620012209190620017da565b60405180910390fd5b508284816200123d576200123c62001b97565b5b0490509392505050565b60008060009054906101000a900473ffffffffffffffffffffffffffffffffffffffff169050816000806101000a81548173ffffffffffffffffffffffffffffffffffffffff021916908373ffffffffffffffffffffffffffffffffffffffff1602179055508173ffffffffffffffffffffffffffffffffffffffff168173ffffffffffffffffffffffffffffffffffffffff167f8be0079c531659141344cd1fd0a4f28419497f9722a3daafe3b4186f6b6457e060405160405180910390a35050565b6137f88062001dc383390190565b6000813590506200132a8162001d38565b92915050565b600081519050620013418162001d52565b92915050565b600081519050620013588162001d6c565b92915050565b6000815190506200136f8162001d7d565b92915050565b600081359050620013868162001d8e565b92915050565b6000813590506200139d8162001da8565b92915050565b600081519050620013b48162001da8565b92915050565b600060208284031215620013d357620013d262001bf5565b5b6000620013e38482850162001319565b91505092915050565b60006020828403121562001405576200140462001bf5565b5b6000620014158482850162001330565b91505092915050565b60006020828403121562001437576200143662001bf5565b5b6000620014478482850162001347565b91505092915050565b60006020828403121562001469576200146862001bf5565b5b600062001479848285016200135e565b91505092915050565b600080600080608085870312156200149f576200149e62001bf5565b5b6000620014af8782880162001375565b9450506020620014c2878288016200138c565b9350506040620014d5878288016200138c565b9250506060620014e8878288016200138c565b91505092959194509250565b6000602082840312156200150d576200150c62001bf5565b5b60006200151d848285016200138c565b91505092915050565b6000602082840312156200153f576200153e62001bf5565b5b60006200154f84828501620013a3565b91505092915050565b60008060006060848603121562001574576200157362001bf5565b5b600062001584868287016200138c565b935050602062001597868287016200138c565b9250506040620015aa868287016200138c565b9150509250925092565b620015bf81620019ff565b82525050565b620015d081620019eb565b82525050565b620015e18162001a6c565b82525050565b620015f28162001a94565b82525050565b620016038162001abc565b82525050565b620016148162001ad0565b82525050565b600062001627826200196e565b62001633818562001979565b93506200164581856020860162001ae4565b620016508162001bfa565b840191505092915050565b60006200166a60258362001979565b9150620016778262001c0b565b604082019050919050565b60006200169160268362001979565b91506200169e8262001c5a565b604082019050919050565b6000620016b8602a8362001979565b9150620016c58262001ca9565b604082019050919050565b6000620016df60208362001979565b9150620016ec8262001cf8565b602082019050919050565b620017028162001a34565b82525050565b620017138162001a62565b82525050565b6000602082019050620017306000830184620015c5565b92915050565b60006040820190506200174d6000830185620015c5565b6200175c602083018462001708565b9392505050565b60006020820190506200177a6000830184620015d6565b92915050565b6000602082019050620017976000830184620015f8565b92915050565b6000606082019050620017b4600083018662001609565b620017c3602083018562001609565b620017d2604083018462001609565b949350505050565b60006020820190508181036000830152620017f681846200161a565b905092915050565b6000602082019050818103600083015262001819816200165b565b9050919050565b600060208201905081810360008301526200183b8162001682565b9050919050565b600060208201905081810360008301526200185d81620016a9565b9050919050565b600060208201905081810360008301526200187f81620016d0565b9050919050565b60006020820190506200189d600083018462001708565b92915050565b600061010082019050620018bb600083018b62001708565b620018ca602083018a620016f7565b620018d9604083018962001708565b620018e8606083018862001708565b620018f76080830187620015e7565b6200190660a083018662001708565b6200191560c0830185620015c5565b6200192460e0830184620015b4565b9998505050505050505050565b600060608201905062001948600083018662001708565b62001957602083018562001708565b62001966604083018462001708565b949350505050565b600081519050919050565b600082825260208201905092915050565b6000620019978262001a62565b9150620019a48362001a62565b9250817fffffffffffffffffffffffffffffffffffffffffffffffffffffffffffffffff0483118215151615620019e057620019df62001b68565b5b828202905092915050565b6000620019f88262001a42565b9050919050565b600062001a0c8262001a42565b9050919050565b60008115159050919050565b600081905062001a2f8262001d21565b919050565b600061ffff82169050919050565b600073ffffffffffffffffffffffffffffffffffffffff82169050919050565b6000819050919050565b600062001a798262001a80565b9050919050565b600062001a8d8262001a42565b9050919050565b600062001aa18262001aa8565b9050919050565b600062001ab58262001a42565b9050919050565b600062001ac98262001a1f565b9050919050565b600062001add8262001a62565b9050919050565b60005b8381101562001b0457808201518184015260208101905062001ae7565b8381111562001b14576000848401525b50505050565b600062001b278262001a62565b91507fffffffffffffffffffffffffffffffffffffffffffffffffffffffffffffffff82141562001b5d5762001b5c62001b68565b5b600182019050919050565b7f4e487b7100000000000000000000000000000000000000000000000000000000600052601160045260246000fd5b7f4e487b7100000000000000000000000000000000000000000000000000000000600052601260045260246000fd5b7f4e487b7100000000000000000000000000000000000000000000000000000000600052602160045260246000fd5b600080fd5b6000601f19601f8301169050919050565b7f4368657373466163746f72793a2047616d6520686173206e6f7420656e64656460008201527f2079657421000000000000000000000000000000000000000000000000000000602082015250565b7f4f776e61626c653a206e6577206f776e657220697320746865207a65726f206160008201527f6464726573730000000000000000000000000000000000000000000000000000602082015250565b7f4368657373466163746f72793a20412067616d65206973207374696c6c20696e60008201527f2070726f67726573732100000000000000000000000000000000000000000000602082015250565b7f4f776e61626c653a2063616c6c6572206973206e6f7420746865206f776e6572600082015250565b6003811062001d355762001d3462001bc6565b5b50565b62001d4381620019eb565b811462001d4f57600080fd5b50565b62001d5d8162001a13565b811462001d6957600080fd5b50565b6003811062001d7a57600080fd5b50565b6003811062001d8b57600080fd5b50565b62001d998162001a34565b811462001da557600080fd5b50565b62001db38162001a62565b811462001dbf57600080fd5b5056fe6080604052604051806060016040528060388152602001620037c060389139600390805190602001906200003592919062000265565b506000600960006101000a81548160ff021916908360028111156200005f576200005e6200054a565b5b02179055506000600960016101000a81548160ff021916908360028111156200008d576200008c6200054a565b5b02179055506000600960026101000a81548160ff02191690836002811115620000bb57620000ba6200054a565b5b02179055506001600960036101000a81548160ff02191690836002811115620000e957620000e86200054a565b5b0217905550348015620000fb57600080fd5b50604051620037f8380380620037f8833981810160405281019062000121919062000388565b8760058190555086600460006101000a81548161ffff021916908361ffff160217905550856007819055508460068190555083600260006101000a81548173ffffffffffffffffffffffffffffffffffffffff021916908373ffffffffffffffffffffffffffffffffffffffff1602179055508260088190555081600160006101000a81548173ffffffffffffffffffffffffffffffffffffffff021916908373ffffffffffffffffffffffffffffffffffffffff160217905550806000806101000a81548173ffffffffffffffffffffffffffffffffffffffff021916908373ffffffffffffffffffffffffffffffffffffffff1602179055507fc3e0f84839dc888c892a013d10c8f9d6dc05a21a879d0ce468ca558013e9121c88306040516200024f92919062000473565b60405180910390a150505050505050506200062f565b828054620002739062000514565b90600052602060002090601f016020900481019282620002975760008555620002e3565b82601f10620002b257805160ff1916838001178555620002e3565b82800160010185558215620002e3579182015b82811115620002e2578251825591602001919060010190620002c5565b5b509050620002f29190620002f6565b5090565b5b8082111562000311576000816000905550600101620002f7565b5090565b6000815190506200032681620005ad565b92915050565b6000815190506200033d81620005c7565b92915050565b6000815190506200035481620005e1565b92915050565b6000815190506200036b81620005fb565b92915050565b600081519050620003828162000615565b92915050565b600080600080600080600080610100898b031215620003ac57620003ab620005a8565b5b6000620003bc8b828c0162000371565b9850506020620003cf8b828c016200035a565b9750506040620003e28b828c0162000371565b9650506060620003f58b828c0162000371565b9550506080620004088b828c0162000343565b94505060a06200041b8b828c0162000371565b93505060c06200042e8b828c0162000315565b92505060e0620004418b828c016200032c565b9150509295985092959890939650565b6200045c81620004a0565b82525050565b6200046d816200050a565b82525050565b60006040820190506200048a600083018562000462565b62000499602083018462000451565b9392505050565b6000620004ad82620004ea565b9050919050565b6000620004c182620004ea565b9050919050565b6000620004d582620004a0565b9050919050565b600061ffff82169050919050565b600073ffffffffffffffffffffffffffffffffffffffff82169050919050565b6000819050919050565b600060028204905060018216806200052d57607f821691505b6020821081141562000544576200054362000579565b5b50919050565b7f4e487b7100000000000000000000000000000000000000000000000000000000600052602160045260246000fd5b7f4e487b7100000000000000000000000000000000000000000000000000000000600052602260045260246000fd5b600080fd5b620005b881620004a0565b8114620005c457600080fd5b50565b620005d281620004b4565b8114620005de57600080fd5b50565b620005ec81620004c8565b8114620005f857600080fd5b50565b6200060681620004dc565b81146200061257600080fd5b50565b62000620816200050a565b81146200062c57600080fd5b50565b613181806200063f6000396000f3fe60806040526004361061010d5760003560e01c8063b007781b11610095578063d1e90d6211610064578063d1e90d6214610337578063e1c05d9314610362578063e97719861461038b578063fbfc2d65146103c8578063fdcdb06b146103f357610114565b8063b007781b14610279578063b108501f146102a4578063ccd79382146102cf578063ce69cd201461030c57610114565b80634f71aff4116100dc5780634f71aff4146101b65780638b299903146101e157806395cb1b1e1461020c5780639707b03014610223578063aff814cf1461024e57610114565b8063107b652214610116578063339df860146101325780633e51d6811461014e5780633ef018eb1461017957610114565b3661011457005b005b610130600480360381019061012b9190612307565b61041e565b005b61014c60048036038101906101479190612376565b610af6565b005b34801561015a57600080fd5b506101636112bd565b604051610170919061293b565b60405180910390f35b34801561018557600080fd5b506101a0600480360381019061019b91906123f9565b6112c3565b6040516101ad919061293b565b60405180910390f35b3480156101c257600080fd5b506101cb611307565b6040516101d89190612920565b60405180910390f35b3480156101ed57600080fd5b506101f661131b565b60405161020391906127a3565b60405180910390f35b34801561021857600080fd5b5061022161132e565b005b34801561022f57600080fd5b5061023861167e565b604051610245919061293b565b60405180910390f35b34801561025a57600080fd5b50610263611684565b6040516102709190612788565b60405180910390f35b34801561028557600080fd5b5061028e611697565b60405161029b91906127be565b60405180910390f35b3480156102b057600080fd5b506102b9611729565b6040516102c691906127a3565b60405180910390f35b3480156102db57600080fd5b506102f660048036038101906102f191906123f9565b61173c565b604051610303919061293b565b60405180910390f35b34801561031857600080fd5b50610321611780565b60405161032e919061293b565b60405180910390f35b34801561034357600080fd5b5061034c611786565b60405161035991906127a3565b60405180910390f35b34801561036e57600080fd5b5061038960048036038101906103849190612453565b611799565b005b34801561039757600080fd5b506103b260048036038101906103ad91906123f9565b611930565b6040516103bf919061293b565b60405180910390f35b3480156103d457600080fd5b506103dd6119ed565b6040516103ea91906127be565b60405180910390f35b3480156103ff57600080fd5b50610408611a7b565b604051610415919061293b565b60405180910390f35b6000600281111561043257610431612d99565b5b600960009054906101000a900460ff16600281111561045457610453612d99565b5b14610494576040517f08c379a000000000000000000000000000000000000000000000000000000000815260040161048b90612800565b60405180910390fd5b6007543414806104b857506104b56005600754611a8190919063ffffffff16565b34145b806104d757506104d4600a600754611a8190919063ffffffff16565b34145b610516576040517f08c379a000000000000000000000000000000000000000000000000000000000815260040161050d906127e0565b60405180910390fd5b816000600a60003373ffffffffffffffffffffffffffffffffffffffff1673ffffffffffffffffffffffffffffffffffffffff16815260200190815260200160002060000160009054906101000a900460ff1690506000600281111561057f5761057e612d99565b5b81600281111561059257610591612d99565b5b14156106a25781600a60003373ffffffffffffffffffffffffffffffffffffffff1673ffffffffffffffffffffffffffffffffffffffff16815260200190815260200160002060000160006101000a81548160ff021916908360028111156105fd576105fc612d99565b5b0217905550600b600083600281111561061957610618612d99565b5b600281111561062b5761062a612d99565b5b8152602001908152602001600020600001339080600181540180825580915050600190039060005260206000200160009091909190916101000a81548173ffffffffffffffffffffffffffffffffffffffff021916908373ffffffffffffffffffffffffffffffffffffffff160217905550610709565b8160028111156106b5576106b4612d99565b5b8160028111156106c8576106c7612d99565b5b14610708576040517f08c379a00000000000000000000000000000000000000000000000000000000081526004016106ff906128e0565b60405180910390fd5b5b83600960039054906101000a900460ff16600281111561072c5761072b612d99565b5b81600281111561073f5761073e612d99565b5b1461077f576040517f08c379a0000000000000000000000000000000000000000000000000000000008152600401610776906128c0565b60405180910390fd5b600460009054906101000a900461ffff1661ffff16600a60003373ffffffffffffffffffffffffffffffffffffffff1673ffffffffffffffffffffffffffffffffffffffff16815260200190815260200160002060000160019054906101000a900461ffff1661ffff1610610829576040517f08c379a000000000000000000000000000000000000000000000000000000000815260040161082090612820565b60405180910390fd5b836003908051906020019061083f92919061215e565b5061084d3386346000611a97565b7f1a989b5702453f6ffcbd04e8526bb53399217d8c05d8def3800dd0aabd8076973385346040516108809392919061274a565b60405180910390a16000600281111561089c5761089b612d99565b5b8660028111156108af576108ae612d99565b5b14156108ec576108be85611c6c565b600960036101000a81548160ff021916908360028111156108e2576108e1612d99565b5b0217905550610aee565b85600960006101000a81548160ff0219169083600281111561091157610910612d99565b5b02179055506001600281111561092a57610929612d99565b5b86600281111561093d5761093c612d99565b5b14156109a05784600960016101000a81548160ff0219169083600281111561096857610967612d99565b5b021790555061097685611c6c565b600960026101000a81548160ff0219169083600281111561099a57610999612d99565b5b02179055505b7f19e7282fe85cd1eef60d21da2307bd825fb067edd0c79b44c95c850872280ebc600554600960009054906101000a900460ff16600960019054906101000a900460ff16600b6000600160028111156109fc576109fb612d99565b5b6002811115610a0e57610a0d612d99565b5b815260200190815260200160002060010154600b6000600280811115610a3757610a36612d99565b5b6002811115610a4957610a48612d99565b5b815260200190815260200160002060010154600b600060016002811115610a7357610a72612d99565b5b6002811115610a8557610a84612d99565b5b815260200190815260200160002060020154600b6000600280811115610aae57610aad612d99565b5b6002811115610ac057610abf612d99565b5b815260200190815260200160002060020154604051610ae59796959493929190612956565b60405180910390a15b505050505050565b60006002811115610b0a57610b09612d99565b5b600960009054906101000a900460ff166002811115610b2c57610b2b612d99565b5b14610b6c576040517f08c379a0000000000000000000000000000000000000000000000000000000008152600401610b6390612800565b60405180910390fd5b81600654811480610b915750610b8e6005600654611a8190919063ffffffff16565b81145b80610bb05750610bad600a600654611a8190919063ffffffff16565b81145b610bef576040517f08c379a0000000000000000000000000000000000000000000000000000000008152600401610be6906127e0565b60405180910390fd5b836000600a60003373ffffffffffffffffffffffffffffffffffffffff1673ffffffffffffffffffffffffffffffffffffffff16815260200190815260200160002060000160009054906101000a900460ff16905060006002811115610c5857610c57612d99565b5b816002811115610c6b57610c6a612d99565b5b1415610d7b5781600a60003373ffffffffffffffffffffffffffffffffffffffff1673ffffffffffffffffffffffffffffffffffffffff16815260200190815260200160002060000160006101000a81548160ff02191690836002811115610cd657610cd5612d99565b5b0217905550600b6000836002811115610cf257610cf1612d99565b5b6002811115610d0457610d03612d99565b5b8152602001908152602001600020600001339080600181540180825580915050600190039060005260206000200160009091909190916101000a81548173ffffffffffffffffffffffffffffffffffffffff021916908373ffffffffffffffffffffffffffffffffffffffff160217905550610de2565b816002811115610d8e57610d8d612d99565b5b816002811115610da157610da0612d99565b5b14610de1576040517f08c379a0000000000000000000000000000000000000000000000000000000008152600401610dd8906128e0565b60405180910390fd5b5b85600960039054906101000a900460ff166002811115610e0557610e04612d99565b5b816002811115610e1857610e17612d99565b5b14610e58576040517f08c379a0000000000000000000000000000000000000000000000000000000008152600401610e4f906128c0565b60405180910390fd5b600460009054906101000a900461ffff1661ffff16600a60003373ffffffffffffffffffffffffffffffffffffffff1673ffffffffffffffffffffffffffffffffffffffff16815260200190815260200160002060000160019054906101000a900461ffff1661ffff1610610f02576040517f08c379a0000000000000000000000000000000000000000000000000000000008152600401610ef990612820565b60405180910390fd5b8460039080519060200190610f1892919061215e565b50610f263388600089611a97565b7f1a989b5702453f6ffcbd04e8526bb53399217d8c05d8def3800dd0aabd807697338688604051610f599392919061274a565b60405180910390a160006002811115610f7557610f74612d99565b5b886002811115610f8857610f87612d99565b5b1415610fc557610f9787611c6c565b600960036101000a81548160ff02191690836002811115610fbb57610fba612d99565b5b0217905550611201565b87600960006101000a81548160ff02191690836002811115610fea57610fe9612d99565b5b02179055506001600281111561100357611002612d99565b5b88600281111561101657611015612d99565b5b14156110795786600960016101000a81548160ff0219169083600281111561104157611040612d99565b5b021790555061104f87611c6c565b600960026101000a81548160ff0219169083600281111561107357611072612d99565b5b02179055505b7f19e7282fe85cd1eef60d21da2307bd825fb067edd0c79b44c95c850872280ebc600554600960009054906101000a900460ff16600960019054906101000a900460ff16600b6000600960019054906101000a900460ff1660028111156110e3576110e2612d99565b5b60028111156110f5576110f4612d99565b5b815260200190815260200160002060010154600b6000600960029054906101000a900460ff16600281111561112d5761112c612d99565b5b600281111561113f5761113e612d99565b5b815260200190815260200160002060010154600b6000600960019054906101000a900460ff16600281111561117757611176612d99565b5b600281111561118957611188612d99565b5b815260200190815260200160002060020154600b6000600960029054906101000a900460ff1660028111156111c1576111c0612d99565b5b60028111156111d3576111d2612d99565b5b8152602001908152602001600020600201546040516111f89796959493929190612956565b60405180910390a15b600260009054906101000a900473ffffffffffffffffffffffffffffffffffffffff1673ffffffffffffffffffffffffffffffffffffffff166323b872dd3330896040518463ffffffff1660e01b815260040161126093929190612713565b602060405180830381600087803b15801561127a57600080fd5b505af115801561128e573d6000803e3d6000fd5b505050506040513d601f19601f820116820180604052508101906112b291906122da565b505050505050505050565b60085481565b6000600b60008360028111156112dc576112db612d99565b5b60028111156112ee576112ed612d99565b5b8152602001908152602001600020600201549050919050565b600460009054906101000a900461ffff1681565b600960039054906101000a900460ff1681565b6000600281111561134257611341612d99565b5b600960009054906101000a900460ff16600281111561136457611363612d99565b5b14156113a5576040517f08c379a000000000000000000000000000000000000000000000000000000000815260040161139c90612900565b60405180910390fd5b60008054906101000a900473ffffffffffffffffffffffffffffffffffffffff1673ffffffffffffffffffffffffffffffffffffffff163373ffffffffffffffffffffffffffffffffffffffff1614611433576040517f08c379a000000000000000000000000000000000000000000000000000000000815260040161142a90612880565b60405180910390fd5b600160149054906101000a900460ff16611482576040517f08c379a0000000000000000000000000000000000000000000000000000000008152600401611479906128a0565b60405180910390fd5b61148c6001611cad565b7fa063b25e86b685025877e8288a7c25aaa1111ff0242b4fd0fa8c78c7dcd5cd9760055460016040516114c09291906129c5565b60405180910390a16114d26002611cad565b7fa063b25e86b685025877e8288a7c25aaa1111ff0242b4fd0fa8c78c7dcd5cd9760055460026040516115069291906129c5565b60405180910390a1600260009054906101000a900473ffffffffffffffffffffffffffffffffffffffff1673ffffffffffffffffffffffffffffffffffffffff166342966c68600260009054906101000a900473ffffffffffffffffffffffffffffffffffffffff1673ffffffffffffffffffffffffffffffffffffffff166370a08231306040518263ffffffff1660e01b81526004016115a791906126cf565b60206040518083038186803b1580156115bf57600080fd5b505afa1580156115d3573d6000803e3d6000fd5b505050506040513d601f19601f820116820180604052508101906115f79190612426565b6040518263ffffffff1660e01b8152600401611613919061293b565b600060405180830381600087803b15801561162d57600080fd5b505af1158015611641573d6000803e3d6000fd5b5050505060008054906101000a900473ffffffffffffffffffffffffffffffffffffffff1673ffffffffffffffffffffffffffffffffffffffff16ff5b60065481565b600960009054906101000a900460ff1681565b6060600380546116a690612c64565b80601f01602080910402602001604051908101604052809291908181526020018280546116d290612c64565b801561171f5780601f106116f45761010080835404028352916020019161171f565b820191906000526020600020905b81548152906001019060200180831161170257829003601f168201915b5050505050905090565b600960019054906101000a900460ff1681565b6000600b600083600281111561175557611754612d99565b5b600281111561176757611766612d99565b5b8152602001908152602001600020600101549050919050565b60075481565b600960029054906101000a900460ff1681565b60008054906101000a900473ffffffffffffffffffffffffffffffffffffffff1673ffffffffffffffffffffffffffffffffffffffff163373ffffffffffffffffffffffffffffffffffffffff1614611827576040517f08c379a000000000000000000000000000000000000000000000000000000000815260040161181e90612880565b60405180910390fd5b82600b6000600960019054906101000a900460ff16600281111561184e5761184d612d99565b5b60028111156118605761185f612d99565b5b81526020019081526020016000206004018190555081600b6000600960029054906101000a900460ff16600281111561189c5761189b612d99565b5b60028111156118ae576118ad612d99565b5b81526020019081526020016000206004018190555080600b6000600960019054906101000a900460ff1660028111156118ea576118e9612d99565b5b60028111156118fc576118fb612d99565b5b81526020019081526020016000206005018190555060018060146101000a81548160ff021916908315150217905550505050565b600080600281111561194557611944612d99565b5b600960009054906101000a900460ff16600281111561196757611966612d99565b5b14156119a8576040517f08c379a000000000000000000000000000000000000000000000000000000000815260040161199f90612900565b60405180910390fd5b600b60008360028111156119bf576119be612d99565b5b60028111156119d1576119d0612d99565b5b8152602001908152602001600020600001805490509050919050565b600380546119fa90612c64565b80601f0160208091040260200160405190810160405280929190818152602001828054611a2690612c64565b8015611a735780601f10611a4857610100808354040283529160200191611a73565b820191906000526020600020905b815481529060010190602001808311611a5657829003601f168201915b505050505081565b60055481565b60008183611a8f9190612af2565b905092915050565b81600a60008673ffffffffffffffffffffffffffffffffffffffff1673ffffffffffffffffffffffffffffffffffffffff1681526020019081526020016000206001016000828254611ae99190612a6b565b9250508190555080600a60008673ffffffffffffffffffffffffffffffffffffffff1673ffffffffffffffffffffffffffffffffffffffff1681526020019081526020016000206002016000828254611b429190612a6b565b9250508190555081600b6000856002811115611b6157611b60612d99565b5b6002811115611b7357611b72612d99565b5b81526020019081526020016000206001016000828254611b939190612a6b565b9250508190555080600b6000856002811115611bb257611bb1612d99565b5b6002811115611bc457611bc3612d99565b5b81526020019081526020016000206002016000828254611be49190612a6b565b92505081905550600a60008573ffffffffffffffffffffffffffffffffffffffff1673ffffffffffffffffffffffffffffffffffffffff168152602001908152602001600020600001600181819054906101000a900461ffff1680929190611c4b90612cc7565b91906101000a81548161ffff021916908361ffff1602179055505050505050565b6000600280811115611c8157611c80612d99565b5b826002811115611c9457611c93612d99565b5b1415611ca35760019050611ca8565b600290505b919050565b60006002811115611cc157611cc0612d99565b5b600960009054906101000a900460ff166002811115611ce357611ce2612d99565b5b1415611d24576040517f08c379a0000000000000000000000000000000000000000000000000000000008152600401611d1b90612900565b60405180910390fd5b600160149054906101000a900460ff16611d73576040517f08c379a0000000000000000000000000000000000000000000000000000000008152600401611d6a906128a0565b60405180910390fd5b6000611d7e82611930565b90506000600b6000846002811115611d9957611d98612d99565b5b6002811115611dab57611daa612d99565b5b81526020019081526020016000206004015490506000600b6000856002811115611dd857611dd7612d99565b5b6002811115611dea57611de9612d99565b5b815260200190815260200160002060050154905060005b83811015612037576000600b6000876002811115611e2257611e21612d99565b5b6002811115611e3457611e33612d99565b5b81526020019081526020016000206000018281548110611e5757611e56612df7565b5b9060005260206000200160009054906101000a900473ffffffffffffffffffffffffffffffffffffffff1690506000600a60003373ffffffffffffffffffffffffffffffffffffffff1673ffffffffffffffffffffffffffffffffffffffff1681526020019081526020016000206001015490506000611ee0828761203e90919063ffffffff16565b9050611eec8382612054565b6000600a60003373ffffffffffffffffffffffffffffffffffffffff1673ffffffffffffffffffffffffffffffffffffffff168152602001908152602001600020600201549050600086611f4b6008548a61214890919063ffffffff16565b611f559190612a6b565b90506000611f6c828461203e90919063ffffffff16565b9050600260009054906101000a900473ffffffffffffffffffffffffffffffffffffffff1673ffffffffffffffffffffffffffffffffffffffff1663a9059cbb87836040518363ffffffff1660e01b8152600401611fcb9291906126ea565b602060405180830381600087803b158015611fe557600080fd5b505af1158015611ff9573d6000803e3d6000fd5b505050506040513d601f19601f8201168201806040525081019061201d91906122da565b50505050505050808061202f90612cf2565b915050611e01565b5050505050565b6000818361204c9190612a6b565b905092915050565b80471015612097576040517f08c379a000000000000000000000000000000000000000000000000000000000815260040161208e90612860565b60405180910390fd5b60008273ffffffffffffffffffffffffffffffffffffffff16826040516120bd906126ba565b60006040518083038185875af1925050503d80600081146120fa576040519150601f19603f3d011682016040523d82523d6000602084013e6120ff565b606091505b5050905080612143576040517f08c379a000000000000000000000000000000000000000000000000000000000815260040161213a90612840565b60405180910390fd5b505050565b600081836121569190612ac1565b905092915050565b82805461216a90612c64565b90600052602060002090601f01602090048101928261218c57600085556121d3565b82601f106121a557805160ff19168380011785556121d3565b828001600101855582156121d3579182015b828111156121d25782518255916020019190600101906121b7565b5b5090506121e091906121e4565b5090565b5b808211156121fd5760008160009055506001016121e5565b5090565b600061221461220f84612a13565b6129ee565b9050828152602081018484840111156122305761222f612e5a565b5b61223b848285612c22565b509392505050565b600081519050612252816130fd565b92915050565b60008135905061226781613114565b92915050565b60008135905061227c81613124565b92915050565b600082601f83011261229757612296612e55565b5b81356122a7848260208601612201565b91505092915050565b6000813590506122bf81613134565b92915050565b6000815190506122d481613134565b92915050565b6000602082840312156122f0576122ef612e64565b5b60006122fe84828501612243565b91505092915050565b6000806000606084860312156123205761231f612e64565b5b600061232e86828701612258565b935050602061233f8682870161226d565b925050604084013567ffffffffffffffff8111156123605761235f612e5f565b5b61236c86828701612282565b9150509250925092565b600080600080608085870312156123905761238f612e64565b5b600061239e87828801612258565b94505060206123af8782880161226d565b93505060406123c0878288016122b0565b925050606085013567ffffffffffffffff8111156123e1576123e0612e5f565b5b6123ed87828801612282565b91505092959194509250565b60006020828403121561240f5761240e612e64565b5b600061241d8482850161226d565b91505092915050565b60006020828403121561243c5761243b612e64565b5b600061244a848285016122c5565b91505092915050565b60008060006060848603121561246c5761246b612e64565b5b600061247a868287016122b0565b935050602061248b868287016122b0565b925050604061249c868287016122b0565b9150509250925092565b6124af81612bc8565b82525050565b6124be81612b4c565b82525050565b6124cd81612bda565b82525050565b6124dc81612bec565b82525050565b60006124ed82612a44565b6124f78185612a5a565b9350612507818560208601612c31565b61251081612e69565b840191505092915050565b6000612528601783612a5a565b915061253382612e7a565b602082019050919050565b600061254b601683612a5a565b915061255682612ea3565b602082019050919050565b600061256e602b83612a5a565b915061257982612ecc565b604082019050919050565b6000612591603a83612a5a565b915061259c82612f1b565b604082019050919050565b60006125b4601d83612a5a565b91506125bf82612f6a565b602082019050919050565b60006125d7603483612a5a565b91506125e282612f93565b604082019050919050565b60006125fa602383612a5a565b915061260582612fe2565b604082019050919050565b600061261d600083612a4f565b915061262882613031565b600082019050919050565b6000612640601983612a5a565b915061264b82613034565b602082019050919050565b6000612663602383612a5a565b915061266e8261305d565b604082019050919050565b6000612686601c83612a5a565b9150612691826130ac565b602082019050919050565b6126a581612b90565b82525050565b6126b481612bbe565b82525050565b60006126c582612610565b9150819050919050565b60006020820190506126e460008301846124b5565b92915050565b60006040820190506126ff60008301856124a6565b61270c60208301846126ab565b9392505050565b600060608201905061272860008301866124b5565b61273560208301856124b5565b61274260408301846126ab565b949350505050565b600060608201905061275f60008301866124b5565b818103602083015261277181856124e2565b905061278060408301846126ab565b949350505050565b600060208201905061279d60008301846124c4565b92915050565b60006020820190506127b860008301846124d3565b92915050565b600060208201905081810360008301526127d881846124e2565b905092915050565b600060208201905081810360008301526127f98161251b565b9050919050565b600060208201905081810360008301526128198161253e565b9050919050565b6000602082019050818103600083015261283981612561565b9050919050565b6000602082019050818103600083015261285981612584565b9050919050565b60006020820190508181036000830152612879816125a7565b9050919050565b60006020820190508181036000830152612899816125ca565b9050919050565b600060208201905081810360008301526128b9816125ed565b9050919050565b600060208201905081810360008301526128d981612633565b9050919050565b600060208201905081810360008301526128f981612656565b9050919050565b6000602082019050818103600083015261291981612679565b9050919050565b6000602082019050612935600083018461269c565b92915050565b600060208201905061295060008301846126ab565b92915050565b600060e08201905061296b600083018a6126ab565b61297860208301896124c4565b61298560408301886124d3565b61299260608301876126ab565b61299f60808301866126ab565b6129ac60a08301856126ab565b6129b960c08301846126ab565b98975050505050505050565b60006040820190506129da60008301856126ab565b6129e760208301846124d3565b9392505050565b60006129f8612a09565b9050612a048282612c96565b919050565b6000604051905090565b600067ffffffffffffffff821115612a2e57612a2d612e26565b5b612a3782612e69565b9050602081019050919050565b600081519050919050565b600081905092915050565b600082825260208201905092915050565b6000612a7682612bbe565b9150612a8183612bbe565b9250827fffffffffffffffffffffffffffffffffffffffffffffffffffffffffffffffff03821115612ab657612ab5612d3b565b5b828201905092915050565b6000612acc82612bbe565b9150612ad783612bbe565b925082612ae757612ae6612d6a565b5b828204905092915050565b6000612afd82612bbe565b9150612b0883612bbe565b9250817fffffffffffffffffffffffffffffffffffffffffffffffffffffffffffffffff0483118215151615612b4157612b40612d3b565b5b828202905092915050565b6000612b5782612b9e565b9050919050565b60008115159050919050565b6000819050612b78826130d5565b919050565b6000819050612b8b826130e9565b919050565b600061ffff82169050919050565b600073ffffffffffffffffffffffffffffffffffffffff82169050919050565b6000819050919050565b6000612bd382612bfe565b9050919050565b6000612be582612b6a565b9050919050565b6000612bf782612b7d565b9050919050565b6000612c0982612c10565b9050919050565b6000612c1b82612b9e565b9050919050565b82818337600083830152505050565b60005b83811015612c4f578082015181840152602081019050612c34565b83811115612c5e576000848401525b50505050565b60006002820490506001821680612c7c57607f821691505b60208210811415612c9057612c8f612dc8565b5b50919050565b612c9f82612e69565b810181811067ffffffffffffffff82111715612cbe57612cbd612e26565b5b80604052505050565b6000612cd282612b90565b915061ffff821415612ce757612ce6612d3b565b5b600182019050919050565b6000612cfd82612bbe565b91507fffffffffffffffffffffffffffffffffffffffffffffffffffffffffffffffff821415612d3057612d2f612d3b565b5b600182019050919050565b7f4e487b7100000000000000000000000000000000000000000000000000000000600052601160045260246000fd5b7f4e487b7100000000000000000000000000000000000000000000000000000000600052601260045260246000fd5b7f4e487b7100000000000000000000000000000000000000000000000000000000600052602160045260246000fd5b7f4e487b7100000000000000000000000000000000000000000000000000000000600052602260045260246000fd5b7f4e487b7100000000000000000000000000000000000000000000000000000000600052603260045260246000fd5b7f4e487b7100000000000000000000000000000000000000000000000000000000600052604160045260246000fd5b600080fd5b600080fd5b600080fd5b600080fd5b6000601f19601f8301169050919050565b7f436865737347616d653a20496e76616c69642042696421000000000000000000600082015250565b7f436865737347616d653a2047616d6520656e6465642100000000000000000000600082015250565b7f436865737347616d653a20596f75206861766520706c61796564206d6178696d60008201527f756d206368616e63657321000000000000000000000000000000000000000000602082015250565b7f416464726573733a20756e61626c6520746f2073656e642076616c75652c207260008201527f6563697069656e74206d61792068617665207265766572746564000000000000602082015250565b7f416464726573733a20696e73756666696369656e742062616c616e6365000000600082015250565b7f436865737347616d653a204f6e6c79204368657373466163746f72792063616e60008201527f2063616c6c20746869732066756e6374696f6e21000000000000000000000000602082015250565b7f436865737347616d653a2052657761726420686173206e6f74206265656e207360008201527f6574210000000000000000000000000000000000000000000000000000000000602082015250565b50565b7f436865737347616d653a204e6f7420796f7572207475726e2100000000000000600082015250565b7f436865737347616d653a20596f752063616e6e6f74206368616e67652073696460008201527f6573210000000000000000000000000000000000000000000000000000000000602082015250565b7f436865737347616d653a2047616d6520696e2050726f67726573732100000000600082015250565b600381106130e6576130e5612d99565b5b50565b600381106130fa576130f9612d99565b5b50565b61310681612b5e565b811461311157600080fd5b50565b6003811061312157600080fd5b50565b6003811061313157600080fd5b50565b61313d81612bbe565b811461314857600080fd5b5056fea2646970667358221220a65f45db409334280031d7cd3270c27da01511c3e26b1446ff0d81f5e5576c6564736f6c63430008060033726e62716b626e722f70707070707070702f382f382f382f382f50505050505050502f524e42514b424e522077204b516b71202d203020314368657373466163746f72793a204572726f722063616c63756c6174696e672077696e6e657220726577617264214368657373466163746f72793a204572726f722063616c63756c6174696e67206c6f73657220726577617264214368657373466163746f72793a204572726f722063616c63756c6174696e672077696e6e657220636f696e2072657761726421a26469706673582212204c3f261f406abdcb9eea0dc98e2ed31831554d0cd619e8cfd10ab09e423f844864736f6c63430008060033",
  "immutableReferences": {},
  "source": "//SPDX-License-Identifier: RahulPanchal-15\r\npragma solidity ^0.8.4;\r\n\r\nimport \"@openzeppelin/contracts/access/Ownable.sol\";\r\nimport \"@openzeppelin/contracts/utils/math/SafeMath.sol\";\r\nimport \"./ChessGame.sol\";\r\nimport \"@openzeppelin/contracts/token/ERC20/IERC20.sol\";\r\n\r\n///@title Factory for Chess games\r\n///@author Rahul Panchal\r\n///@notice Responsible for creating new chess game contracts and handling reward distribution\r\n///@dev Setup Chainlink for getting current UbiquitoPrice and set rewards accordingly \r\ncontract ChessFactory is Ownable {\r\n    using SafeMath for uint256;\r\n\r\n    mapping(uint256 => ChessGame) public games;\r\n    uint256 public totalGames = 0;\r\n    IERC20Burnable private UBIQUITO;\r\n    uint256 private INITIAL_GAME_SUPPLY = 200;\r\n    uint256 private WINNER_SHARE;\r\n    uint256 private LOSER_SHARE;\r\n    uint256 private WINNER_COIN_SHARE;\r\n    bool private isActive = false;\r\n    \r\n    constructor(\r\n        IERC20Burnable _ubiquito,\r\n        uint256 _winnerShare,\r\n        uint256 _loserShare,\r\n        uint256 _winnerCoinShare\r\n    ) \r\n    {\r\n        UBIQUITO = _ubiquito;\r\n        setRewardPercentage(_winnerShare, _loserShare, _winnerCoinShare);\r\n    }\r\n\r\n    ///@dev Creates new chess games\r\n    ///@param _maxChances Maximum number of chances an address is allowed to play\r\n    ///@param _minBid Minimum amount for the bid to play a move\r\n    ///@param _minCoinBid Minimum amount of coins required as a bid to play a move\r\n    ///@param _tokenPrice Price of coin in terms of wei(x if, 1 coin = x wei) \r\n    function createGame(\r\n        uint16 _maxChances,\r\n        uint256 _minBid,\r\n        uint256 _minCoinBid,\r\n        uint256 _tokenPrice\r\n    )\r\n        public onlyOwner \r\n    {\r\n        require(isActive==false,\"ChessFactory: A game is still in progress!\");\r\n        totalGames++;\r\n        ChessGame game = new ChessGame(\r\n            totalGames,\r\n            _maxChances,\r\n            _minBid,\r\n            _minCoinBid,\r\n            UBIQUITO,\r\n            _tokenPrice,\r\n            owner(),\r\n            payable(address(this))\r\n        );\r\n        UBIQUITO.transfer(address(game), INITIAL_GAME_SUPPLY); // Supply ChessFactory with sufficient Ubiquito!!!\r\n        games[totalGames] = game;\r\n        isActive = true;\r\n    }\r\n\r\n    ///@notice Address of latest game that was created\r\n    ///@dev Address of latest game that was created\r\n    ///@return Address of latest game\r\n    function getLatestGame() public view returns (address) {\r\n        return address(games[totalGames]);\r\n    }\r\n\r\n    ///@dev Provide Game contracts with some coins to begin with\r\n    ///@param _supply Amount of ERC20 coins to be supplied to Game contracts\r\n    function setInitialGameSupply(uint256 _supply) external onlyOwner {\r\n        INITIAL_GAME_SUPPLY = _supply;\r\n    }\r\n\r\n    ///@dev Set percentages for distribution of loser pool\r\n    ///@param _winnerShare Percentage of ether that will be rewarded to winners\r\n    ///@param _loserShare Percentage of ether that will be used for losers\r\n    ///@param _winnerCoinShare Percentage of coins that will be rewarded to winners\r\n    function setRewardPercentage(\r\n        uint256 _winnerShare,\r\n        uint256 _loserShare,\r\n        uint256 _winnerCoinShare\r\n    ) \r\n        public onlyOwner \r\n    {\r\n        WINNER_SHARE = _winnerShare;\r\n        LOSER_SHARE = _loserShare;\r\n        WINNER_COIN_SHARE = _winnerCoinShare;\r\n    }\r\n\r\n    ///@dev Calculate and set rewards for a game\r\n    ///@param _gameID Id of the game\r\n    function setRewardFor(uint256 _gameID) public onlyOwner {\r\n        ChessGame game = games[_gameID];\r\n        require(\r\n            game.GAME_RESULT() != ChessGame.Result.NA,\r\n            \"ChessFactory: Game has not ended yet!\"\r\n        );\r\n        if (game.GAME_RESULT() == ChessGame.Result.Draw) {\r\n            game.setReward(0, 0, 0);\r\n        } else {\r\n            ChessGame.Sides winner = game.WINNER();\r\n            ChessGame.Sides loser = game.LOSER();\r\n            uint256 loserPool = game.getPool(loser);\r\n            uint256 loserCoins = game.getCoins(loser);\r\n            uint256 nWinners = game.getNumberOfPlayers(winner);\r\n            uint256 nLosers = game.getNumberOfPlayers(loser);\r\n            uint256 winner_reward = SafeMath.div(\r\n                loserPool * WINNER_SHARE,\r\n                (nWinners * 100),\r\n                \"ChessFactory: Error calculating winner reward!\"\r\n            );\r\n            uint256 winner_coin_reward = SafeMath.div(\r\n                loserCoins * WINNER_COIN_SHARE,\r\n                (nWinners * 100),\r\n                \"ChessFactory: Error calculating winner coin reward!\"\r\n            );\r\n            uint256 loser_reward = SafeMath.div(\r\n                loserPool * LOSER_SHARE,\r\n                (nLosers * 100),\r\n                \"ChessFactory: Error calculating loser reward!\"\r\n            );\r\n            game.setReward(winner_reward, loser_reward, winner_coin_reward);\r\n        }\r\n    }\r\n\r\n    ///@dev Begins process of sending rewards to winners of a game\r\n    ///@param _gameID Id of the game\r\n    function rewardWinners(uint256 _gameID) public onlyOwner {\r\n        ChessGame game = games[_gameID];\r\n        require(\r\n            game.GAME_RESULT() != ChessGame.Result.NA,\r\n            \"ChessFactory: Game has not ended yet!\"\r\n        );\r\n        game.sendRewards();\r\n        isActive = false;\r\n    }\r\n}\r\n",
  "sourcePath": "C:/Users/naresh panchal/blockC/bidding-chess/contracts/ChessFactory.sol",
  "compiler": {
    "name": "solc",
    "version": "0.8.6+commit.11564f7e.Emscripten.clang"
  },
  "schemaVersion": "3.4.1",
  "updatedAt": "2021-07-25T13:24:37.768Z",
  "networkType": "ethereum",
  "devdoc": {
    "author": "Rahul Panchal",
    "details": "Setup Chainlink for getting current UbiquitoPrice and set rewards accordingly ",
    "kind": "dev",
    "methods": {
      "createGame(uint16,uint256,uint256,uint256)": {
        "details": "Creates new chess games",
        "params": {
          "_maxChances": "Maximum number of chances an address is allowed to play",
          "_minBid": "Minimum amount for the bid to play a move",
          "_minCoinBid": "Minimum amount of coins required as a bid to play a move",
          "_tokenPrice": "Price of coin in terms of wei(x if, 1 coin = x wei) "
        }
      },
      "getLatestGame()": {
        "details": "Address of latest game that was created",
        "returns": {
          "_0": "Address of latest game"
        }
      },
      "owner()": {
        "details": "Returns the address of the current owner."
      },
      "renounceOwnership()": {
        "details": "Leaves the contract without owner. It will not be possible to call `onlyOwner` functions anymore. Can only be called by the current owner. NOTE: Renouncing ownership will leave the contract without an owner, thereby removing any functionality that is only available to the owner."
      },
      "rewardWinners(uint256)": {
        "details": "Begins process of sending rewards to winners of a game",
        "params": {
          "_gameID": "Id of the game"
        }
      },
      "setInitialGameSupply(uint256)": {
        "details": "Provide Game contracts with some coins to begin with",
        "params": {
          "_supply": "Amount of ERC20 coins to be supplied to Game contracts"
        }
      },
      "setRewardFor(uint256)": {
        "details": "Calculate and set rewards for a game",
        "params": {
          "_gameID": "Id of the game"
        }
      },
      "setRewardPercentage(uint256,uint256,uint256)": {
        "details": "Set percentages for distribution of loser pool",
        "params": {
          "_loserShare": "Percentage of ether that will be used for losers",
          "_winnerCoinShare": "Percentage of coins that will be rewarded to winners",
          "_winnerShare": "Percentage of ether that will be rewarded to winners"
        }
      },
      "transferOwnership(address)": {
        "details": "Transfers ownership of the contract to a new account (`newOwner`). Can only be called by the current owner."
      }
    },
    "title": "Factory for Chess games",
    "version": 1
  },
  "userdoc": {
    "kind": "user",
    "methods": {
      "getLatestGame()": {
        "notice": "Address of latest game that was created"
      }
    },
    "notice": "Responsible for creating new chess game contracts and handling reward distribution",
    "version": 1
  }
}