{
  "contractName": "ChessGame",
  "abi": [
    {
      "inputs": [
        {
          "internalType": "uint256",
          "name": "_gameId",
          "type": "uint256"
        },
        {
          "internalType": "uint16",
          "name": "_maxChances",
          "type": "uint16"
        },
        {
          "internalType": "uint256",
          "name": "_minBid",
          "type": "uint256"
        },
        {
          "internalType": "uint256",
          "name": "_coinMinBid",
          "type": "uint256"
        },
        {
          "internalType": "contract IERC20Burnable",
          "name": "_token",
          "type": "address"
        },
        {
          "internalType": "uint256",
          "name": "_tokenPrice",
          "type": "uint256"
        },
        {
          "internalType": "address payable",
          "name": "_chessFactory",
          "type": "address"
        }
      ],
      "stateMutability": "nonpayable",
      "type": "constructor"
    },
    {
      "anonymous": false,
      "inputs": [
        {
          "indexed": false,
          "internalType": "uint256",
          "name": "_gameId",
          "type": "uint256"
        },
        {
          "indexed": false,
          "internalType": "enum ChessGame.Result",
          "name": "_gameResult",
          "type": "uint8"
        },
        {
          "indexed": false,
          "internalType": "enum ChessGame.Sides",
          "name": "_winner",
          "type": "uint8"
        }
      ],
      "name": "GameResult",
      "type": "event"
    },
    {
      "anonymous": false,
      "inputs": [
        {
          "indexed": false,
          "internalType": "uint256",
          "name": "_gameID",
          "type": "uint256"
        },
        {
          "indexed": false,
          "internalType": "enum ChessGame.Sides",
          "name": "_side",
          "type": "uint8"
        }
      ],
      "name": "RewardedPlayers",
      "type": "event"
    },
    {
      "stateMutability": "payable",
      "type": "fallback"
    },
    {
      "inputs": [],
      "name": "FEN",
      "outputs": [
        {
          "internalType": "string",
          "name": "",
          "type": "string"
        }
      ],
      "stateMutability": "view",
      "type": "function"
    },
    {
      "inputs": [],
      "name": "GAME_ID",
      "outputs": [
        {
          "internalType": "uint256",
          "name": "",
          "type": "uint256"
        }
      ],
      "stateMutability": "view",
      "type": "function"
    },
    {
      "inputs": [],
      "name": "GAME_RESULT",
      "outputs": [
        {
          "internalType": "enum ChessGame.Result",
          "name": "",
          "type": "uint8"
        }
      ],
      "stateMutability": "view",
      "type": "function"
    },
    {
      "inputs": [],
      "name": "LOSER",
      "outputs": [
        {
          "internalType": "enum ChessGame.Sides",
          "name": "",
          "type": "uint8"
        }
      ],
      "stateMutability": "view",
      "type": "function"
    },
    {
      "inputs": [],
      "name": "MAX_CHANCES",
      "outputs": [
        {
          "internalType": "uint16",
          "name": "",
          "type": "uint16"
        }
      ],
      "stateMutability": "view",
      "type": "function"
    },
    {
      "inputs": [],
      "name": "MIN_BID",
      "outputs": [
        {
          "internalType": "uint256",
          "name": "",
          "type": "uint256"
        }
      ],
      "stateMutability": "view",
      "type": "function"
    },
    {
      "inputs": [],
      "name": "MIN_COIN_BID",
      "outputs": [
        {
          "internalType": "uint256",
          "name": "",
          "type": "uint256"
        }
      ],
      "stateMutability": "view",
      "type": "function"
    },
    {
      "inputs": [],
      "name": "UBIQUITO_PRICE",
      "outputs": [
        {
          "internalType": "uint256",
          "name": "",
          "type": "uint256"
        }
      ],
      "stateMutability": "view",
      "type": "function"
    },
    {
      "inputs": [],
      "name": "WINNER",
      "outputs": [
        {
          "internalType": "enum ChessGame.Sides",
          "name": "",
          "type": "uint8"
        }
      ],
      "stateMutability": "view",
      "type": "function"
    },
    {
      "inputs": [],
      "name": "turn",
      "outputs": [
        {
          "internalType": "enum ChessGame.Sides",
          "name": "",
          "type": "uint8"
        }
      ],
      "stateMutability": "view",
      "type": "function"
    },
    {
      "stateMutability": "payable",
      "type": "receive"
    },
    {
      "inputs": [
        {
          "internalType": "uint256",
          "name": "_winnerShare",
          "type": "uint256"
        },
        {
          "internalType": "uint256",
          "name": "_loserShare",
          "type": "uint256"
        },
        {
          "internalType": "uint256",
          "name": "_winnerCoinShare",
          "type": "uint256"
        }
      ],
      "name": "setReward",
      "outputs": [],
      "stateMutability": "nonpayable",
      "type": "function"
    },
    {
      "inputs": [
        {
          "internalType": "enum ChessGame.Sides",
          "name": "_side",
          "type": "uint8"
        }
      ],
      "name": "getPool",
      "outputs": [
        {
          "internalType": "uint256",
          "name": "",
          "type": "uint256"
        }
      ],
      "stateMutability": "view",
      "type": "function"
    },
    {
      "inputs": [
        {
          "internalType": "enum ChessGame.Sides",
          "name": "_side",
          "type": "uint8"
        }
      ],
      "name": "getCoins",
      "outputs": [
        {
          "internalType": "uint256",
          "name": "",
          "type": "uint256"
        }
      ],
      "stateMutability": "view",
      "type": "function"
    },
    {
      "inputs": [],
      "name": "sendRewards",
      "outputs": [],
      "stateMutability": "nonpayable",
      "type": "function"
    },
    {
      "inputs": [
        {
          "internalType": "enum ChessGame.Sides",
          "name": "_side",
          "type": "uint8"
        }
      ],
      "name": "getNumberOfPlayers",
      "outputs": [
        {
          "internalType": "uint256",
          "name": "",
          "type": "uint256"
        }
      ],
      "stateMutability": "view",
      "type": "function"
    },
    {
      "inputs": [],
      "name": "getFEN",
      "outputs": [
        {
          "internalType": "string",
          "name": "",
          "type": "string"
        }
      ],
      "stateMutability": "view",
      "type": "function"
    },
    {
      "inputs": [
        {
          "internalType": "enum ChessGame.Result",
          "name": "_result",
          "type": "uint8"
        },
        {
          "internalType": "enum ChessGame.Sides",
          "name": "_side",
          "type": "uint8"
        },
        {
          "internalType": "string",
          "name": "_fen",
          "type": "string"
        }
      ],
      "name": "performMoveUsingEther",
      "outputs": [],
      "stateMutability": "payable",
      "type": "function"
    },
    {
      "inputs": [
        {
          "internalType": "enum ChessGame.Result",
          "name": "_result",
          "type": "uint8"
        },
        {
          "internalType": "enum ChessGame.Sides",
          "name": "_side",
          "type": "uint8"
        },
        {
          "internalType": "uint256",
          "name": "_coins",
          "type": "uint256"
        },
        {
          "internalType": "string",
          "name": "_fen",
          "type": "string"
        }
      ],
      "name": "performMoveUsingCoin",
      "outputs": [],
      "stateMutability": "payable",
      "type": "function"
    }
  ],
  "bytecode": "0x6080604052604051806060016040528060388152602001620032bd603891396002908051906020019062000035929190620001e8565b506000600860006101000a81548160ff021916908360028111156200005f576200005e62000451565b5b02179055506000600860016101000a81548160ff021916908360028111156200008d576200008c62000451565b5b02179055506000600860026101000a81548160ff02191690836002811115620000bb57620000ba62000451565b5b02179055506001600860036101000a81548160ff02191690836002811115620000e957620000e862000451565b5b0217905550348015620000fb57600080fd5b50604051620032f5380380620032f58339818101604052810190620001219190620002f4565b8660048190555085600360006101000a81548161ffff021916908361ffff160217905550846006819055508360058190555082600160006101000a81548173ffffffffffffffffffffffffffffffffffffffff021916908373ffffffffffffffffffffffffffffffffffffffff16021790555081600781905550806000806101000a81548173ffffffffffffffffffffffffffffffffffffffff021916908373ffffffffffffffffffffffffffffffffffffffff160217905550505050505050506200051c565b828054620001f6906200041b565b90600052602060002090601f0160209004810192826200021a576000855562000266565b82601f106200023557805160ff191683800117855562000266565b8280016001018555821562000266579182015b828111156200026557825182559160200191906001019062000248565b5b50905062000275919062000279565b5090565b5b80821115620002945760008160009055506001016200027a565b5090565b600081519050620002a981620004b4565b92915050565b600081519050620002c081620004ce565b92915050565b600081519050620002d781620004e8565b92915050565b600081519050620002ee8162000502565b92915050565b600080600080600080600060e0888a031215620003165762000315620004af565b5b6000620003268a828b01620002dd565b9750506020620003398a828b01620002c6565b96505060406200034c8a828b01620002dd565b95505060606200035f8a828b01620002dd565b9450506080620003728a828b01620002af565b93505060a0620003858a828b01620002dd565b92505060c0620003988a828b0162000298565b91505092959891949750929550565b6000620003b482620003f1565b9050919050565b6000620003c882620003f1565b9050919050565b6000620003dc82620003a7565b9050919050565b600061ffff82169050919050565b600073ffffffffffffffffffffffffffffffffffffffff82169050919050565b6000819050919050565b600060028204905060018216806200043457607f821691505b602082108114156200044b576200044a62000480565b5b50919050565b7f4e487b7100000000000000000000000000000000000000000000000000000000600052602160045260246000fd5b7f4e487b7100000000000000000000000000000000000000000000000000000000600052602260045260246000fd5b600080fd5b620004bf81620003bb565b8114620004cb57600080fd5b50565b620004d981620003cf565b8114620004e557600080fd5b50565b620004f381620003e3565b8114620004ff57600080fd5b50565b6200050d8162000411565b81146200051957600080fd5b50565b612d91806200052c6000396000f3fe60806040526004361061010d5760003560e01c8063b007781b11610095578063d1e90d6211610064578063d1e90d6214610337578063e1c05d9314610362578063e97719861461038b578063fbfc2d65146103c8578063fdcdb06b146103f357610114565b8063b007781b14610279578063b108501f146102a4578063ccd79382146102cf578063ce69cd201461030c57610114565b80634f71aff4116100dc5780634f71aff4146101b65780638b299903146101e157806395cb1b1e1461020c5780639707b03014610223578063aff814cf1461024e57610114565b8063107b652214610116578063339df860146101325780633e51d6811461014e5780633ef018eb1461017957610114565b3661011457005b005b610130600480360381019061012b9190611f8d565b61041e565b005b61014c60048036038101906101479190611ffc565b61085f565b005b34801561015a57600080fd5b50610163610d54565b6040516101709190612583565b60405180910390f35b34801561018557600080fd5b506101a0600480360381019061019b919061207f565b610d5a565b6040516101ad9190612583565b60405180910390f35b3480156101c257600080fd5b506101cb610d9e565b6040516101d89190612568565b60405180910390f35b3480156101ed57600080fd5b506101f6610db2565b60405161020391906123eb565b60405180910390f35b34801561021857600080fd5b50610221610dc5565b005b34801561022f57600080fd5b50610238611115565b6040516102459190612583565b60405180910390f35b34801561025a57600080fd5b5061026361111b565b60405161027091906123d0565b60405180910390f35b34801561028557600080fd5b5061028e61112e565b60405161029b9190612406565b60405180910390f35b3480156102b057600080fd5b506102b96111c0565b6040516102c691906123eb565b60405180910390f35b3480156102db57600080fd5b506102f660048036038101906102f1919061207f565b6111d3565b6040516103039190612583565b60405180910390f35b34801561031857600080fd5b50610321611217565b60405161032e9190612583565b60405180910390f35b34801561034357600080fd5b5061034c61121d565b60405161035991906123eb565b60405180910390f35b34801561036e57600080fd5b50610389600480360381019061038491906120d9565b611230565b005b34801561039757600080fd5b506103b260048036038101906103ad919061207f565b6113c8565b6040516103bf9190612583565b60405180910390f35b3480156103d457600080fd5b506103dd611485565b6040516103ea9190612406565b60405180910390f35b3480156103ff57600080fd5b50610408611513565b6040516104159190612583565b60405180910390f35b60006002811115610432576104316129a9565b5b600860009054906101000a900460ff166002811115610454576104536129a9565b5b14610494576040517f08c379a000000000000000000000000000000000000000000000000000000000815260040161048b90612448565b60405180910390fd5b6006543414806104b857506104b5600560065461151990919063ffffffff16565b34145b806104d757506104d4600a60065461151990919063ffffffff16565b34145b610516576040517f08c379a000000000000000000000000000000000000000000000000000000000815260040161050d90612428565b60405180910390fd5b816000600960003373ffffffffffffffffffffffffffffffffffffffff1673ffffffffffffffffffffffffffffffffffffffff16815260200190815260200160002060000160009054906101000a900460ff1690506000600281111561057f5761057e6129a9565b5b816002811115610592576105916129a9565b5b14156106a25781600960003373ffffffffffffffffffffffffffffffffffffffff1673ffffffffffffffffffffffffffffffffffffffff16815260200190815260200160002060000160006101000a81548160ff021916908360028111156105fd576105fc6129a9565b5b0217905550600a6000836002811115610619576106186129a9565b5b600281111561062b5761062a6129a9565b5b8152602001908152602001600020600001339080600181540180825580915050600190039060005260206000200160009091909190916101000a81548173ffffffffffffffffffffffffffffffffffffffff021916908373ffffffffffffffffffffffffffffffffffffffff160217905550610709565b8160028111156106b5576106b46129a9565b5b8160028111156106c8576106c76129a9565b5b14610708576040517f08c379a00000000000000000000000000000000000000000000000000000000081526004016106ff90612528565b60405180910390fd5b5b83600860039054906101000a900460ff16600281111561072c5761072b6129a9565b5b81600281111561073f5761073e6129a9565b5b1461077f576040517f08c379a000000000000000000000000000000000000000000000000000000000815260040161077690612508565b60405180910390fd5b600360009054906101000a900461ffff1661ffff16600960003373ffffffffffffffffffffffffffffffffffffffff1673ffffffffffffffffffffffffffffffffffffffff16815260200190815260200160002060000160019054906101000a900461ffff1661ffff1610610829576040517f08c379a000000000000000000000000000000000000000000000000000000000815260040161082090612468565b60405180910390fd5b836002908051906020019061083f929190611de4565b5061084d338634600061152f565b6108578686611704565b505050505050565b60006002811115610873576108726129a9565b5b600860009054906101000a900460ff166002811115610895576108946129a9565b5b146108d5576040517f08c379a00000000000000000000000000000000000000000000000000000000081526004016108cc90612448565b60405180910390fd5b816005548114806108f957506108f66005805461151990919063ffffffff16565b81145b806109185750610915600a60055461151990919063ffffffff16565b81145b610957576040517f08c379a000000000000000000000000000000000000000000000000000000000815260040161094e90612428565b60405180910390fd5b836000600960003373ffffffffffffffffffffffffffffffffffffffff1673ffffffffffffffffffffffffffffffffffffffff16815260200190815260200160002060000160009054906101000a900460ff169050600060028111156109c0576109bf6129a9565b5b8160028111156109d3576109d26129a9565b5b1415610ae35781600960003373ffffffffffffffffffffffffffffffffffffffff1673ffffffffffffffffffffffffffffffffffffffff16815260200190815260200160002060000160006101000a81548160ff02191690836002811115610a3e57610a3d6129a9565b5b0217905550600a6000836002811115610a5a57610a596129a9565b5b6002811115610a6c57610a6b6129a9565b5b8152602001908152602001600020600001339080600181540180825580915050600190039060005260206000200160009091909190916101000a81548173ffffffffffffffffffffffffffffffffffffffff021916908373ffffffffffffffffffffffffffffffffffffffff160217905550610b4a565b816002811115610af657610af56129a9565b5b816002811115610b0957610b086129a9565b5b14610b49576040517f08c379a0000000000000000000000000000000000000000000000000000000008152600401610b4090612528565b60405180910390fd5b5b85600860039054906101000a900460ff166002811115610b6d57610b6c6129a9565b5b816002811115610b8057610b7f6129a9565b5b14610bc0576040517f08c379a0000000000000000000000000000000000000000000000000000000008152600401610bb790612508565b60405180910390fd5b600360009054906101000a900461ffff1661ffff16600960003373ffffffffffffffffffffffffffffffffffffffff1673ffffffffffffffffffffffffffffffffffffffff16815260200190815260200160002060000160019054906101000a900461ffff1661ffff1610610c6a576040517f08c379a0000000000000000000000000000000000000000000000000000000008152600401610c6190612468565b60405180910390fd5b8460029080519060200190610c80929190611de4565b50610c8e338860008961152f565b610c988888611704565b600160009054906101000a900473ffffffffffffffffffffffffffffffffffffffff1673ffffffffffffffffffffffffffffffffffffffff166323b872dd3330896040518463ffffffff1660e01b8152600401610cf793929190612399565b602060405180830381600087803b158015610d1157600080fd5b505af1158015610d25573d6000803e3d6000fd5b505050506040513d601f19601f82011682018060405250810190610d499190611f60565b505050505050505050565b60075481565b6000600a6000836002811115610d7357610d726129a9565b5b6002811115610d8557610d846129a9565b5b8152602001908152602001600020600201549050919050565b600360009054906101000a900461ffff1681565b600860039054906101000a900460ff1681565b60006002811115610dd957610dd86129a9565b5b600860009054906101000a900460ff166002811115610dfb57610dfa6129a9565b5b1415610e3c576040517f08c379a0000000000000000000000000000000000000000000000000000000008152600401610e3390612548565b60405180910390fd5b60008054906101000a900473ffffffffffffffffffffffffffffffffffffffff1673ffffffffffffffffffffffffffffffffffffffff163373ffffffffffffffffffffffffffffffffffffffff1614610eca576040517f08c379a0000000000000000000000000000000000000000000000000000000008152600401610ec1906124c8565b60405180910390fd5b600060149054906101000a900460ff16610f19576040517f08c379a0000000000000000000000000000000000000000000000000000000008152600401610f10906124e8565b60405180910390fd5b610f23600161187c565b7fa063b25e86b685025877e8288a7c25aaa1111ff0242b4fd0fa8c78c7dcd5cd976004546001604051610f579291906125d5565b60405180910390a1610f69600261187c565b7fa063b25e86b685025877e8288a7c25aaa1111ff0242b4fd0fa8c78c7dcd5cd976004546002604051610f9d9291906125d5565b60405180910390a1600160009054906101000a900473ffffffffffffffffffffffffffffffffffffffff1673ffffffffffffffffffffffffffffffffffffffff166342966c68600160009054906101000a900473ffffffffffffffffffffffffffffffffffffffff1673ffffffffffffffffffffffffffffffffffffffff166370a08231306040518263ffffffff1660e01b815260040161103e9190612355565b60206040518083038186803b15801561105657600080fd5b505afa15801561106a573d6000803e3d6000fd5b505050506040513d601f19601f8201168201806040525081019061108e91906120ac565b6040518263ffffffff1660e01b81526004016110aa9190612583565b600060405180830381600087803b1580156110c457600080fd5b505af11580156110d8573d6000803e3d6000fd5b5050505060008054906101000a900473ffffffffffffffffffffffffffffffffffffffff1673ffffffffffffffffffffffffffffffffffffffff16ff5b60055481565b600860009054906101000a900460ff1681565b60606002805461113d90612874565b80601f016020809104026020016040519081016040528092919081815260200182805461116990612874565b80156111b65780601f1061118b576101008083540402835291602001916111b6565b820191906000526020600020905b81548152906001019060200180831161119957829003601f168201915b5050505050905090565b600860019054906101000a900460ff1681565b6000600a60008360028111156111ec576111eb6129a9565b5b60028111156111fe576111fd6129a9565b5b8152602001908152602001600020600101549050919050565b60065481565b600860029054906101000a900460ff1681565b60008054906101000a900473ffffffffffffffffffffffffffffffffffffffff1673ffffffffffffffffffffffffffffffffffffffff163373ffffffffffffffffffffffffffffffffffffffff16146112be576040517f08c379a00000000000000000000000000000000000000000000000000000000081526004016112b5906124c8565b60405180910390fd5b82600a6000600860019054906101000a900460ff1660028111156112e5576112e46129a9565b5b60028111156112f7576112f66129a9565b5b81526020019081526020016000206004018190555081600a6000600860029054906101000a900460ff166002811115611333576113326129a9565b5b6002811115611345576113446129a9565b5b81526020019081526020016000206004018190555080600a6000600860019054906101000a900460ff166002811115611381576113806129a9565b5b6002811115611393576113926129a9565b5b8152602001908152602001600020600501819055506001600060146101000a81548160ff021916908315150217905550505050565b60008060028111156113dd576113dc6129a9565b5b600860009054906101000a900460ff1660028111156113ff576113fe6129a9565b5b1415611440576040517f08c379a000000000000000000000000000000000000000000000000000000000815260040161143790612548565b60405180910390fd5b600a6000836002811115611457576114566129a9565b5b6002811115611469576114686129a9565b5b8152602001908152602001600020600001805490509050919050565b6002805461149290612874565b80601f01602080910402602001604051908101604052809291908181526020018280546114be90612874565b801561150b5780601f106114e05761010080835404028352916020019161150b565b820191906000526020600020905b8154815290600101906020018083116114ee57829003601f168201915b505050505081565b60045481565b600081836115279190612702565b905092915050565b81600960008673ffffffffffffffffffffffffffffffffffffffff1673ffffffffffffffffffffffffffffffffffffffff1681526020019081526020016000206001016000828254611581919061267b565b9250508190555080600960008673ffffffffffffffffffffffffffffffffffffffff1673ffffffffffffffffffffffffffffffffffffffff16815260200190815260200160002060020160008282546115da919061267b565b9250508190555081600a60008560028111156115f9576115f86129a9565b5b600281111561160b5761160a6129a9565b5b8152602001908152602001600020600101600082825461162b919061267b565b9250508190555080600a600085600281111561164a576116496129a9565b5b600281111561165c5761165b6129a9565b5b8152602001908152602001600020600201600082825461167c919061267b565b92505081905550600960008573ffffffffffffffffffffffffffffffffffffffff1673ffffffffffffffffffffffffffffffffffffffff168152602001908152602001600020600001600181819054906101000a900461ffff16809291906116e3906128d7565b91906101000a81548161ffff021916908361ffff1602179055505050505050565b60006002811115611718576117176129a9565b5b82600281111561172b5761172a6129a9565b5b14156117685761173a81611c99565b600860036101000a81548160ff0219169083600281111561175e5761175d6129a9565b5b0217905550611878565b81600860006101000a81548160ff0219169083600281111561178d5761178c6129a9565b5b0217905550600160028111156117a6576117a56129a9565b5b8260028111156117b9576117b86129a9565b5b141561181c5780600860016101000a81548160ff021916908360028111156117e4576117e36129a9565b5b02179055506117f281611c99565b600860026101000a81548160ff02191690836002811115611816576118156129a9565b5b02179055505b7f9f944246baa01667bdd75f4a173d7aea07caaeddfd168558809d7bba08a5d43a600454600860009054906101000a900460ff16600860019054906101000a900460ff1660405161186f9392919061259e565b60405180910390a15b5050565b600060028111156118905761188f6129a9565b5b600860009054906101000a900460ff1660028111156118b2576118b16129a9565b5b14156118f3576040517f08c379a00000000000000000000000000000000000000000000000000000000081526004016118ea90612548565b60405180910390fd5b600060149054906101000a900460ff16611942576040517f08c379a0000000000000000000000000000000000000000000000000000000008152600401611939906124e8565b60405180910390fd5b600061194d826113c8565b90506000600a6000846002811115611968576119676129a9565b5b600281111561197a576119796129a9565b5b81526020019081526020016000206004015490506000600a60008560028111156119a7576119a66129a9565b5b60028111156119b9576119b86129a9565b5b81526020019081526020016000206005015490506000600860019054906101000a900460ff1660028111156119f1576119f06129a9565b5b856002811115611a0457611a036129a9565b5b1480611a34575060006002811115611a1f57611a1e6129a9565b5b856002811115611a3257611a316129a9565b5b145b15611a3e57600190505b60005b84811015611c91576000600a6000886002811115611a6257611a616129a9565b5b6002811115611a7457611a736129a9565b5b81526020019081526020016000206000018281548110611a9757611a96612a07565b5b9060005260206000200160009054906101000a900473ffffffffffffffffffffffffffffffffffffffff16905060008360ff16600960008473ffffffffffffffffffffffffffffffffffffffff1673ffffffffffffffffffffffffffffffffffffffff16815260200190815260200160002060010154611b179190612702565b905060008187611b27919061267b565b9050611b338382611cda565b600060028660ff16600960008773ffffffffffffffffffffffffffffffffffffffff1673ffffffffffffffffffffffffffffffffffffffff16815260200190815260200160002060020154611b889190612702565b611b9291906126d1565b9050600087611bac6007548b611dce90919063ffffffff16565b611bb6919061267b565b905060008183611bc6919061267b565b9050600160009054906101000a900473ffffffffffffffffffffffffffffffffffffffff1673ffffffffffffffffffffffffffffffffffffffff1663a9059cbb87836040518363ffffffff1660e01b8152600401611c25929190612370565b602060405180830381600087803b158015611c3f57600080fd5b505af1158015611c53573d6000803e3d6000fd5b505050506040513d601f19601f82011682018060405250810190611c779190611f60565b505050505050508080611c8990612902565b915050611a41565b505050505050565b6000600280811115611cae57611cad6129a9565b5b826002811115611cc157611cc06129a9565b5b1415611cd05760019050611cd5565b600290505b919050565b80471015611d1d576040517f08c379a0000000000000000000000000000000000000000000000000000000008152600401611d14906124a8565b60405180910390fd5b60008273ffffffffffffffffffffffffffffffffffffffff1682604051611d4390612340565b60006040518083038185875af1925050503d8060008114611d80576040519150601f19603f3d011682016040523d82523d6000602084013e611d85565b606091505b5050905080611dc9576040517f08c379a0000000000000000000000000000000000000000000000000000000008152600401611dc090612488565b60405180910390fd5b505050565b60008183611ddc91906126d1565b905092915050565b828054611df090612874565b90600052602060002090601f016020900481019282611e125760008555611e59565b82601f10611e2b57805160ff1916838001178555611e59565b82800160010185558215611e59579182015b82811115611e58578251825591602001919060010190611e3d565b5b509050611e669190611e6a565b5090565b5b80821115611e83576000816000905550600101611e6b565b5090565b6000611e9a611e9584612623565b6125fe565b905082815260208101848484011115611eb657611eb5612a6a565b5b611ec1848285612832565b509392505050565b600081519050611ed881612d0d565b92915050565b600081359050611eed81612d24565b92915050565b600081359050611f0281612d34565b92915050565b600082601f830112611f1d57611f1c612a65565b5b8135611f2d848260208601611e87565b91505092915050565b600081359050611f4581612d44565b92915050565b600081519050611f5a81612d44565b92915050565b600060208284031215611f7657611f75612a74565b5b6000611f8484828501611ec9565b91505092915050565b600080600060608486031215611fa657611fa5612a74565b5b6000611fb486828701611ede565b9350506020611fc586828701611ef3565b925050604084013567ffffffffffffffff811115611fe657611fe5612a6f565b5b611ff286828701611f08565b9150509250925092565b6000806000806080858703121561201657612015612a74565b5b600061202487828801611ede565b945050602061203587828801611ef3565b935050604061204687828801611f36565b925050606085013567ffffffffffffffff81111561206757612066612a6f565b5b61207387828801611f08565b91505092959194509250565b60006020828403121561209557612094612a74565b5b60006120a384828501611ef3565b91505092915050565b6000602082840312156120c2576120c1612a74565b5b60006120d084828501611f4b565b91505092915050565b6000806000606084860312156120f2576120f1612a74565b5b600061210086828701611f36565b935050602061211186828701611f36565b925050604061212286828701611f36565b9150509250925092565b612135816127d8565b82525050565b6121448161275c565b82525050565b612153816127ea565b82525050565b612162816127fc565b82525050565b600061217382612654565b61217d818561266a565b935061218d818560208601612841565b61219681612a79565b840191505092915050565b60006121ae60178361266a565b91506121b982612a8a565b602082019050919050565b60006121d160168361266a565b91506121dc82612ab3565b602082019050919050565b60006121f4602b8361266a565b91506121ff82612adc565b604082019050919050565b6000612217603a8361266a565b915061222282612b2b565b604082019050919050565b600061223a601d8361266a565b915061224582612b7a565b602082019050919050565b600061225d60348361266a565b915061226882612ba3565b604082019050919050565b600061228060238361266a565b915061228b82612bf2565b604082019050919050565b60006122a360008361265f565b91506122ae82612c41565b600082019050919050565b60006122c660198361266a565b91506122d182612c44565b602082019050919050565b60006122e960238361266a565b91506122f482612c6d565b604082019050919050565b600061230c601c8361266a565b915061231782612cbc565b602082019050919050565b61232b816127a0565b82525050565b61233a816127ce565b82525050565b600061234b82612296565b9150819050919050565b600060208201905061236a600083018461213b565b92915050565b6000604082019050612385600083018561212c565b6123926020830184612331565b9392505050565b60006060820190506123ae600083018661213b565b6123bb602083018561213b565b6123c86040830184612331565b949350505050565b60006020820190506123e5600083018461214a565b92915050565b60006020820190506124006000830184612159565b92915050565b600060208201905081810360008301526124208184612168565b905092915050565b60006020820190508181036000830152612441816121a1565b9050919050565b60006020820190508181036000830152612461816121c4565b9050919050565b60006020820190508181036000830152612481816121e7565b9050919050565b600060208201905081810360008301526124a18161220a565b9050919050565b600060208201905081810360008301526124c18161222d565b9050919050565b600060208201905081810360008301526124e181612250565b9050919050565b6000602082019050818103600083015261250181612273565b9050919050565b60006020820190508181036000830152612521816122b9565b9050919050565b60006020820190508181036000830152612541816122dc565b9050919050565b60006020820190508181036000830152612561816122ff565b9050919050565b600060208201905061257d6000830184612322565b92915050565b60006020820190506125986000830184612331565b92915050565b60006060820190506125b36000830186612331565b6125c0602083018561214a565b6125cd6040830184612159565b949350505050565b60006040820190506125ea6000830185612331565b6125f76020830184612159565b9392505050565b6000612608612619565b905061261482826128a6565b919050565b6000604051905090565b600067ffffffffffffffff82111561263e5761263d612a36565b5b61264782612a79565b9050602081019050919050565b600081519050919050565b600081905092915050565b600082825260208201905092915050565b6000612686826127ce565b9150612691836127ce565b9250827fffffffffffffffffffffffffffffffffffffffffffffffffffffffffffffffff038211156126c6576126c561294b565b5b828201905092915050565b60006126dc826127ce565b91506126e7836127ce565b9250826126f7576126f661297a565b5b828204905092915050565b600061270d826127ce565b9150612718836127ce565b9250817fffffffffffffffffffffffffffffffffffffffffffffffffffffffffffffffff04831182151516156127515761275061294b565b5b828202905092915050565b6000612767826127ae565b9050919050565b60008115159050919050565b600081905061278882612ce5565b919050565b600081905061279b82612cf9565b919050565b600061ffff82169050919050565b600073ffffffffffffffffffffffffffffffffffffffff82169050919050565b6000819050919050565b60006127e38261280e565b9050919050565b60006127f58261277a565b9050919050565b60006128078261278d565b9050919050565b600061281982612820565b9050919050565b600061282b826127ae565b9050919050565b82818337600083830152505050565b60005b8381101561285f578082015181840152602081019050612844565b8381111561286e576000848401525b50505050565b6000600282049050600182168061288c57607f821691505b602082108114156128a05761289f6129d8565b5b50919050565b6128af82612a79565b810181811067ffffffffffffffff821117156128ce576128cd612a36565b5b80604052505050565b60006128e2826127a0565b915061ffff8214156128f7576128f661294b565b5b600182019050919050565b600061290d826127ce565b91507fffffffffffffffffffffffffffffffffffffffffffffffffffffffffffffffff8214156129405761293f61294b565b5b600182019050919050565b7f4e487b7100000000000000000000000000000000000000000000000000000000600052601160045260246000fd5b7f4e487b7100000000000000000000000000000000000000000000000000000000600052601260045260246000fd5b7f4e487b7100000000000000000000000000000000000000000000000000000000600052602160045260246000fd5b7f4e487b7100000000000000000000000000000000000000000000000000000000600052602260045260246000fd5b7f4e487b7100000000000000000000000000000000000000000000000000000000600052603260045260246000fd5b7f4e487b7100000000000000000000000000000000000000000000000000000000600052604160045260246000fd5b600080fd5b600080fd5b600080fd5b600080fd5b6000601f19601f8301169050919050565b7f436865737347616d653a20496e76616c69642042696421000000000000000000600082015250565b7f436865737347616d653a2047616d6520656e6465642100000000000000000000600082015250565b7f436865737347616d653a20596f75206861766520706c61796564206d6178696d60008201527f756d206368616e63657321000000000000000000000000000000000000000000602082015250565b7f416464726573733a20756e61626c6520746f2073656e642076616c75652c207260008201527f6563697069656e74206d61792068617665207265766572746564000000000000602082015250565b7f416464726573733a20696e73756666696369656e742062616c616e6365000000600082015250565b7f436865737347616d653a204f6e6c79204368657373466163746f72792063616e60008201527f2063616c6c20746869732066756e6374696f6e21000000000000000000000000602082015250565b7f436865737347616d653a2052657761726420686173206e6f74206265656e207360008201527f6574210000000000000000000000000000000000000000000000000000000000602082015250565b50565b7f436865737347616d653a204e6f7420796f7572207475726e2100000000000000600082015250565b7f436865737347616d653a20596f752063616e6e6f74206368616e67652073696460008201527f6573210000000000000000000000000000000000000000000000000000000000602082015250565b7f436865737347616d653a2047616d6520696e2050726f67726573732100000000600082015250565b60038110612cf657612cf56129a9565b5b50565b60038110612d0a57612d096129a9565b5b50565b612d168161276e565b8114612d2157600080fd5b50565b60038110612d3157600080fd5b50565b60038110612d4157600080fd5b50565b612d4d816127ce565b8114612d5857600080fd5b5056fea26469706673582212203427892654a93f35b1be3ed01ce143009761922c81822bf2023d66a2e8a9d12364736f6c63430008060033726e62716b626e722f70707070707070702f382f382f382f382f50505050505050502f524e42514b424e522077204b516b71202d20302031",
  "immutableReferences": {},
  "source": "//SPDX-License-Identifier: RahulPanchal-15\r\npragma solidity ^0.8.4;\r\n\r\nimport \"@openzeppelin/contracts/utils/Address.sol\";\r\nimport \"@openzeppelin/contracts/utils/math/SafeMath.sol\";\r\nimport \"@openzeppelin/contracts/token/ERC20/IERC20.sol\";\r\n\r\n///@title An ERC20 standard burnable token interface\r\n///@author Rahul Panchal\r\ninterface IERC20Burnable is IERC20 {\r\n    function burn(uint256 amount) external;\r\n}\r\n\r\n///@title Implements a Chess Game\r\n///@author Rahul Panchal\r\n///@notice Perform moves using ether or by using ERC20 token\r\n///@dev Check for bugs \r\ncontract ChessGame {\r\n    using SafeMath for uint256;\r\n    using Address for address payable;\r\n\r\n\r\n    enum Result {\r\n        NA,\r\n        WinLoss,\r\n        Draw\r\n    }\r\n\r\n    enum Sides {\r\n        None,\r\n        White,\r\n        Black\r\n    }\r\n\r\n    struct Player {\r\n        Sides side;\r\n        // uint16 moves[MAX_CHANCES];  //can be removed\r\n        uint16 moves;\r\n        uint256 bid;\r\n        uint256 cbid;\r\n    }\r\n\r\n    struct SideStruct {\r\n        address[] players;\r\n        uint256 pool;\r\n        uint256 coins;\r\n        uint256 numberOfPlayers;\r\n        uint256 reward;\r\n        uint256 coin_reward;\r\n    }\r\n\r\n\r\n    address payable private CHESS_FACTORY;\r\n    bool private REWARD_SET;\r\n    IERC20Burnable private UBIQUITO;\r\n    string public FEN = \"rnbqkbnr/pppppppp/8/8/8/8/PPPPPPPP/RNBQKBNR w KQkq - 0 1\";\r\n    uint16 public MAX_CHANCES;\r\n    uint256 public GAME_ID;\r\n    uint256 public MIN_COIN_BID;\r\n    uint256 public MIN_BID;\r\n    uint256 public UBIQUITO_PRICE;\r\n    Result public GAME_RESULT = Result.NA;\r\n    Sides public WINNER = Sides.None;\r\n    Sides public LOSER = Sides.None;\r\n    Sides public turn = Sides.White;\r\n    mapping(address => Player) private player;\r\n    mapping(Sides => SideStruct) private side;\r\n\r\n    event GameResult(\r\n        uint256 _gameId,\r\n        Result _gameResult,\r\n        Sides _winner\r\n    );\r\n\r\n    event RewardedPlayers(uint256 _gameID, Sides _side);\r\n\r\n    constructor(\r\n        uint256 _gameId,\r\n        uint16 _maxChances,\r\n        uint256 _minBid,\r\n        uint256 _coinMinBid,\r\n        IERC20Burnable _token,\r\n        uint256 _tokenPrice,\r\n        address payable _chessFactory\r\n    ) \r\n    {\r\n        GAME_ID = _gameId;\r\n        MAX_CHANCES = _maxChances;\r\n        MIN_BID = _minBid;\r\n        MIN_COIN_BID = _coinMinBid;\r\n        UBIQUITO = _token;\r\n        UBIQUITO_PRICE = _tokenPrice;\r\n        CHESS_FACTORY = _chessFactory;\r\n    }\r\n\r\n    \r\n    modifier isTrueSide(Sides _side) {\r\n        Sides _actualPlayerSide = player[msg.sender].side;\r\n        if (_actualPlayerSide == Sides.None) {\r\n            player[msg.sender].side = _side;\r\n            side[_side].players.push(msg.sender);\r\n        } else {\r\n            require(\r\n                _actualPlayerSide == _side,\r\n                \"ChessGame: You cannot change sides!\"\r\n            );\r\n        }\r\n        _;\r\n    }\r\n\r\n    modifier validBid() {\r\n        require(\r\n            msg.value == MIN_BID ||\r\n                msg.value == MIN_BID.mul(5) ||\r\n                msg.value == MIN_BID.mul(10),\r\n            \"ChessGame: Invalid Bid!\"\r\n        );\r\n        _;\r\n    }\r\n\r\n    modifier validCBid(uint256 _coins) {\r\n        require(\r\n            _coins == MIN_COIN_BID ||\r\n                _coins == MIN_COIN_BID.mul(5) ||\r\n                _coins == MIN_COIN_BID.mul(10),\r\n            \"ChessGame: Invalid Bid!\"\r\n        );\r\n        _;\r\n    }\r\n\r\n    modifier onlyFactory() {\r\n        require(\r\n            msg.sender == CHESS_FACTORY,\r\n            \"ChessGame: Only ChessFactory can call this function!\"\r\n        );\r\n        _;\r\n    }\r\n\r\n    modifier hasChancesLeft() {\r\n        require(\r\n            player[msg.sender].moves < MAX_CHANCES,\r\n            \"ChessGame: You have played maximum chances!\"\r\n        );\r\n        _;\r\n    }\r\n\r\n    modifier isTrueTurn(Sides _side) {\r\n        require(_side == turn, \"ChessGame: Not your turn!\");\r\n        _;\r\n    }\r\n\r\n    modifier rewardIsSet() {\r\n        require(REWARD_SET, \"ChessGame: Reward has not been set!\");\r\n        _;\r\n    }\r\n\r\n    modifier inProgress() {\r\n        require(GAME_RESULT == Result.NA, \"ChessGame: Game ended!\");\r\n        _;\r\n    }\r\n\r\n    modifier isEnded() {\r\n        require(GAME_RESULT != Result.NA, \"ChessGame: Game in Progress!\");\r\n        _;\r\n    }\r\n\r\n\r\n    receive() external payable {}\r\n\r\n    fallback() external payable {}\r\n    \r\n    ///@dev Used by Factory to set rewards for the game\r\n    ///@param _winnerShare Percentage of ether that will be rewarded to winners\r\n    ///@param _loserShare Percentage of ether that will be used for losers\r\n    ///@param _winnerCoinShare Percentage of coins that will be rewarded to winners\r\n    function setReward(\r\n        uint256 _winnerShare,\r\n        uint256 _loserShare,\r\n        uint256 _winnerCoinShare\r\n    )\r\n        external \r\n        onlyFactory \r\n    {\r\n        side[WINNER].reward = _winnerShare;\r\n        side[LOSER].reward = _loserShare;\r\n        side[WINNER].coin_reward = _winnerCoinShare;\r\n        REWARD_SET = true;\r\n    }\r\n\r\n    ///@notice Gets the pool of a side\r\n    ///@dev Gets the pool of a side\r\n    ///@param _side 1:White, 2:Black\r\n    ///@return Pool of _side\r\n    function getPool(Sides _side) external view returns (uint256) {\r\n        return side[_side].pool;\r\n    }\r\n    \r\n    ///@notice Gets the coin pool of a side\r\n    ///@dev Gets the coin pool of a side\r\n    ///@param _side 1:White, 2:Black\r\n    ///@return Coin Pool of _side\r\n    function getCoins(Sides _side) external view returns (uint256) {\r\n        return side[_side].coins;\r\n    }\r\n\r\n    ///@notice Rewards all players\r\n    ///@dev Rewards all players and destroys the contract\r\n    function sendRewards() external isEnded onlyFactory rewardIsSet {\r\n        rewardPlayersOfSide(Sides.White);\r\n        emit RewardedPlayers(GAME_ID, Sides.White);\r\n        rewardPlayersOfSide(Sides.Black);\r\n        emit RewardedPlayers(GAME_ID, Sides.Black);\r\n        UBIQUITO.burn(UBIQUITO.balanceOf(address(this)));\r\n        selfdestruct(CHESS_FACTORY);\r\n    }\r\n\r\n    ///@notice Number of players in a side\r\n    ///@dev Number of players in a side\r\n    ///@param _side 1:White, 2:Black\r\n    ///@return Number of players in _side\r\n    function getNumberOfPlayers(Sides _side)\r\n        public\r\n        view\r\n        isEnded\r\n        returns (uint256)\r\n    {\r\n        return side[_side].players.length;\r\n    }\r\n\r\n    ///@notice FEN of the board\r\n    ///@dev FEN of the board\r\n    ///@return FEN string\r\n    function getFEN() public view returns(string memory) {\r\n        return FEN;\r\n    }\r\n\r\n\r\n    ///@notice Perform a move by bidding a small amount of ether\r\n    ///@dev Validates the move and adds data to the variables\r\n    ///@param _result Result of the game\r\n    ///@param _side Side which is playing\r\n    ///@param _fen FEN string of the board after the move\r\n    function performMoveUsingEther(\r\n        Result _result,\r\n        Sides _side,\r\n        string memory _fen\r\n    )\r\n        public\r\n        payable\r\n        inProgress()\r\n        validBid()\r\n        isTrueSide(_side)\r\n        isTrueTurn(_side)\r\n        hasChancesLeft()\r\n    {\r\n        FEN = _fen;\r\n        addData(msg.sender, _side, msg.value, 0);\r\n        checkResult(_result,_side);\r\n    }\r\n\r\n    ///@notice Perform a move by bidding ERC20 token\r\n    ///@dev Validates the move and adds data to the variables\r\n    ///@param _result Result of the game\r\n    ///@param _side Side which is playing\r\n    ///@param _coins Amount of coins given for the bid\r\n    ///@param _fen FEN string of the board after the move\r\n    ///@custom:requires Sender to approve contract to transfer funds\r\n    function performMoveUsingCoin(\r\n        Result _result,\r\n        Sides _side,\r\n        uint256 _coins,\r\n        string memory _fen\r\n    )\r\n        public\r\n        payable\r\n        inProgress()\r\n        validCBid(_coins)\r\n        isTrueSide(_side)\r\n        isTrueTurn(_side)\r\n        hasChancesLeft()\r\n    {\r\n        FEN = _fen;\r\n        addData(msg.sender, _side, 0, _coins);\r\n        checkResult(_result,_side);\r\n        // UBIQUITO.approve(address(this), _coins); // To be done via backend! Sender must approve that ChessGame can use my Ubiquito!!\r\n        UBIQUITO.transferFrom(msg.sender, address(this), _coins);\r\n    }\r\n\r\n    ///@dev Rewards all players of the game\r\n    ///@param _side Side\r\n    function rewardPlayersOfSide(Sides _side) \r\n        internal \r\n        isEnded \r\n        rewardIsSet \r\n    {\r\n        uint256 recipients = getNumberOfPlayers(_side);\r\n        uint256 sideReward = side[_side].reward;\r\n        uint256 sideCoinReward = side[_side].coin_reward;\r\n        uint8 multiplier = 0;\r\n        if (_side==WINNER || _side==Sides.None){\r\n            multiplier=1;\r\n        }\r\n        for (uint256 i = 0; i < recipients; i++) {\r\n            address payable recipient = payable(side[_side].players[i]);\r\n            uint256 playerBid = player[recipient].bid * multiplier;\r\n            uint256 amount = sideReward + playerBid;\r\n            Address.sendValue(recipient, amount);\r\n            uint256 playerCoins = (player[recipient].cbid * multiplier) / 2;\r\n            uint256 coinReward = sideReward.div(UBIQUITO_PRICE) + sideCoinReward;\r\n            uint256 totalCoins = playerCoins + coinReward;\r\n            UBIQUITO.transfer(recipient, totalCoins);\r\n        }\r\n    }\r\n\r\n\r\n    function checkResult(\r\n        Result _result,\r\n        Sides _side\r\n    ) internal\r\n    {\r\n        if (_result == Result.NA) {\r\n            turn = switchTeam(_side);\r\n        } else {\r\n            GAME_RESULT = _result;\r\n            if (_result == Result.WinLoss) {\r\n                WINNER = _side;\r\n                LOSER = switchTeam(_side);\r\n            }\r\n            emit GameResult(\r\n                GAME_ID,\r\n                GAME_RESULT,\r\n                WINNER\r\n            );\r\n        }\r\n    }\r\n\r\n    ///@dev Utility function to add data to variables after a move\r\n    ///@param _player Address of player\r\n    ///@param _side Side\r\n    ///@param _bid Bid in wei\r\n    ///@param _coin Bid in ERC20 token\r\n    function addData(\r\n        address _player,\r\n        Sides _side,\r\n        uint256 _bid,\r\n        uint256 _coin\r\n    ) \r\n        internal \r\n    {\r\n        player[_player].bid += _bid;\r\n        player[_player].cbid += _coin;\r\n        side[_side].pool += _bid;\r\n        side[_side].coins += _coin;\r\n        player[_player].moves++;\r\n    }\r\n\r\n    ///@dev Utility function to switch sides\r\n    ///@param _side Side \r\n    ///@return Opposite Side\r\n    function switchTeam(Sides _side) internal pure returns (Sides) {\r\n        if (_side == Sides.Black) {\r\n            return Sides.White;\r\n        } else {\r\n            return Sides.Black;\r\n        }\r\n    }\r\n}",
  "sourcePath": "C:/Users/naresh panchal/blockC/bidding-chess/contracts/ChessGame.sol",
  "compiler": {
    "name": "solc",
    "version": "0.8.6+commit.11564f7e.Emscripten.clang"
  },
  "schemaVersion": "3.4.1",
  "updatedAt": "2021-07-30T12:44:47.719Z",
  "devdoc": {
    "author": "Rahul Panchal",
    "details": "Check for bugs ",
    "kind": "dev",
    "methods": {
      "getCoins(uint8)": {
        "details": "Gets the coin pool of a side",
        "params": {
          "_side": "1:White, 2:Black"
        },
        "returns": {
          "_0": "Coin Pool of _side"
        }
      },
      "getFEN()": {
        "details": "FEN of the board",
        "returns": {
          "_0": "FEN string"
        }
      },
      "getNumberOfPlayers(uint8)": {
        "details": "Number of players in a side",
        "params": {
          "_side": "1:White, 2:Black"
        },
        "returns": {
          "_0": "Number of players in _side"
        }
      },
      "getPool(uint8)": {
        "details": "Gets the pool of a side",
        "params": {
          "_side": "1:White, 2:Black"
        },
        "returns": {
          "_0": "Pool of _side"
        }
      },
      "performMoveUsingCoin(uint8,uint8,uint256,string)": {
        "custom:requires": "Sender to approve contract to transfer funds",
        "details": "Validates the move and adds data to the variables",
        "params": {
          "_coins": "Amount of coins given for the bid",
          "_fen": "FEN string of the board after the move",
          "_result": "Result of the game",
          "_side": "Side which is playing"
        }
      },
      "performMoveUsingEther(uint8,uint8,string)": {
        "details": "Validates the move and adds data to the variables",
        "params": {
          "_fen": "FEN string of the board after the move",
          "_result": "Result of the game",
          "_side": "Side which is playing"
        }
      },
      "sendRewards()": {
        "details": "Rewards all players and destroys the contract"
      },
      "setReward(uint256,uint256,uint256)": {
        "details": "Used by Factory to set rewards for the game",
        "params": {
          "_loserShare": "Percentage of ether that will be used for losers",
          "_winnerCoinShare": "Percentage of coins that will be rewarded to winners",
          "_winnerShare": "Percentage of ether that will be rewarded to winners"
        }
      }
    },
    "title": "Implements a Chess Game",
    "version": 1
  },
  "userdoc": {
    "kind": "user",
    "methods": {
      "getCoins(uint8)": {
        "notice": "Gets the coin pool of a side"
      },
      "getFEN()": {
        "notice": "FEN of the board"
      },
      "getNumberOfPlayers(uint8)": {
        "notice": "Number of players in a side"
      },
      "getPool(uint8)": {
        "notice": "Gets the pool of a side"
      },
      "performMoveUsingCoin(uint8,uint8,uint256,string)": {
        "notice": "Perform a move by bidding ERC20 token"
      },
      "performMoveUsingEther(uint8,uint8,string)": {
        "notice": "Perform a move by bidding a small amount of ether"
      },
      "sendRewards()": {
        "notice": "Rewards all players"
      }
    },
    "notice": "Perform moves using ether or by using ERC20 token",
    "version": 1
  }
}